:020000040000FA
:100000000C9401080C9429080C9429080C942908D4
:100010000C9429080C9429080C9429080C9429089C
:100020000C9429080C9429080C9429080C9429088C
:100030000C94EB130C94B0140C9429080C9429081C
:100040000C94A1130C9429080C9429080C942908E9
:100050000C9429080C9429080C9429080C9429085C
:100060000C9429080C9429080000000000000000EE
:100070000000000000000000000000000000000080
:100080000000000000000000000000000000000070
:100090000000000000000000000000000000000060
:1000A0000000000000000000000000000000000050
:1000B0000000000000000000000000000000000040
:1000C0000000000000000000000000000000000030
:1000D0000000000000000000000000000000000020
:1000E0000000000000000000000000000000000010
:1000F0000000000000000000000000000000000000
:10010000030B1503111E06B6C5B8B7BCC701011A0B
:10011000C6B6C2C5B8D8CFD9DABBBCDFC6B6C2C571
:10012000B8DAC6B6C2C5B8D8D0D90FFFC0007FFEB6
:100130000003FFF00FFFC00000001FFFE000FFFF03
:100140000007FFF81FFFE00000003FFFF001FFFF86
:10015000800FFFFC3FFFF00000007FFFF803FFFF70
:10016000C01FFFFE7FFFF8000000FFFFFC07FFFF3E
:10017000E03FFFFFFFFFFC000000FFFFFC07FFFF69
:10018000E03FFFFFFFFFFC000000FFFFFC07FFFF59
:10019000E03FFFFFFFFFFC000000FFFFFC07FFFF49
:1001A000E03FFFFFFFFFFC000000FFFFFC07FFFF39
:1001B000E03FFFFFFFFFFC000000FFFFFC07FFFF29
:1001C000E03FFFFFFFFFFC000000FFFFFC07FFFF19
:1001D000E03FFFFFFFFFFC000000FFFFFC07FFFF09
:1001E000E03FFFFFFFFFFC000000FE03FC07F01FE5
:1001F000E03F80FFFE03FC000000FC01FC07E00F75
:10020000E03F007FFC01FC000000F800FC07C00795
:10021000E03E003FF800FC000000F800FC07C007CB
:10022000E03E003FF800FC00000002300A10140B12
:100230001E08FF07C8101315161616171717030107
:1002400007010101040B01060301010B0902080269
:100250000B04070A0614000F00010203040205063E
:10026000070208090001020304020A060709080937
:1002700000010003040305060A0208090001000347
:1002800004030A060A0908090001020304020A0617
:100290000709080900010803040005060B02080C01
:1002A0000001080304000A060B09080C0001020300
:1002B00004020A06070908090001030304050506EC
:1002C000070208090001030304050A0607090809D3
:1002D0000D0E020F10021112130214150D0E020F53
:1002E00010021612131514150D0E0D0F100F11120A
:1002F000160214150D0E0D0F100F161216151415EB
:100300000D0E020F10021612131514150D0E140FF8
:10031000100D1112170214180D0E140F100D1612D5
:10032000171514180D0E020F1002161213151415BE
:100330000D0E0F0F10111112130214150D0E0F0FC9
:100340001011161213151415191A021B1C02021D86
:1003500002021E1F191A021B1C02021D021F1E1F71
:10036000191A191B1C1B021D02021E1F191A191B28
:100370001C1B021D021F1E1F191A021B1C02021D3C
:10038000021F1E1F191A1E1B1C19021D1B021E1FF5
:10039000191A1E1B1C19021D1B1F1E1F191A021BD6
:1003A0001C02021D021F1E1F191A1B1B1C02021D0C
:1003B00002021E1F191A1B1B1C02021D021F1E1FF8
:1003C000FFFFFFFFFFFF000102FFFF03040506FF21
:1003D000FF070809FFFFFF0A0B0CFFFFFFFFFFFFEE
:1003E0000C00000000000000000000000000000001
:1003F00000000000000000000000000000000000FD
:1004000003C00000F0003C000F00000000041001D9
:100410000400410010400001400180006018060007
:1004200000000000000000000000000012814800F1
:1004300004A0520001281480004A0520008000001A
:10044000400000200000100000080000040000022E
:1004500000000100020000010000008000004000D8
:100460000020000010000008000004001004000834
:1004700002000401000200800100400080200040D2
:1004800010002008003000001800000C00000600DA
:100490000003000001800000C00000600030000088
:1004A0001800000C0000060000030000018000009E
:1004B000C00000600000000000000000000000001C
:1004C000000000000000000000000000000000002C
:1004D000000000000000000000000000000000001C
:1004E0000000000060010400F018000C000600038A
:1004F00000018000C000600030000000000000002B
:100500001FF80007FE01FF807FE08187E1122400D1
:1005100088012240088041408103C000F03C0F0068
:1005200007E00001F800007E00001F8008061000B0
:1005300002018400008061000020184001C000001A
:10054000E000007000003800001C00000E000007F2
:1005500000000380001000000800000400000200FA
:1005600000010000008000004000002082190041CE
:100570000C802086401043200821900410C80208F7
:1005800064010432887800223C00221E00088F009B
:100590000887800223C00221E00088F01078000460
:1005A0003C00041E00010F000107800043C0004111
:1005B000E00010F0107838787C7C3C4438044440EB
:1005C000444438783878387C44444444447C381077
:1005D000387C087C1C7C383808200000101038005B
:1005E0000007E000F0008807FE3C001E000F000737
:1005F0008003C001E000F00078000000000000006F
:100600003FFC000FFF03FFC0FFF0C3CFF317F4015F
:10061000FC017F401FC04141C107E001F87E1F80FF
:100620001FF80007FE0001FF80007FE051E300009B
:100630001478C000051E300001478C0001C0000086
:10064000E000007000003800001C00000E000007F1
:100650000000038002A00001500000A80000540028
:10066000002A00001500000A8000054010C00008A4
:100670006000043000021800010C000086000043F6
:10068000000021808CFC00237E00233F0008DF80D7
:1006900008CFC00237E00233F0008DF810FC0004F0
:1006A0007E00043F00011F80010FC00047E00043AF
:1006B000F00011F8284444444040404410044840AD
:1006C0006C4444444444441044444444440444304A
:1006D0004404184020044444101000005410440006
:1006E000001FF801F801FC0FFF7E003F001F800F84
:1006F000C007E003F001F800FC000000000000006B
:10070000399C000E670399C0E670C3CE731DDC03ED
:100710007601DDC03760C1C3610DB0036CDB36C04C
:100720003FFC000FFF0003FFC000FFF003F9C8000B
:1007300000FE7200003F9C80000FE7201FFC000FAE
:10074000FE0007FF0003FF8001FFC000FFE0007F05
:10075000F0003FF812000009000004800002400091
:100760000120000090000048000024000202000167
:100770000100008080004040002020001010000890
:100780000800040457B60015DB0015ED800576C09F
:10079000057B60015DB0015ED800576C1DB6000698
:1007A000DB00076D8001B6C001DB60006DB0007634
:1007B000D8001B6C44444044404040441004504026
:1007C00054644444444440104444442828084C1091
:1007D00004082878400844442008007C38100800A9
:1007E000003FFC036C03760E67DB006D8036C01B98
:1007F000600DB006D8036C01B600000000000000D8
:100800003FFC000FFF03FFC0FFF0C3CFF31FFC0747
:10081000FF01FFC07FF0C1C7F10FF003FCFF3FC035
:100820006DB6001B6D8006DB6001B6D80754E4008E
:1008300001D5390000754E40001D53903FFE001F4A
:10084000FF000FFF8007FFC003FFE001FFF000FF84
:10085000F8007FFC01B00000D800006C00003600FA
:10086000001B00000D800006C00003604B31002516
:10087000988012CC4009662004B310025988012CDC
:10088000C400966223FE0009FF0008FF80027FC0BB
:10089000023FE0009FF0008FF80027FC13FE0005E8
:1008A000FF0004FF80017FC0013FE0005FF0004FC8
:1008B000F80017FC447840447878407C100460408D
:1008C0005454447844783810444454101010541050
:1008D000181848047810383C400400001010107CB0
:1008E000006DB603FC07FF0FFFFF007F803FC01FB6
:1008F000E00FF007F803FC01FE000000000000001C
:10090000066000039C00660039C00003C00FF805B4
:10091000FD00FF805FD08085D002400168241680F2
:10092000FFFF003FFFC00FFFF003FFFC11F180004D
:10093000047C6000011F18000047C6003FFE001F36
:10094000FF000FFF8007FFC003FFE001FFF000FF83
:10095000F8007FFC45A80022D400116A0008B50009
:10096000045A80022D400116A0008B5021C40010B3
:10097000E200087100043880021C40010E2000874C
:100980001000438820B400082400082D000209004C
:10099000020B400082400082D000209028B4000A60
:1009A00024000A2D00028900028B4000A24000A210
:1009B000D00028907C44404440404C4410045040B7
:1009C000444C4440545004104444542810206410B3
:1009D00020047C04442044042008007C38281000B3
:1009E00000FFFF009005FD019824002D0009000B79
:1009F00040024002D0009000B4000000000000005F
:100A00000DB000066600DB0066600006600410059D
:100A100005004100505000055005A002045A204036
:100A2000399C000E67000399C000E67040A31000D7
:100A30001028C400040A310001028C403FFE001F50
:100A4000FF000FFF8007FFC003FFE001FFF000FF82
:100A5000F8007FFC1FE4000FF20007F90003FC80A0
:100A600001FE4000FF20007F90003FC81FF0000FF4
:100A7000F80007FC0003FE0001FF0000FF80007F7C
:100A8000C0003FE0210200085A00084080021680A2
:100A90000210200085A00084080021684502001192
:100AA0005A001140800456800450200115A0011402
:100AB000080045684444444440404444104448408D
:100AC000444444404848441044286C441040441076
:100AD00040440844442044081010000054440000DE
:100AE00000399C01680505036C5A0040801680108F
:100AF0002005A004080168010200000000000000B9
:100B0000300C00030C0300C030C0C3C3C30808008E
:100B1000D80080800D808080800A500108A5108058
:100B20001008000402000100800040201110800025
:100B30000444200001110800004442003FFE001F51
:100B4000FF000FFF8007FFC003FFE001FFF000FF81
:100B5000F8007FFC3FF5001FFA800FFD4007FEA064
:100B600003FF5001FFA800FFD4007FEA37F2001B0B
:100B7000F9000DFC8006FE40037F2001BF9000DFDE
:100B8000C8006FE420840008A50008210002294065
:100B9000020840008A500082100022944484001110
:100BA000A500112100046940044840011A500112B7
:100BB00010004694447838787C403C443838447C73
:100BC000444438403444381038104444107C383899
:100BD0007C38083838203870082000001044100095
:100BE000FF1008029400D80C03A50021002940083A
:100BF000400A50021002940084000000000000002F
:100C00000A05050A0F0A0A051E0A0A0A050F0A64E0
:100C1000738287322B241C16110D0A08070605045F
:100C2000030201342E27221C181513100E0D0C0B75
:100C3000090705000000000000000000000000009F
:100C40004000800040002000400080004000000084
:100C50000000000000000000000000000000000094
:100C60008000400020004000800040002000000084
:100C70000000000000000000000000000000000074
:100C800040002000400080004000200040000000A4
:100C90000000000000000000000000000000000054
:100CA0002000400080004000200040008000000044
:100CB0000000000000000000000000000000000034
:100CC00040004000400040004000E0000000000004
:100CD0000000000000000000000000000000000014
:100CE000400040004000E0004000400000000000E4
:100CF00000000000000000000000000000000000F4
:100D000040004000E00040004000400000000000C3
:100D100000000000000000000000000000000000D3
:100D2000E0004000400040004000400000000000A3
:100D300000000000000000000000000000000000B3
:100D400040004000400040004000400040000000E3
:100D50000000000000000000000000000000000093
:100D600040004000C00060004000C0006000000083
:100D70000000000000000000000000000000000073
:100D800040004000400040004000400040000000A3
:100D90000000000000000000000000000000000053
:100DA0006000C00040006000C00040004000000043
:100DB0000000000000000000000000000000000033
:100DC0002000880034007800B8007C00B80054008F
:100DD0000000000000000000000000000000000013
:100DE0000440228810100820600C0820129024482B
:100DF00000000000000000000000000000000000F3
:100E000000000000000000008000800080008000E2
:100E100000000000000000000000000000000000D2
:100E2000890022007E00FF00FF007E002400910068
:100E300000000000000000000000000000000000B2
:100E4000040F15DCC6B6C2C5B8DAB4B7C9B4C1B6AA
:100E5000B8DAC7B4B5BFB8DC0A180ADBCFCEDAC33C
:100E6000C2BCC1C7C60A160ADBD0CEDAC3C2BCC137
:100E7000C7C60A140ADBD1CEDAC3C2BCC1C7C60AD0
:100E8000120ADBDEDAC0CCC6C7B8C5CC070B0FC66A
:100E9000C3B4B6B8DADABCC1C9B4B7B8C5C60C08B1
:100EA00004C3BFB4CC0C0804C3BFB4DD061812DC05
:100EB000D0DAC3BFB4CCB8C5C6DAD0DAB6C2BCC1CA
:100EC000C6061512DCCFDAC3BFB4CCB8C5DADACFA8
:100ED000DAB6C2BCC1DA061212D8CFDAC2C5DAD08D
:100EE000DAC3BFB4CCB8C5C6D9DADA080E0CBCC1B7
:100EF000C6B8C5C7DADAB6C2BCC1080E0CBCC1C6DA
:100F0000B8C5C7DAB6B6C2BCC1090709BAB4C0B819
:100F1000DAC2C9B8C510B9070E0EC3BFB4CCDAC364
:100F2000BFB4CCB8C5D8DAD9040F14CFDAC2C5DA49
:100F3000D0C3BFB4CCB8C5C6DAB5C8C7C7C2C10430
:100F40000F14C2C1BFCCDACFC3BFB4CCB8C5DAB5B9
:100F5000C8C7C7C2C1DA0C0C04C3C8C6BB050F168C
:100F6000DCDADCDABBBCDFC6B6C2C5B8DAC5B8C6E7
:100F7000B8C7DADCDADC0000000000000000000086
:100F80000000000000000000000000000000000061
:100F90000000000000000000000000000000000051
:100FA0000000000000000000000000000000000041
:100FB0000000000000000000000000000000000031
:100FC0000000000000000000000000000000000021
:100FD0000000000000000000000000000000000011
:100FE0000000000000000000000000000000000001
:100FF00000000000000000000000000000000000F1
:101000007D1B11241FBECFEFD8E0DEBFCDBF11E0A6
:10101000A0E0B1E0E0E5F7E302C005900D92A23058
:10102000B107D9F727E0A2E0B1E001C01D92A03CD2
:10103000B207E1F718E0C1E0D8E004C02197FE0153
:101040000E94A01BC030D107C9F70E9462170C9400
:10105000A61B0C9400009F92AF92BF92CF92DF929A
:10106000EF92FF920F931F93CF93DF93DC01EB017D
:101070007091790790916807990F990F990F2091B6
:101080006E07295F920F8FEF8C9320E050E040E0D5
:1010900099249A94CC24C394D12C872F891B692F2F
:1010A000671B5601042E02C0AA0CBB1C0A94E2F76F
:1010B0003DE5E32E37E0F32E30E0F7010191119189
:1010C0007F010A211B21012BE1F43F5F3530A9F795
:1010D0004F5F5F4F205F203B21F7DF91CF911F9142
:1010E0000F91FF90EF90DF90CF90BF90AF909F90C7
:1010F0000895E62FE20FE91558F74C9338839E2E9A
:10110000E7CFE92FE20F7E17A0F3E82FE21BF3CF22
:10111000482F50E0E0EEF3E0E49195E0949FD00199
:10112000959FB00D1124A35AB84F9296EC939297C5
:101130009A01220F331FF901E40FF51FEF5BFC4FFB
:1011400091969C9192839181882349F083E0240FAA
:10115000351FF901EF5BFC4F981B9183089584E0E4
:10116000F6CFAF92BF92CF92DF92FF920F931F9371
:10117000CF93DF9300D0CDB7DEB79091740795FD84
:10118000ABC025E0829F800111240558184FD8017B
:101190002C912111A1C0F82E81110FC090917907D7
:1011A000985F80918F078F5F8E3109F0A8C01092F1
:1011B0008F0724ED4CEF5FEF7CC091FD8DC08091D7
:1011C0009407811189C02091960730E0C9010196EA
:1011D000F816190609F080C08FEF8A838983B2E080
:1011E000BF1508F43EC0220F331FF901EC5AFD4F22
:1011F00064912B5A3D4FF90124913FE041E050E0CA
:10120000D80111969C91E92FF0E0E15CFD4FE4914B
:101210007FEF7E0F5A01072E02C0AA0CBB1C0A9456
:10122000E2F7EDE5CE2EE7E0DE2E80E0F601A191BB
:10123000B1916F01AA21BB21AB2B21F48F5F8530C7
:10124000A9F78FEF9F5F291708F452C0D8011196B4
:101250009C938F3F09F44FC07A8389838A818F3FA3
:1012600039F4BE016F5F7F4FCE0102960E942B08BA
:101270009A819F3F89F1990F80916807980F990F84
:10128000990F990F80916E07895F980F20916A07D7
:1012900030E04981440F550B241B350B2E5F3F4F27
:1012A000220F220F220F4091950780919307809380
:1012B0009407D80114961C9214974C934F2D50E02C
:1012C000FA01EE0FFF1FE40FF51FEF5BFC4F1296C4
:1012D0008C918283208391830F900F90DF91CF9127
:1012E0001F910F91FF90DF90CF90BF90AF90089526
:1012F000F8016183AECF315009F082CFAFCF809338
:101300008F0757CFE4E3F2E0E491ADE5B7E01F9635
:101310008C911F9724E0829FC0011124E80FF92FC0
:10132000F11DD496FC93EE93D397089590E2899F94
:10133000F0011124E35BFC4FCF0180962AED21934D
:10134000E817F907E1F708958091740787FF04C053
:1013500087E080939307089588E480939307E09152
:101360007807F0E0EE0FFF1FE556F84F208131813E
:1013700090E080E044E6FC01E65DFD4FE491E49FEF
:10138000F00111242E173F0738F4FC01E55DFD4FF5
:10139000E491E0939307089502968A30910559F7F6
:1013A000089580916B0781111BC0EAE2F1E0A3E68A
:1013B000B1E094919D93319622E0A336B207C9F72C
:1013C000EFEEF6E090EE919327E0EB30F207D9F7DD
:1013D0008F5F80936B0786E38093670780E00895B3
:1013E0008733B0F381E008950F931F93CF93DF937A
:1013F00080E89FEF90937307809372078FE790E0E8
:10140000909371078093700790E080E04FE750E081
:1014100020E83FEFC1E0D0E0A7E6B7E08E01082E5C
:1014200002C0000F111F0A94E2F7EDE5F7E06191A9
:10143000719160237123672B41F0281739070CF451
:101440009C01841795070CF4AC01AE17BF0779F720
:1014500001968B30910511F7440F551F83E090E002
:10146000841B950B9093710780937007220F331F95
:101470008AE190E0821B930B90937307809372072D
:10148000DF91CF911F910F9108956BE00E94801B17
:10149000692FE82FF0E0EE0FFF1FE35AF84F01909D
:1014A000F081E02D492F50E081E090E09C01062E74
:1014B00002C0220F331F0A94E2F72E233F23232B6F
:1014C00021F1662301F19A012150310902C0880FF0
:1014D000991F2A95E2F79C012E233F2381E0232BBD
:1014E00009F480E06A3091F04F5F5F4F21E030E017
:1014F00002C0220F331F4A95E2F72E233F23232BEE
:1015000029F08E5F089580E0EFCF8FEF089541308E
:1015100021F1423029F543E094E8282F30E053E0F0
:10152000359527955A95E1F7522F70E2679FF001A4
:101530001124E20FF31FE35BFC4F8770849F900D33
:101540001124892F2F5F213218F480838F5F319609
:10155000922F951B9417B0F3089543E09CE9DDCFDB
:1015600042E099EEDACFE1E4F3E010828FEF81837D
:1015700090E19383848390E29683878390E39187BD
:10158000828708950E94B30AADE5B7E05E961C928B
:101590005E9792961C9292975F961C925F978EE050
:1015A00090968C9390978FE091968C9391979396C9
:1015B0001C92939797961C92979795961C92959745
:1015C0008CE096968C939697E4E5F2E0E4919496FD
:1015D000EC93949798961C9298979C961C929C9743
:1015E00094E09A969C939A979B968C939B97E6E5AA
:1015F000F2E0E4919996EC9399979D961C929D97B1
:10160000D1961C92D1979E961C929E9798E09F9699
:101610009C939F97D0968C9308950E94A409ADE562
:10162000B7E08FEF97E011969C938E9313969C935F
:101630008E93129715969C938E93149717969C935E
:101640008E93169719969C938E931897EEE3F2E07B
:10165000E491F0E032961C96FC93EE931B975B9618
:10166000EC915B97F0E0E35AF84FE4ADF0E0EB5C0F
:10167000FD4FE4911D96EC931D9782E050968C935C
:10168000509751961C9251971E961C921E971A962F
:101690001C921A9752961C92529757968D919C9134
:1016A00058978170992758969C938E9357971092CC
:1016B000A4071092A3071092A10784E0D8968C93F8
:1016C000D897D6968C91D697D7968C93D79787E351
:1016D0001F968C931F9787E492E0D4969C938E93E9
:1016E000D3971092A5071092A7071092A6070E9401
:1016F000C20A0C94F409EDE5F7E0138E14AE83E012
:1017000082AF17AE16AE15AE83AF10929E07109241
:101710009D070C940D0BFC01A491AE5F31962491B2
:1017200031964491611101C0642F0396F0E22F9F1E
:1017300090011124A20FB32FB11DA35BBC4F262F24
:10174000215028F0FC0134913D930196F9CF81E0BE
:10175000641380E008959C01909140039F5F9093F3
:10176000400380E0953079F4C90160914D076F5FC7
:1017700060934D07109240030E948B0B882319F051
:1017800010924D0708950895CF93DF93952F30E27F
:10179000639FF0011124E80FF11DE20FF11DE35BDF
:1017A000FC4F30E0CAE0D0E0321751F0842FBE0188
:1017B0000E948C1B82538293462F972F3F5FF4CF5A
:1017C000DF91CF910895CF93E0917807F0E0E35A4D
:1017D000F84FC2AD4C2F50E021E06EE182E00E9454
:1017E000C40BE1E1F7E081E09AED2CE33DE38C17D7
:1017F00040F4208331838F5F32968430C1F7CF91DC
:10180000089590839183F7CF40919F0750E022E0A5
:101810006EE18AE10C94C40B0F931F93CF93DF9377
:10182000E3E0F1E0D49100E011E0C0E0F801849140
:101830008E5F40919B0750919C07CC2351F04091C3
:101840009D0750919E07C13021F440912E03509185
:101850002F0324E06D2F0E94C40BCF5F0F5F1F4F3B
:10186000C33021F7DF91CF911F910F910895CF934E
:10187000C0914D07EC2FF0E0E35BFC4F9AED8150F7
:1018800020F090839183B096FACF60E08DE091E0F4
:101890000E948B0B60E084E091E00E948B0B0E9421
:1018A000040C0E940C0CCE5FC03229F0C0934D078F
:1018B00080E0CF91089510924D0781E0FACF4091DA
:1018C00074075091750747FD23C0E0917807F0E059
:1018D000EE0FFF1FE556F84F20813181B901AAE0D4
:1018E0008A9F600D711D11247183608320912E03E6
:1018F00030912F032617370748F470932F03609316
:101900002E03506250937507409374070C940C0C8F
:10191000089580914E0780934F072C9A2C9898E059
:101920002A9880914E07880F80934E0723B125FB9C
:10193000222720F9820F80934E072A9A915081F72F
:1019400080914E0790914F07892780935007089503
:101950009091740797FD14C0811105C067BD611196
:1019600008C0569808956093B300611104C023988D
:101970000895569A0895239A08951092B300F7CFC8
:101980008111FBCF17BCEDCF41E453E060E47CE074
:1019900083E692E00E940F1544E453E060E47CE0AB
:1019A00085E992E00E940F1547E453E060E47CE093
:1019B00087EC92E00E940F154AE453E060E47CE07B
:1019C00089EF92E00C940F150E940C0C0E94B30A50
:1019D0000E94C40CE3E6F1E0119282E0E336F807DE
:1019E000D9F70895CF93DF93EC01FC013197E830EC
:1019F000F105F8F4E250F34F0C94A01B060D450DD1
:101A0000280D340D480D560D190D5B0D0E94B30ABB
:101A100010922D0310922C0310923A031092390366
:101A200010922B030E947B0B10929F0781E0809302
:101A3000A00710923B031092400310924D071092A2
:101A40005107D0935307C0935207DF91CF91089568
:101A50000E947B0B8091740790917507806890932A
:101A6000750780937407E5CF80917407909175078F
:101A70008F77909375078093740760E080E00E94F1
:101A8000A80C60E081E00E94A80C0E94E40CD1CF79
:101A900080917407909175078F7790937507809365
:101AA00074070E94E40C0E947B0BC3CF0E94E40CDD
:101AB0000E940D0BBECF60E080E00E94A80C60E0A9
:101AC00081E00E94A80C0E94B30AB3CF2F923F92EC
:101AD0004F925F926F927F928F929F92AF92BF923E
:101AE000CF92DF92EF92FF920F931F93CF93DF93EA
:101AF000CDB7DEB7EA970FB6F894DEBF0FBECDBF05
:101B00002091A3073091A4072F5F3F4F3093A40784
:101B10002093A30793E6A92E92E0B92EB50144E0E5
:101B20005FEF90E080E0FB01E80FF91F5283019620
:101B300080339105C1F741506E5C7F4F4111F1CF69
:101B4000809174079091750790FD1EC02138310572
:101B5000D9F487FF09C02CE330E03093910720933C
:101B6000900727E0209393079160909375078093E7
:101B70007407E5E1FFE0E491E05FE09379078DE031
:101B800085BD8CE08093B1008091740790917507BA
:101B900090FF65C085FD26C286FD4AC28091A707D9
:101BA00081111BC0E091A607F0E0ED5DF34FE491D9
:101BB000E093A707E091A507F0E0E15FF34F6491A0
:101BC0000E94A80C8091A5078F5F843009F407C29A
:101BD0008093A5078AE08093A8078091A7078823B0
:101BE00019F081508093A7078091A807882339F0C6
:101BF00081508093A80760E0882309F416C2809181
:101C000096078F5F833009F41CC2809396078091FA
:101C10009607811124C0809174079091750783FD08
:101C200020C22091900730919107215031093093C3
:101C3000910720939007232B91F488609093750768
:101C4000809374078CE08093B10080918F0780FFB0
:101C500003C288ED809377078EEF8093760780919B
:101C600074079091750781FFA6C260916F0761505C
:101C700060936F079C0128703327611193C28D7F99
:101C80009093750780937407232B19F481E00E94C9
:101C9000A80C8091740785FDF8C0E0906A07EE2DCE
:101CA0005AE15E1508F4EAE1E850FF0B75E0EE0F2B
:101CB000FF1F7A95E1F7E35BFC4F9F01205C3E4FED
:101CC0009AED91932E173F07E1F781FD12C018E3BB
:101CD000115009F4DAC0809167078F5F873308F0ED
:101CE00073C280936707809167070E94450A8F3F00
:101CF00079F340906B07D0906E07009168071091C0
:101D00006907602EF090670750906D0752E0252E0E
:101D10002D0C81E0800F8CAB6EEF362E3D0C9FEFCB
:101D2000900F9BAB8F2D90E0DC011196BEABADAB5D
:101D3000812C912CB1E0BE0DBAAF892D8695F8E7C4
:101D40008F9FF0011124F8AFEFAB292D220F29AF9F
:101D5000C82C712C841408F07DC083948C2D0E94B3
:101D6000450A8F3F09F476C0262DED2DFC1448F46A
:101D700015140CF02EC22BA9E6E037FC02C0262D6C
:101D8000E32D609174077091750760FF31C2FC14F8
:101D900008F428C2FC1001C08D7F3AAD0E2E000C55
:101DA000FF0BF595E795AE2FAA0FAE0FEFA9F8AD93
:101DB000EA0FF11DDF01FCE08F02A00DB11D11241F
:101DC000FD01E85AFD4F4491FD01E75AFD4F949102
:101DD000FD01E65AFD4F5491E72DEE0F2E0F832F94
:101DE000A9AD8A1BE0E28E9FD001112430E0A20F42
:101DF000B31FA35BBC4F4C9311969C931197129603
:101E00005C9398EE980F923008F0F4C1879588277C
:101E10008795F901E054FC4FA491AF3F51F0A80F12
:101E2000B0E0AD59BE4F98E01C9291505096911180
:101E3000FBCFF901EF53FC4FE491EF3F59F08E0FC8
:101E4000E82FF0E0ED59FE4F88E010828150709647
:101E50008111FBCF7394FBE07F12B9C1939425E00D
:101E600092126BCF37E3431210C0809074079090AA
:101E7000750781FC0AC0F39446E34F1508F4B4C318
:101E80008F2D0E94450A8F3FB1F320917407309146
:101E9000750730FF30C225FD1BC28BE10E949609F9
:101EA00020917407309175078091790727FFDCC175
:101EB0009091A1079111C8C1E5E1FFE02491E09163
:101EC0003D0331E0EA3A08F430E096E5399FE00D51
:101ED0001124E05FE20FE093A2078E1708F0B2C171
:101EE000E81B8E2FE0913D03EF718E0F8093A107C9
:101EF00080E00E94B1089CE3E09179072E2F2770C3
:101F0000822F880F820F890FF0E093E0F595E79517
:101F10009A95E1F7E355F94F808391E0980F91830B
:101F20008E5F8283809196078F5F0E94B1080E9426
:101F3000C40C1DE5C12E17E0D12E860181E4E82EE8
:101F400083E0F82E912C82E3F501DE0111960190D9
:101F50000D928A95E1F7D5011196EC911197F0E079
:101F6000E054FC4FE491EF3F09F4D2C18C9196E428
:101F7000980F973108F0CCC12FE3280FD7011296A4
:101F80003C91D80191964C91DE0111968295807F0B
:101F90008E0F50E060EF680F8F502031D0F4129612
:101FA0009C911297E62FE50FF0E0ED59FE4F7081FE
:101FB000892E872209F0A3C152969C915297E82F4F
:101FC000E50FF0E0ED59FE4F7081892E872209F070
:101FD00075C21196505F2F5F5038F9F699C1109273
:101FE000A507F8CD8FE08093B10010913D031F5AF3
:101FF00060913B03169F102D112460917907809109
:102000006C0768271627612F6F71665A80E00E945F
:10201000A80C69E4169F602D112470E075956795F2
:1020200060933B036F71665A81E00E94A80CE7CD74
:102030008CE08093B10060E080E00E94A80C60E03A
:10204000F3CF1092960780919407882309F4E3CD8B
:10205000815080939407DBCD80E18093770782E005
:10206000FCCD85E00E9496098091740784FF60C0D2
:1020700060919007709191076F5F7F4F7093910708
:10208000609390076431710510F5E0917707F0E0F7
:10209000CF01880F991F8E7003E0F595E7950A959B
:1020A000E1F7E351FC4F9CE2980F90839DE2980F7B
:1020B00091839EE2980F9283815D83836370660FA4
:1020C000660F660F665581E00E94A80CC8CD60328D
:1020D0007105D8F46370660F660F660F665581E070
:1020E0000E94A80C4091920722E04A3008F023E0B9
:1020F0003AE0439FA00111248091770765E086951F
:10210000869586950E94C40BAACD0E948209809173
:10211000740790917507877E909375078093740775
:1021200060E081E00E94A80C8CE08093B10097CD24
:102130006091770780917607680F6093770770E06A
:102140007595679563708AE0689F602D11246853C8
:1021500081E00E94A80CE091770780EF8E0F893C08
:1021600040F00E9482098091740790917507877FE3
:10217000D3CF8E2F877043E0849FC00111249595A3
:102180008795F0E0A3E0F595E795AA95E1F7E3518F
:10219000FC4F90E2980F908391E2980F91838E5DAF
:1021A00082835DCD232B09F074CD8AE0689F602D7A
:1021B00011246C596BCD80916C0781116ACD88E038
:1021C00090E00E94F20C65CD109267078CCDC82C70
:1021D000C1CD36E02CA9E0E032150CF4D2CD262D8D
:1021E000E22DCFCD4DA95EA9C416150609F48E7F48
:1021F0003E2DD4CD8B3109F02DCE65FD2BCE606206
:102200007061709375076093740710927A0722CEFD
:102210000F5F1F4F109369070093680736CED7FEF4
:1022200034CE26E020936E0720917007309171071D
:102230002017310724F022E020936D07F8C10150E8
:102240001109E8CF8E1B4ECE91509093A10790912B
:10225000A207891720F48F5F8093790749CE9817DA
:1022600008F046CE8150F8CF90914E07482F50E0AD
:10227000E5E1FFE0E49191FD19C0F0E07096E4170C
:10228000F507A4F481508093790797FD1BC031FDB9
:1022900019C080E00E94B108809174079091750781
:1022A0009260909375078093740725CEE6E1FFE076
:1022B000E491F0E03F96E417F5073CF390FDE5CF9D
:1022C0008F5FE1CF3D7F309375072093740713CE66
:1022D00080913D0394E582FF9CE680917A078F5FB1
:1022E00080937A07803409F007CE20643093750715
:1022F0002093740701CE8BE10E94960913CE90952E
:1023000097239083341709F457CE892D0E948808AB
:102310009394B2E3AB0EB11CE3E0EE0EF11C0B5F45
:102320001F4FF4E09F120FCE8FE3C89E402C112464
:10233000A1E4EA2EA3E0FA2E712C612C55245A94C4
:10234000B0E82B2E312CD6015E968C915E978823B7
:1023500009F4C0C092969C919297911134C161107A
:10236000E0C090914103913208F4A4C0890F80939A
:1023700041039091740793FF2DC094FD2BC08932C7
:1023800048F52091420380917707281718F190E0D3
:102390000F962817190609F0ECF480918F076FE06B
:1023A0000E94801BE92FF0E0E050F44F849180936D
:1023B00092070E945F0C809174079091750780616D
:1023C000909375078093740710927B0710924103D6
:1023D0005092420300916A0790914103292F30E007
:1023E000402F440F440F440F50E0BA01685F7F4F05
:1023F000621773070CF43EC0405451092417350787
:10240000CCF180914203882E912C63E0359527957D
:102410006A95E1F7B401E3E075956795EA95E1F710
:10242000A901F5E0440F551FFA95E1F7435B5C4FB6
:10243000460F571FFA0160816230E1F06A3DD1F02A
:102440008770A10102C0559547958A95E2F797706C
:10245000E92FF0E0FE2FEE27E60FF11DE050FC4FD4
:10246000CF019C5F5491542309F0E9C0F395E8171C
:10247000F907C1F76091420370E0DB0111966150EA
:1024800071098091410390E0AC01435051090396DA
:10249000E1E4F3E0248130E0A217B307B4F026179B
:1024A00037079CF0238130E02417350774F082173A
:1024B00093075CF080E00E9488080CC090959723F9
:1024C0009083341709F485CD20CF339623E0EA3486
:1024D000F20701F7FFEF6F1A7F0A25E0C20ED11C49
:1024E00033E0E30EF11C44E06416710409F02BCFD5
:1024F000EA960FB6F894DEBF0FBECDBFDF91CF9145
:102500001F910F91FF90EF90DF90CF90BF90AF9011
:102510009F908F907F906F905F904F903F902F9003
:1025200008952091960730E02F5F3F4F62167306A3
:1025300089F6D7019C91943E08F043C0890F8C9393
:1025400012969C9112979F5F12969C931297F60198
:1025500040A1242F30E02C5F3F4F9217130611F457
:1025600012964C93209174073091750725FDB2CFD8
:10257000845D893008F0AECF8091790790E0D70173
:1025800011964C91119750E0BC016F5F7F4F64171B
:1025900075070CF09FCF0D96841795070CF49ACF12
:1025A0002062309375072093740710927A07F60122
:1025B000168E842D8C0D880F880F8C9311965C924B
:1025C00089CF862D78CF8FEF890F92968C93929733
:1025D000811180CF5E961C92B4E16B9E202D112458
:1025E000F7012083518276CF80FE09C0E89480F8FD
:1025F0009092750780927407E394E0926A07D50C75
:10260000D0926E07809174079091750758E0D512AB
:1026100006CE10926E072091720730917307021751
:1026200013070CF4F5CD2EEF20936D0724E02093D3
:102630006E078160909375078093740726CC10E035
:10264000021B130B0F5F1F4FA0906807B090690724
:1026500083E0AA0CBB1C8A95E1F780916E07A80E57
:10266000B11C87FDBA948A189B0894E095948794CE
:102670009A95E1F7E0EEF3E0849180937F07F8010B
:10268000EE7FF170E35AF84F81E090E0082C02C031
:10269000880F991F0A94E2F78095909520813181E7
:1026A00082239323918380830E94F409FDE0F093B9
:1026B000430380914103887F80934103A394A394B3
:1026C000829420EF82228A0C80924203C801959561
:1026D0008795959587958F7799278F5F0E945F0CD7
:1026E0000E94A40980916C07882371F08150809327
:1026F0006C07893048F4F5E0F09395072FE037E256
:1027000030939107209390078091A607E82FF0E07F
:10271000ED5EF34FE49190916C079E1728F48031A1
:1027200018F48F5F8093A6078091740790917507C6
:10273000826090937507809374073CE030936F0735
:1027400099CE1F920F920FB60F9211242F933F93A1
:102750008F939F93AF93BF938091590790915A079E
:10276000A0915B07B0915C073091580723E0230FDD
:102770002D3758F50196A11DB11D20935807809360
:10278000590790935A07A0935B07B0935C07809119
:10279000540790915507A0915607B091570701969D
:1027A000A11DB11D8093540790935507A093560720
:1027B000B0935707BF91AF919F918F913F912F9108
:1027C0000F900FBE0F901F90189526E8230F0296CA
:1027D000A11DB11DD2CF1F920F920FB60F921124DF
:1027E0002F933F934F935F936F937F938F939F9319
:1027F000AF93BF93CF93DF93EF93FF93C091840088
:10280000D09185008091370390913803C09709F0EB
:1028100043C08091390390913A03282F2770209369
:10282000360333E0969587953A95E1F78F719927AE
:102830008093350345E0880F991F4A95E1F7835B44
:102840009C4F9093340380933303822F220F990B74
:10285000982F882780509C4F9093320380933103A8
:1028600080913703909138038F52809362011092C8
:102870003003FF91EF91DF91CF91BF91AF919F9185
:102880008F917F916F915F914F913F912F910F9019
:102890000FBE0F901F9018952091000130910101FB
:1028A0006091310370913203AE01809133039091B6
:1028B00034030E9449158091000190910101C817CD
:1028C000D90720F4D0930101C09300018091370310
:1028D000909138038F5280936201809162018091C0
:1028E0003703909138038832914059F480916F00FA
:1028F0008B7F80936F0080913D038F5F80933D03BA
:10290000B8CF809136038F5F809336038830F1F41F
:102910001092360380E094E0909332038093310369
:10292000809135038F5F80933503803249F4109294
:1029300035038DE493E0909334038093330399CF70
:1029400080913303909134038096F5CF80913103C9
:10295000909132039395909332038093310389CF02
:102960001F920F920FB60F9211242F938F939F9364
:1029700080913703909138030196909338038093A8
:1029800037038833914091F484EB93E0909389006E
:102990008093880010923803109237039F918F9193
:1029A0002F910F900FBE0F901F90189580913703B5
:1029B00090913803089739F48AE490E09093890065
:1029C00080938800EBCF8091370390913803C097B4
:1029D00029F780916F00846080936F00DFCFF999B1
:1029E000FECF41BD50BDFA9AF99A0895552740E0AF
:1029F00041BD50912E03F3DF50912F034395EFDF3C
:102A0000089540E041BD41BDF89A50B550932E0362
:102A1000439541BDF89A50B550932F030895DF9325
:102A2000CF93FA0141E05527EC012191299321919F
:102A300030912C03832F8770281B322F36953695C3
:102A40003695399327703191FB0160E21F920F9206
:102A5000369FE00DF11D0F901F9030E18591888326
:102A60008591888B58A3251769F0822F88949881C7
:102A70009795988398899795988B98A1979598A3FF
:102A80008A95A9F7C40FD51F3A9541F7CF91DF91E9
:102A900008952395421700F02395421700F02395DF
:102AA000421700F02395421700F0549ADC0198E099
:102AB0008D91FB01E80F449180914001482B00006B
:102AC0004093C6008D91FB01DF939093C100549811
:102AD000CF93D3E0E80F249180914101282B2093DC
:102AE000C6001F93CBE28D91FB01E80F24918091EA
:102AF0004201282B0F932093C6008D91FB01E80F14
:102B0000249180914301282B409162012093C600BB
:102B10008D91FB01E80F249180914401282B000046
:102B200000002093C6008D91FB01E80F2491809155
:102B30004501282B000000002093C600042F1881B7
:102B4000011B8D91FB01E80F249180914601282BF8
:102B50002093C60001BDE2978D91FB01E80F2491FF
:102B600080914701282B18812093C6008D91FB018D
:102B7000E80F249180914801282B042F011B2093FA
:102B8000C6008D91FB01E80F249180914901282B0B
:102B900000BD33272093C600E297042F8D91FB01DF
:102BA000E80F249180914A01282B2093C6001881B8
:102BB0008D91FB01E80F249180914B01282B011B83
:102BC000E2972093C6000BBD042F8D91FB01E80F07
:102BD000249180914C01282B30934C012093C60006
:102BE00030934B018D91FB01E80F249180914D01B1
:102BF000282B30934D012093C60030934A018D91CC
:102C0000FB01E80F249180914E01282B30934E0157
:102C10002093C600309349018D91FB01E80F249168
:102C200080914F01282B30934F012093C6003093A1
:102C300048018D91FB01E80F249180915001282BD0
:102C4000309350012093C600309347018D91FB01D2
:102C5000E80F249180915101282B3093510120934A
:102C6000C600309346018D91FB01E80F24918091BD
:102C70005201282B309352012093C6003093450116
:102C80008D91FB01E80F249180915301282B309303
:102C900053012093C600309344018D91FB01E80F4E
:102CA000249180915401282B309354012093C60025
:102CB000309343018D91FB01E80F249180915501E0
:102CC000282B309355012093C600309342018D91FB
:102CD000FB01E80F249180915601282B3093560177
:102CE0002093C600309341018D91FB01E80F2491A0
:102CF00080915701282B309357012093C6001881EB
:102D00008D91FB01E80F249180915801282B30937D
:102D100058012093C600011BE2970ABD042F8D9134
:102D2000FB01E80F249180915901282B2093C600C4
:102D3000309359018D91FB01E80F249180915A0144
:102D4000282B30935A012093C60018818D91FB01E6
:102D5000E80F249180915B01282B30935B01209335
:102D6000C600011B0EBB8D91FB01E80F24918091E1
:102D70005C01282B30935C012093C60011E000E435
:102D80008D91FB01E80F249180915D01282B3093F8
:102D90005D012093C60090912B03309340018D91EB
:102DA000FB01E80F249180915E01282B2093C6003F
:102DB00030935E0155278D91FB01E80F249180919E
:102DC0005F01282B29232093C60030935F011092C6
:102DD000C100CE01242F205C203120F5E801220F14
:102DE000220F220F220F3327B1E0A3E6A20FB31F59
:102DF0003D913E833D913F833D9138873D913B8797
:102E00003D913C873D913D873D913E873D91398B7A
:102E10003D913A8B3D913B8B3D913F8B3D91388F5E
:102E20003D91398FEC012EB3203188F43981D801DE
:102E3000A30FC20FD51F3A812C91322B3D933A89B3
:102E40002C91322B3D933AA12C91322B3D93C2967B
:102E50002AB5203170F4EC013981D801A30FC20FDB
:102E6000D51F3A812C91322B3D933A892C91322BEC
:102E70003D93C2962BB5203170F4EC013981D80115
:102E8000A30FC20FD51F3A812C91322B3D933A8963
:102E90002C91322B3D93C29620B5203170F4EC0179
:102EA0003981D801A30FC20FD51F3A812C91322B43
:102EB0003D933A892C91322B3D930F911F91CF91E5
:102EC000DF910895789484B5826084BD84B5816073
:102ED00084BD85B5826085BD85B5816085BD8091E5
:102EE0006E00816080936E0010928100809181005D
:102EF0008260809381008091810081608093810055
:102F0000809180008160809380008091B100846016
:102F10008093B1008091B00081608093B000809177
:102F20007A00846080937A0080917A008260809336
:102F30007A0080917A00816080937A0080917A0093
:102F4000806880937A001092C1000E9401158FEF73
:102F50009FEF909301018093000193E69093B0005E
:102F60008BE08093B10094BD85BD84E285B984E196
:102F700084B982E08093C00088E08093C10080EC37
:102F80008093C2001092C5001092C400219AF89458
:102F900083EC8093800089E08093810084EB93E050
:102FA000909389008093880084ED90E090938B004B
:102FB00080938A0081E080936F00109285001092C8
:102FC0008400789480916E008E7F80936E000E94C2
:102FD000890C81E090E00E94F20C25E1C22E2FE0E6
:102FE000D22E31E0A32E34E0B32EC1E0D2E08CE04B
:102FF000982E0DE614E090E0E92E90E0F92E90E096
:1030000080E030913D0320913C03AC014F5F5F4F66
:10301000321701F190933F0380933E0380913D036B
:1030200080933C030E94890CE0915207F091530772
:103030003197E930F10508F063C0EF5DF74E0C946D
:10304000A01B2C1868189419C519481A731AAF1ABE
:10305000281B411BCA01D5CF80915107811111C096
:103060000E94E40C0E940D0B80914E07807359F56D
:1030700010922F0310922E030E94F614C093510752
:103080003FC0813081F480E20E94370C882309F42C
:1030900037C060E08DE59FE00E948B0BD093510715
:1030A00010924D072DC0823059F590914E078091B6
:1030B0004D078F5F80934D07873910F190739033E0
:1030C000F9F410929F0782E090E00E94F20C18C081
:1030D000E0915107EA30A0F4F0E0EF58F74E0C947D
:1030E000A01B7B18AE18BE18C918F218FB180419DB
:1030F0000D1916192B1980E20E94370C8111BECFD1
:1031000020914E07809174079091750725FDEDC2BF
:1031100092FD1DC080919F07833628F48F5F8093B6
:103120009F070E94040C80915207909153070297C9
:10313000039720F485E090E00E94F20C80917407E0
:103140009091750794609093750780937407E114CC
:10315000F10409F454CF0E94000047CF8091A007EA
:1031600080FF09C085EA9EE00E94AB0B882341F2F4
:10317000D0935107C5CF8EE99EE0F6CF8CE89EE054
:103180000E94AB0B882309F4BBCF83E080935107E7
:10319000B7CF80914D078F5F80934D078C3309F037
:1031A000AFCF60E080E49EE00E948B0B81EE8093C5
:1031B000970582EE8093980583EE8093D70584EE81
:1031C0008093D80585EE8093170686EE80931806C7
:1031D00087EE8093570688EE8093580610924D072D
:1031E00084E0D4CF8FE79EE00E94AB0B882309F4E4
:1031F00087CF85E0CBCF82E79EE00E94AB0B882390
:1032000009F47ECF86E0C2CF85E69EE00E94AB0B3C
:10321000882309F475CF87E0B9CF88E59EE00E9446
:10322000AB0B882309F46CCF88E0B0CF80914D07B9
:103230008F5F80934D07843609F062CF8091A0079D
:1032400080FF6FC089E08093510788EF80934D071E
:103250001092400355CF80914003811112C080919C
:103260004D07813940F0815080934D0740E068E080
:103270000E94870A45CFC093400388E880934D079A
:103280003FCF8130B9F480904D07839480924D07F1
:10329000EEE5F4E08AED81930E171F07E1F741E0B8
:1032A00068E0882D0E94870A28EF821229CFD093E8
:1032B0004003F6CE823069F480914D078F5F809392
:1032C0004D078B3409F01CCF83E08093400388EFD7
:1032D000D5CF833009F014CF80914D078150809372
:1032E0004D07893848F0EEE5F4E09AED91930E171A
:1032F0001F07E1F742E0BBCF883849F460E08EE970
:103300009EE00E948B0B40E068E080E9B1CF8436FC
:1033100031F48AED80935F0480936004F1CE8111D3
:10332000EFCE83E090E0D1CE809151078130B1F0B3
:1033300050F08230D1F080915107882309F4E0CE1B
:103340000E94660DDDCE80E20E94370C882309F4CE
:10335000D7CEC093510710926707EDCF0E94D109D5
:10336000882371F3D0935107E6CF8091740786FDCF
:1033700007C08091A3079091A407843C994001F76E
:1033800084E090E00E94F20CD6CFE0915107E73044
:1033900008F0B6CEF0E0E153F64E0C94A01BD6191F
:1033A000E919EC19EF19F7190A1A231A80E20E9499
:1033B000370C882309F4A4CE8091A00780FF06C0B3
:1033C0008AEF9EE060E00E948B0B58CE8BEE9EE071
:1033D000F9CF86ED9EE0C8CE81EC9EE0D1CE8CEA9E
:1033E0009EE00E94AB0B882309F48ACEF9CE80912F
:1033F0004D078F5F80934D07843609F081CE809111
:10340000A0078F5F8093A00780FD5DCE85E080934D
:10341000510746CE80914D078F5F80934D078938C5
:1034200050F4EDEEF3E09AED9193AE16BF06E1F79E
:1034300040E065E01DCF883909F062CE86E08093D8
:10344000510780E31BCF80914D078F5F80934D071D
:103450008C3660F4982F93709093430380934103CC
:103460008BE8809342030E94C40C4ACE8C3631F420
:10347000909243038093410388E8F3CF8A3709F49D
:1034800036C18E3D81F782E090E00E94F20CEBCFD6
:103490008091510781111AC080E20E94370C882365
:1034A00039F0C093510760E086E59FE00E948B0BE6
:1034B00080914E0784FD24CE80919F078150809398
:1034C0009F070E94040C86E090E0FFCD813081F7D9
:1034D00080919F0760E0813019F48FE39FE0E6CF91
:1034E00088E29FE0E3CF80915107811118C080E20C
:1034F0000E94370C882309F403CEC093510760E083
:1035000087E19FE00E948B0B4091780750E04F5F6E
:103510005F4F21E06EE085E10E94C40BF1CD813068
:1035200009F0EECD80904D07839480924D0781FE87
:1035300013C080917807E5E08111E7E1F0E0E35501
:10354000FC4F8AED8083818382838383F8EC8F1222
:10355000D7CD87E090E0B9CD0E940C0CF7CF209139
:103560005107211116C08DE10E94370C882309F400
:10357000C7CDC0935107109267070E94E30B80915B
:103580005107882309F4BCCD8091740786FDB8CD1E
:10359000D7CE213039F40E94D1098823A9F3D093E2
:1035A0005107EDCF80917407909175072230D1F5C6
:1035B00086FFEACF60E080E00E94A80C60E081E036
:1035C0000E94A80C9092B1008BE10E9496090E9483
:1035D000C20A8091740790917507E091780794FF73
:1035E00006C0AE2FB0E0A35AB84FDA96CC93F0E005
:1035F000E35AF84F82AD815082AF0E94E30BE09115
:103600007807F0E0E35AF84F82AD882331F010924A
:103610004D0783E080935107B2CF89E090E00E948C
:10362000F20CADCF233009F0AFCF20914D072F5FC3
:1036300020934D07243609F0A7CF8F799093750713
:1036400080937407F6018491805F80937907A7CFF8
:1036500080914D078F5F80934D07823309F050CDE5
:10366000E0917807F0E0E35AF84F84AD8F5F89303E
:1036700030F484AF0E94E40C0E940D0B6ACF14AEAC
:10368000F9CF8091510781111BC089E09FE00E9412
:10369000AB0B882309F434CDC09351078091740794
:1036A0009091750795FF2CCD0E94F61480917407B8
:1036B000909175079F7D909375078093740720CD37
:1036C000813009F01DCD80914D078F5F80934D07AC
:1036D000843609F015CD80919F07882319F085E085
:1036E00090E0F3CC84E090E0F0CC9B7F2CCD8AED91
:1036F00080931E050E94B30AB6CE1092A0070895CB
:10370000991B79E004C0991F961708F0961B881F33
:103710007A95C9F780950895AA1BBB1B51E107C094
:10372000AA1FBB1FA617B70710F0A61BB70B881F51
:10373000991F5A95A9F780959095BC01CD010895E0
:10374000EE0FFF1F0590F491E02D0994F894FFCF40
:02375000FFFF79
:107E0000112484B714BE81FFF0D085E080938100F7
:107E100082E08093C00088E18093C10086E0809377
:107E2000C20080E18093C4008EE0C9D0259A86E02C
:107E300020E33CEF91E0309385002093840096BBD3
:107E4000B09BFECF1D9AA8958150A9F7CC24DD24C4
:107E500088248394B5E0AB2EA1E19A2EF3E0BF2EE7
:107E6000A2D0813461F49FD0082FAFD0023811F036
:107E7000013811F484E001C083E08DD089C08234E0
:107E800011F484E103C0853419F485E0A6D080C0E4
:107E9000853579F488D0E82EFF2485D0082F10E0AE
:107EA000102F00270E291F29000F111F8ED06801E7
:107EB0006FC0863521F484E090D080E0DECF843638
:107EC00009F040C070D06FD0082F6DD080E0C81688
:107ED00080E7D80618F4F601B7BEE895C0E0D1E017
:107EE00062D089930C17E1F7F0E0CF16F0E7DF06D8
:107EF00018F0F601B7BEE89568D007B600FCFDCFD4
:107F0000A601A0E0B1E02C9130E011968C91119780
:107F100090E0982F8827822B932B1296FA010C0160
:107F200087BEE89511244E5F5F4FF1E0A038BF0790
:107F300051F7F601A7BEE89507B600FCFDCF97BE46
:107F4000E89526C08437B1F42ED02DD0F82E2BD052
:107F50003CD0F601EF2C8F010F5F1F4F84911BD097
:107F6000EA94F801C1F70894C11CD11CFA94CF0C13
:107F7000D11C0EC0853739F428D08EE10CD085E9AC
:107F80000AD08FE07ACF813511F488E018D01DD067
:107F900080E101D065CF982F8091C00085FFFCCF94
:107FA0009093C60008958091C00087FFFCCF809118
:107FB000C00084FD01C0A8958091C6000895E0E648
:107FC000F0E098E1908380830895EDDF803219F02E
:107FD00088E0F5DFFFCF84E1DECF1F93182FE3DFCA
:107FE0001150E9F7F2DF1F91089580E0E8DFEE27F6
:047FF000FF270994CA
:027FFE00040479
:00000001FF
