:100000000C9400240C941D240C941D240C941D2489
:100010000C941D240C941D240C941D240C941D245C
:100020000C941D240C941D240C941D240C941D244C
:100030000C94662B0C94932C0C941D240C941D246E
:100040000C941C2B0C941D240C941D240C941D2426
:100050000C941D240C941D240C941D240C941D241C
:100060000C941D240C941D240000000000000000CE
:100070000000000000000000000000000000000080
:100080000000000000000000000000000000000070
:100090000000000000000000000000000000000060
:1000A0000000000000000000000000000000000050
:1000B0000000000000000000000000000000000040
:1000C0000000000000000000000000000000000030
:1000D0000000000000000000000000000000000020
:1000E0000000000000000000000000000000000010
:1000F0000000000000000000000000000000000000
:10010000FF00000000000000FF00000000000000F1
:10011000FF00000000000000FC00000000000000E4
:10012000FC00000000000000F0E1C3870F1E3C78D7
:10013000F0E1C3870F1E3C78FCF9F3E7CF9F3F7EC9
:10014000F4E9D3A74F9E3D7AF0E1C3870F1E3C78B8
:10015000F0E1C3870F1E3C78FEFDFBF7EFDFBF7FAA
:1001600000FF2244FF30FF50FF811010107E1FFF60
:10017000FF3CA5FF805A7C4A48FF08AA10FF3CFFBD
:10018000FF18FF01FFAAFFFF7C49440FFF42FFFF5A
:10019000FF99990000666600000000000000000062
:1001A000000000000000000000000000000000004F
:1001B000000000000000000000000000000000003F
:1001C00000003C000040020000400200000000006F
:1001D0000000003FF0F03CFF000780FFF0FFF8FF59
:1001E0000FFCF03CFFFCFFFCFF3FF0FFFFF001FCC9
:1001F0003FF07F01801F8001801B802AC0FFFF002D
:10020000DBFF000000000000FFFF00000000000016
:10021000AAFF000000000000FFFC0000000000003A
:10022000FFFC0000000000006666666666666666A3
:10023000AAAAAAAAAAAAAAAA66666666666666663E
:10024000666666666666666666666666666666664E
:10025000666666666666666666666666666666663E
:1002600000FFFF28FE48FEA8FFC3D610103C23FF66
:1002700099184281C05AFF4AB2FF085510FF5AFF31
:10028000816EFF82FFAAFFFF38F9440999D78144A4
:10029000442222BBBBDDDD3C183C3C087E3C7E3C5E
:1002A0003C00003C7C3C787E7E3C423E0244404226
:1002B000423C7C3C7C3CFE42424242827E08000042
:1002C000003C42000040020000400200000000002C
:1002D0000000007FF8F03CFF800780FFF8FFF0FF90
:1002E0000FFCF03C7FFCFFFCFF7FF0FFFFF801FC00
:1002F0007FF83F0F801F800F801B80354081FF00FB
:10030000A5DBFF000000000066FFFF00000000000A
:1003100055AAFF000000000087FFFC00000000005D
:10032000FFFFFC0000000000F0783C1E0F87C3E1D7
:10033000F0783C1E0F87C3E1FC7E3F9FCFE7F3F9C7
:10034000F47A3D9E4FA7D3E9F0783C1E0F87C3E1B6
:10035000F0783C1E0F87C3E1FE7FBFDFEFF7FBFDA8
:1003600000DB88947E885E5466A53810101C47997F
:10037000FFBD3C81EC5AEF4A5DCA3EAAD6FF9511FB
:10038000814262C446FEDD18644F443DBBFE819944
:100390009922226666DDDD4628424218404002422C
:1003A0004200004242424440404242080248406605
:1003B0006242424242401042424224440410000041
:1003C000004A990000400200004002FF80C0E0F0B7
:1003D000F8FCFEFFFCF03CFF800780FFFCF000FF14
:1003E000003CF03C003CFFFC00FFF0F0FFFC01FC97
:1003F000FFFC001F003DC01F001B802AC081FF00C2
:1004000024A5DBFF000000009966FFFF000000004C
:10041000AA55AAFF000000000C87FFFC00000000A6
:1004200087FFFFFC0000000066666666666666661B
:10043000666666666666666666666666666666665C
:100440000000000000000000AAAAAAAAAAAAAAAA5C
:10045000666666666666666600000000000000006C
:10046000006EFF517C906CA89999D6105418FF9992
:1004700066E7DB42725A1E5212655F5538FFD5227D
:1004800081DB64E826FE7718DE494427FF65FF22FA
:10049000229999DDDD66664A08020C287C7C043CC2
:1004A000420000427C40427C7C407E080270405A00
:1004B00052424242423C1042424218280800001078
:1004C0000056A100003FFC00FF4002FF80C0E0F0AA
:1004D000F8FCFEFFFCF03CFF800780FFFCF000FF13
:1004E000003CF03C003CFFFC00FFF0F0FFFC01FC96
:1004F000FFFC000D003EC00D001D80354042FF0096
:100500005224A5DBFF000000429966FFFF000000B7
:1005100055AA55AAFF000000080C87FFFC00000048
:10052000FF87FFFFFC00000000000000000000004B
:10053000666666666666666600000000000000008B
:1005400000000000000000000000000000000000AB
:10055000000000000000000000000000000000009B
:1005600000C522354C684C546699381038188FFFF6
:10057000FFE73C3C285A0C5470925FAAD6AAD54497
:1005800081C978E01EFEAA188EFF66F4FFA6FF223E
:10059000224444DDDDBBBB52083C02480242084213
:1005A0003E00007E42404240404E420842484042A7
:1005B0004A427C527C021042424218101000000055
:1005C0003E5EA13FFC0000FF004002FF80C0E0F063
:1005D000F8FCFEF03CFFFC0F80FFFC003CFFFC0041
:1005E000FFFCF03C003CF000FFF000FF007C003C12
:1005F000F03C3F0F800F000F800F002AC03CFF002F
:10060000205224A5DBFF000018429966FFFF00007E
:10061000AA55AA55AAFF000008080C87FFFC000095
:1006200008FF87FFFFFC000099999999999999997A
:1006300000000000000000000000000000000000BA
:1006400000000000000000000000000000000000AA
:10065000000000000000000000000000000000009A
:100660000040FFD64C044C2C99A54410D6088E9916
:1006700099BD7E10545A084AAE2847553800D5888F
:10068000816270D80EFE5518DE48EE9C997D8199E6
:100690009944446666BBBB620840427E42421042B7
:1006A000020818424242444040424208424440420A
:1006B0004642404A44421042245A2410200000007E
:1006C0000040994002000000004002FF80C0E0F0BE
:1006D000F8FCFEF03CFFFC0780FFFC003CFFFC0048
:1006E000FFFCF03C003CF000FFF000FF003C003C51
:1006F000F03C3F0F001D800F000600354008FF0052
:1007000008205224A5DBFF00EA18429966FFFF008B
:1007100055AA55AA55AAFF000808080C87FFFC0037
:100720000808FF87FFFFFC00FFFFFFFFFFFFFFFF41
:1007300000000000000000000000000000000000B9
:1007400000000000000000000000000000000000A9
:100750000000000000000000000000000000000099
:1007600000008858080A0802FFC3C61038088C66C3
:10077000FF18A5608A5A082AA98261AA54005AFF64
:10078000817E60BC06AA22188278EE90BBEE81447E
:10079000449999BBBB66663C3E7E3C083C3C103CA1
:1007A0003C0818427C3C787E403C423E3C427E42C3
:1007B000423C403C423C103C182442107E00001059
:1007C000003C424002000000004002000000000027
:1007D000000000F03C7FF80780FFFC3FFCFFFC0FAF
:1007E000FFF8FFFC003CFFF0FFFFF07F003C003C07
:1007F000FFFC3F06001B80060006002AC006FF0023
:100800000008205224A5DBFF00EA18429966FFFF8A
:10081000AA55AA55AA55AAFF000808080C87FFFC8C
:10082000000808FF87FFFFFC000000000000000038
:1008300000000000000000000000000000000000B8
:1008400000000000000000000000000000000000A8
:100850000000000000000000000000000000000098
:100860000000FF1008040801008128105408F80057
:10087000663C2460875A082A47003E5592003CFF98
:100880008118607E06AA00187CCFFFF0FFD7FF44D6
:1008900044FFFFBBBB0000000000000000000000A0
:1008A0000010000000000000000000000000000038
:1008B0000000000000000000000000000000000038
:1008C00000003C4002000000004002000000000068
:1008D000000000F03C3FF00780FFFC7FFCFFFC0FB6
:1008E000FFF0FFFC003CFFF8FFFFF83F003C003C3E
:1008F0007FF83F0F001DC00F000700354006FFFFC7
:1009000005FFE000017E803BE00000000007FFE003
:1009100003ABFF0FDFDC0000002208E010FF9F6B3D
:10092000F3447700FF0075000000CFB500FE467F5E
:100930000007C00000F077FFFF999900006666305D
:1009400000000007E00000003FC01FF803FC0007A4
:10095000FFFC07E03FFFE0000001FF800000000017
:10096000047E0000003FFC03FF803C000007FF8185
:10097000F80FFFF03FF0018F000000000000000FB3
:10098000807FF8000000007FE07F807FF07FFFC164
:100990008FFFF40000000000000003FFF80FFF00CD
:1009A0000007E007F81FC00FF07FFFF18FFFFE0088
:1009B000FF00000000001FFE01FFF80FFE00FE0711
:1009C000FC0020017FF383FFFE00F000000018010F
:1009D000FFE03FF807FFE01F81FFC0000000F38049
:1009E0001FFE0000000000000000000000000000EA
:1009F00000000000000000000000000000000000F7
:100A000007FFF80003BDC016C801F0007E040020F7
:100A100005AAFF0FEF78000000770910107F0FAADA
:100A2000F4427731FF8CAD00000FCFAD00FCEFFF3B
:100A30008001F00003FEFF44442222BBBBDDDD4801
:100A40000000007FFE0000007FE01FF807FE0001AD
:100A5000FFFE07E07FFF80700003FFC0000E000074
:100A600007FE0000007FFC03FF007C000003FF8105
:100A7000F80FFFF0FFF803CC00000000007F803F7C
:100A8000C07FF8000000003FE07F01FFF87FFFE338
:100A9000CFFF000007F00640000001FFF00FFF004D
:100AA000001FF003F81FC01FF87FFFE3CFFFFE0F0A
:100AB000FF00000000001FFE01FFF81FFF807E0FF7
:100AC000F800F00017E3CFFFFE03F00000003C0148
:100AD000FFC03FFC0FFFF01F81FF8000000003C03C
:100AE0007FFE000000000000000000000000000089
:100AF00000000000000000000000000000000000F6
:100B000003FFD00007DBE01DB407F8007E041820C7
:100B1000056BD01FFF97800056770950103E07AA3B
:100B2000C0427732FF4CAE0000FFFFAD30FFFFFF49
:100B3000C007E0000FFFAA999922226666DDDD88D2
:100B40000000007FFE000000FFE01FF807FF00002C
:100B50007FFE00007FFE007F0003FFC000FE00005C
:100B600007FFE00000FFFE03FF007F000001FFC061
:100B7000001FFFF0FFFF83C000000007807FE03F01
:100B8000C07FF002000E000FF01E01FFF87FFFE3B0
:100B9000C7E000001FF00FF8000000FFF81FFE0084
:100BA000001FF801F00F803FF87FFFE3C7FFFE1F33
:100BB000FF00E00000800FFE03FFF01FFF807007C2
:100BC000F001F80001E3C7FFFF0FE0000000FC00A8
:100BD000FFC03FFE1FFFF81003FF8000000003C1AD
:100BE000FFFF000000000000000000000000000007
:100BF00000000000000000000000000000000000F5
:100C000001FFE0000FE7F01FF60FFC007E0400205C
:100C1000175DF81FFFEF5C7067FF3FFFFC1402AB2E
:100C2000C0227734FF2C6A000FFFFFAEF8FFFFFFF2
:100C3000E103F0007FFFFF22229999DDDD666690D7
:100C40000000007FFE000001FFF01FF80FFF800092
:100C50001FFF0000FFF8007FF007FFE00FFE0030ED
:100C600007FFE00000FFFE03FF00FF8000007F8021
:100C7000001FFFF8FFFFC7E00000003F007FF80FF4
:100C8000C07FE007000F000FE00003FFF87FFFE7E1
:100C9000E6000000FFF007FE0000007FF01FFE00EE
:100CA000003FFE01C001007FFC037FC7E7FFFE3F5E
:100CB000FF00FE0000E007FE03FFC01FFFE0000191
:100CC000E003F8000007E7FFFE0FF0040001FE005C
:100CD000FFC07FFF0FFFF80001FC0000000007E7E6
:100CE000FFFF000000000000000000000000000006
:100CF00000000000000000000000000000000000F4
:100D000006FFE4001FE7F805C81E3BB07E04002084
:100D10001D55C00E7FEEDEF866FF7FFFFE00006D02
:100D20008044773FFFFC5A003FFFFF76FCFFFFFF48
:100D3000FF018001FFFF2222224444DDDDBBBB68AE
:100D40000000003FFC000001FFF00FF00FFF8000EB
:100D500007FF03C0FFE0007FFF07FFE0FFFE00F09A
:100D600003FFE00001FFFE03FE01FFC000003F079C
:100D7000E03FFFE0FFFFC7E0000000FF807FFE07CD
:100D8000C07FE00F801FC00383E007FFFC7FFFE709
:100D9000E0000000FFF007FE0000007FF80FF80001
:100DA000003FFE0007F001FFFC0007C7E7F500FF6A
:100DB000FE00FF8001E007FE03FFC03FFFF00FC011
:100DC000C00FFC000007E7FFFE07E00E0003FF0076
:100DD0007FC0FFFF01FFFC07E0FC0008F00007E711
:100DE000FFFF000000000000000000000000000005
:100DF00000000000000000000000000000000000F3
:100E00000BFFD0003FDBFC03D01DD7D87E040020B1
:100E10001F55800FBFEEDEF86677FFFFFF000075FD
:100E200000247730FF0C5600FFFFFF55FCFFFFFF4B
:100E3000FF0FC00FFFFFFF999944446666BBBB04D8
:100E40000001803FFC018003FFF80FF01FFFC0008E
:100E500001FE1FF87F8000FFFFC7FFE3FFFF03F8DD
:100E600007FF800001FFFF03FC03FFC038000E3FB7
:100E7000FC7FFF80FFFFC7E0006E03FF807FFE0363
:100E8000E07FC01FE03FF0001FF80FFFFC7FFFC7AF
:100E9000E0000001FFF00FFF8000001FF81FF800C6
:100EA000C07FFF803FFC01FFFC000007E00000FF67
:100EB000FF00FFC007F003FE03FF803FFFF03FFC91
:100EC000003FFC000007E7FFFE07E00FC003FF0044
:100ED0007F807FFE00FFFC1FFC70003C7FE007E787
:100EE000FFFF000000000000000000000000000004
:100EF00000000000000000000000000000000000F2
:100F000005FFB4007FBDFE06B80BEFE87E000020B1
:100F10000A550007DFCF6F786677FFFFFF000055A7
:100F2000004277303C0C550FFFFFFF55FEFFFFFFDF
:100F3000FF03F01FFFFF8844449999BBBB66660A14
:100F40000007803FFC01E003FFF80FF01FFFC00027
:100F5000007C7FFE3E0000FFFFCFFFF3FFFF0FF896
:100F600007FF8000007FFF03FC03FFE03C00007FE1
:100F7000FE3FFC00FFFFCFF0EFFE07FF807FFC018C
:100F8000E07F803FE03FFC007FFE1FFFFC7FFFCF44
:100F9000F0000007FFF00FFFC007001FF81FF0036D
:100FA000C03FFFC07FFE07FFFE00000FF000007F84
:100FB000FE01FFC007FC03FE07FE003FFFF8FFFE37
:100FC000007FFE00000FF3FFFE03E00FE007FF804D
:100FD0003FC0FFF8001FF87FFE0001FCFFFE0FF38B
:100FE000FFFF000000000000000000000000000003
:100FF00000000000000000000000000000000000F1
:101000002AFFF800FF7EFF036407DFEC00040020E6
:10101000075D00038F87BFF06677FFFFFF00005575
:1010200000A67730000C757FFFFFFFB5FFFFFFFFC5
:10103000FF01C07FFFFFFF4444FFFFBBBB00000474
:10104000001FC03FFC03F807FFFC0FF03FFFE0006C
:101050000018FFFF180000FFFFCFFFF3FFFF1FFC8A
:1010600003FF8030001FFF03FC07FFE03F8000FF0D
:10107000FF1FC0007FFFCFF3FFFE0FFF807FF80050
:10108000E07F807FF07FFE00FFFF1FFFFE22330F17
:10109000F0000007FFF00FFF8007800FF81FE0034C
:1010A000E03FFFF1FFFF0FFFFC00000FF000003FEB
:1010B000FE01FFF00FFC01FE0FFE0013FFF0FFFF2B
:1010C00001FFFE00000FF0015E03E01FF807FFE0E4
:1010D0003F81FFF00003F9FFFF0007FCFFFFCFF3A4
:1010E000FFFF000000000000000000000000000002
:1010F00000000000000000000000000000000000F0
:1011000000000000000000000000000000000000DF
:1011100000000000000000000000000000000000CF
:101120000000FF0001806618180C6C067E18067E11
:1011300066606660606606D8D67E7E66F81C1866B5
:10114000D6183000181C0000000006000000000047
:101150000BFFA2FFEDFB7EFDFFFA0BFFD7F805FCAE
:10116000000000003D005FFFFFF3F7FDFBFFF7FF0E
:10117000F45FFA2FE8BFF7E3FBFFEBFD0000BE00D2
:10118000000001B5FDBDFFF8007E9BF0E01FE03ED2
:101190003CFF6E4FF802BFF37FF800FFFFFDF54004
:1011A00007FF9C166FF80DB3FFE630FF80FFC0020B
:1011B000FFF97FFAFF1CFDFFCFFFFFFDB0001C40D1
:1011C000C3F839E11F800000003227FFFF9E01EFC6
:1011D000FFCDEFDFFFC0C70231DF1FFFF67803F15D
:1011E000BFFFC1C0FEFFFFFFFFEFFC43F1FFFF8425
:1011F000FCFFFFBFEAAABAF3C1E0047E08FE1E00AE
:1012000000000000000000000000000000000000DE
:1012100000000000000000000000000000000000CE
:101220000000000001806618180C6C066618067E27
:1012300066606660606606D8C66E7C66D80E186604
:10124000FE3C30001838001000040501FFFF1FFEAF
:1012500017FFD5FFF5FD7EFDF80217FFBBFBF6FD7E
:10126000FBFFE7FF8D00BFFFFFFBF7FFFBFFF7FF73
:10127000E8800417D040000000000C010000BF1EF1
:1012800000001DB1FDB9FFFE007D3B7FE01EF0199F
:101290001FFA7E1FFC0057E37FF800FFF9FDCB002B
:1012A00007FEF9B6B7FC0367FFED02FF80FFF80108
:1012B0007FE2FFFEFE38F07FCFFFFFF9B0C08E0166
:1012C000F3FFE7999FF800000031C7FFFF3F0CDFF5
:1012D000FFC06FBFFFE0E384783E3FFFEE7FFFF982
:1012E000FFFF86C0F955F7FFDFDFF883000FFF0827
:1012F000FEFFFF7FFF5555717FE0067C31FC3E000D
:10130000003C183C7E0C7E1C7E3C3C187C3C787E6D
:101310003E667E06CC60C6667CF83E66C6666600A3
:10132000180000000180661830667E06663006668A
:1013300066666660606666CCC66E6066CC06183C03
:10134000FE3C601800700028000A04810001600261
:101350002FFFEBFBF9FE7EFDF7FE2FFF7DFBF77DF8
:10136000FBFFE7FFE5017FFFFFFFF7FFFBFFF7FF55
:10137000D0FFF80BA03FFFFFFFFFFBFF0400DF7F64
:1013800000003DADFB18FFFD807D3674502E7001CE
:10139000BFF4FE1FFC012A077FF801FFF0F6E5808D
:1013A00007FDFB6DB7FC06CFFFCF877F80FFF7C03F
:1013B000AFCBFFFDFE50C21FCFFFFFFB49C00803AC
:1013C000EBFF925B9FFF8000007FE7FFFE3FFCDFAB
:1013D000FFC0EE7FFFA0E5ECFE007FFFDE1FFFE118
:1013E000FFFF08E0F6AABBFFBFBFF90AF803FC1134
:1013F000FCFFFFFFFFAAAAB859C01E7843F8FE0001
:10140000007E187E7E0C7E3C7E7E7E3C7E7E7C7ED8
:101410007E667E06CC60C6667EFC7E66C66666001C
:1014200018E000000180661830667E6666300E6641
:1014300066666E60606666CCC666606ACC06183CFE
:10144000EE66601800E00054001505417EFD9FFA2D
:101450005FFFF7F1FDFF7EFDF4005FFEFEFBF7BDD1
:10146000FBFFE7FFF502FFFFFFFFF7FFFBF007FFC2
:10147000A000000540000000000000000C006EE32A
:1014800000000D76FB015FFF803A6EF83019900383
:10149000BFEF1C1FFC0080017FF803FFE4FEDEC0ED
:1014A00003FBFDFD2BFE059FFF97CD7F80FFFFF225
:1014B0005F17FFFDFC608B87CFFFFCF63F801017A6
:1014C000F3FE7DBB9FFFFC00003FE3FFFC7FFC4F72
:1014D000FF866DFFFF20F170FFE0FFFFFE1FFF871B
:1014E000FFFE11E0EF5555D5557FF18393E1F86389
:1014F000F8FFFDFFFF7D555C11FFFA7087F1FE00DC
:10150000006638660C1C60700666667E66666E60F5
:1015100060661806D860EE6666CC6066C6666618B9
:101520001870000001807E7E7E7E0C7E7E303C66E0
:101530007E7E7C7E60667EC6C666607CC67E18182F
:10154000C6667E18180000BA002E85A17EFD7FFABF
:10155000BFFFFFFFFFFFFEFDF7FF8001FF03F7C1A5
:10156000FBFFE7FFF105FFFFFFFFF7FFFBFFFFFFBB
:10157000D000000280000000000000000C06B0DA7D
:10158000000000AF365C2FFFC0246CFA78266001A3
:10159000EFEC6C27FC0701C4FFF003FFC9FF5FE01D
:1015A00003FDFDFF3BFE053FFFAFFF7F83FFEFE342
:1015B000002FFFFFF8E00F61C7FFFBF6DE0070872A
:1015C000FDF8F9379FFFFDC0000CF47FF0FFFC57DA
:1015D000F83F0FFFFE20F803FFF7FFFF7F07FE1F16
:1015E000FFF823F0DFFEAAAEAABFF3E97C18F0876C
:1015F000F07FF3FFFEFFEAAE00BED0E11FE3FE0086
:10160000006638660C1C6060066666666666666024
:1016100060661806D860EE7666CC6066C63C6618D2
:101620001838000001803C7E7E3C0C3C3C30386623
:101630007C3C787E60663CC6C6666036C67C181800
:1016400082667E181800017D005F45D17EFCFFFA9E
:101650007FFFFFFFFFFFFEFDF801FFFBFFBBF7ED84
:10166000FBF007FFF70BFF7FFDFFF7FFFBFFFFFF1F
:10167000E800000000000000000000000E6EDED652
:101680004000005F4E7F15FFC018D91DFC0BF8000D
:1016900057F9BD1FFC19FE33FFF001FF93CD6EE03B
:1016A00007FDE3FE4DFF037FFF5FFF7F87FFDFE75F
:1016B000557FFFFFF0E02C38E71FE7E6D0003077DA
:1016C000FFD064679FFFFBFE009C027FE1FFFE38B6
:1016D00003FC7FFFF83EFE0FFFEFFFFEFF200077C9
:1016E000FFF0C7F0FFFFE5555557F3E0F804E10FB1
:1016F000EEBFEFFFFDFFFD55F82481C23FC7FE009E
:101700000066180C183C7C600C3C7E667E60667C33
:101710006E7E1806F060FE7666CC7066C63C3C189D
:10172000181C000001800000000000000000000004
:1017300000000000000000000000000000000000A9
:1017400000000000000002FE80BFA5E97EFCFFFA59
:10175000FFFFFFFFFFFFFEFDFFFD0017FFDBF7F5BB
:10176000FBFFF7E3F417FEBFFAFFF7EFFBFFFFEF16
:10177000F40000000000000000000000075EF0DE42
:10178000FC00007F4DFF02BFE001BA1EFC1C1C00E4
:101790006BFB793FFC3E7DCBFFE003FF21B3B5F04F
:1017A00007841FFC8DFF02FFFE7FFEFF8EFF3FC7F9
:1017B000FFFFFFFFF2C0187C25E01FAF8E0031173E
:1017C000FFC0CD6F801FF7FFE0860207C7FFFF3E17
:1017D000FDE1FFFFF043FFBFFFBFFFFDFF21F1CFA2
:1017E000FFE10FF87FFFFEAAAAABF2C4F004C21F0C
:1017F000C6EF9FFFFBFFFFAABF000F047F8FFE0015
:101800000066180C183C7E7C0C3C3E667C60667C56
:101810006E7E1806F060D67E66FC3866D6183C18D8
:10182000180E00FF01800000000000000000000012
:1018300000000000000000000000000000000000A8
:1018400000000000000005FF417FD5F57EFDFFFA96
:10185000FFEFFFFBFFFFFEFDFFFD002FFFEBF7F9A2
:10186000FBFFF7E3F42FFD5FF57FF7E7FBFFFFE7F3
:10187000FA000000000000000000000002DEFDBCD5
:10188000FF80007E9DA7C14FE0237D369C73E4005E
:1018900005FFF97FFC7F83F3FB6003FF0875DFF82A
:1018A0000659FFF01AFF02FFFCBFFEFF0EFEFFCF3E
:1018B000FFFFFFFFFDC038F203FFFE6C7F3070E7D3
:1018C000FF8E71EF9ECFEFFFFE8E02038FFFFA05B2
:1018D000FC13DFFFE087FF7FFF7FFFFFFE2501FF97
:1018E000FFC21FFCFFFFDFD5555FF300F004847FCC
:1018F0008EFB3FFFF7FFFFF557C03E08FF1FFE00BE
:1019000007C80E78067803C827C017E03FF0178095
:1019100027F007E0038007C02EE81C700820044071
:1019200007C40E7C067C23C417C017E03FF017F0F5
:1019300017F027E00380038006C006C01C7006C0B5
:1019400007C80E78067803C827C017E03FF0178055
:1019500027F007E00380038003800380038007C033
:1019600007D00E70067003D007C007F03FC0078095
:1019700007C007F00380038006C006C01C7006C0C5
:101980002F8039C039802F000F803F800FF00780F3
:101990000F803F80070007000D800D8038E00D802C
:1019A0004F8079C079804F000F901FA03FF007A0B3
:1019B0003F901F80070007000700070007000F8007
:1019C0008F80F9C0F9808F100FA01FA03FF03FA0BB
:1019D0003FA01F90070007000D800D8038E00D80AC
:1019E0004F8079C079804F000F901FA03FF007A073
:1019F0003F901F8007000F805DD038E010400880C6
:101A00000300078006C007B00E400C800E800F4018
:101A10001B401A401A4018401C402F8002000780CB
:101A20000300078006C007B00E400C800F800DC079
:101A30001B401B40164018401C402F8005400F8063
:101A40000300078006C007B00E400C800E800F40D8
:101A50001B401A401A4018401C402FA009401F800C
:101A60000300078006C007B00E400C800E800F40B8
:101A70001B401940194018401C402F8005400F8022
:101A8000030007800D80378009C004C005C00BC06B
:101A90000B600A600A60086008E007D00A8007C08F
:101AA000030007800D80378009C004C005C00BC04B
:101AB0000B6009600960086008E017D00A4007E081
:101AC000030007800D80378009C004C007C00EC026
:101AD0000B600B6009A0086008E007D00A8007C00F
:101AE000030007800D80378009C004C005C00BC00B
:101AF0000B6009600960086008E007D001000780FA
:101B000000C001A001F000C0006000302FB038E03C
:101B100010402AC01FC00F80020002000200050012
:101B200000C001A001F000C0006000302FB038E01C
:101B300018C030C015C00A80150002000500000062
:101B400000C001A001F000C0006000302FB038E0FC
:101B500010402AC01FC00F800200050000000000D6
:101B600000C001A001F00AC015600AB035B03860AD
:101B700010C03FC01FC00F8002000200050000001F
:101B80000C0016003E000D401AA0354036B018700B
:101B90000C200FF00FE007C00100010002800000E0
:101BA0000C0016003E000C001800300037D01C70EE
:101BB00008200D500FE007C0010002800000000067
:101BC0000C0016003E000C001800300037D01C70CE
:101BD0000C600C300EA0054002A001000280000045
:101BE0000C0016003E000C001800300037D01C70AE
:101BF00008200D500FE007C0010001000100028025
:101C000001C002E004F004F004F002E001C0004072
:101C100001C0014001C001E013E017F03FB00F1018
:101C200001C002E005D005D005D002E001C00040AF
:101C300001C0014001C001E023E02FF07FB01F1080
:101C400001C003A007900790079003A001C00040C7
:101C500001C0014001C003E087E09FF0FFB03F10EA
:101C600001C00360063006300630036001C000404A
:101C700001C0014001C001E043E04FF0FFB03F1060
:101C80000E001B003180318031801B000E000800E7
:101C90000E000A000E001E001F083FC837FC23F08C
:101CA0000E00170027802780278017000E000800ED
:101CB0000E000A000E001F001F843FE437FE23F0D1
:101CC0000E001D002E802E802E801D000E000800AC
:101CD0000E000A000E001E001F103FD037F823E050
:101CE0000E001D003C803C803C801D000E00080062
:101CF0000E000A000E001E001F203FA037F023C078
:101D0000300030003000300030003000300037F05C
:101D100037F03FF007F003E01DE03FC037C037C0A9
:101D20003000300030003000302030C0330034004C
:101D300037F03FF007F003E01DE03FC037C037C089
:101D40003000300030803100310032003200340089
:101D500037F03FF007F003E01DE03FC037C037C069
:101D6000003000300030003010300C30033000B054
:101D70003FB03FF03F801F001EE00FF00FB00FB0EC
:101D8000003000300430023002300130013000B049
:101D90003FB03FF03F801F001EE00FF00FB00FB0CC
:101DA00000300030003000300030003000303FB0F4
:101DB0003FB03FF03F801F001EE00FF00FB00FB0AC
:101DC00007C01FF01CF83CE03F803E003F803FE032
:101DD0001FF81FF007C0028002800280028007C047
:101DE00007C01FF01E703E783FF83E003FF83FF8F6
:101DF0001FF01FF007C00280028007C00000000033
:101E000007C01FF01CF83CE03F803E003F803FE0F1
:101E10001FF81FF007C007C000000000000000000E
:101E200007C01CF01CE03FC03F003E003F003FC029
:101E30001FE01FF007C00280028007C00000000002
:101E40000F803CE01CE00FF003F001F003F00FF016
:101E50001FE03FE00F80050005000F80000000003C
:101E60000F803FE07CE01CF007F001F007F01FF06E
:101E70007FE03FE00F800F800000000000000000C6
:101E80000F803FE039E079F07FF001F07FF07FF0E4
:101E90003FE03FE00F80050005000F8000000000DC
:101EA0000F803FE07CE01CF007F001F007F01FF02E
:101EB0007FE03FE00F8005000500050005000F8072
:101EC0000600070002A003E00300070007800740A8
:101ED0000F000F800F801B80110010802040000039
:101EE000000000000600070002A003E003800700D6
:101EF000078007400F000F800F801B80330040C019
:101F000000000000000000000600070002A003E03F
:101F100003800700078007400F000F801F80FBE051
:101F2000000000000600070002A003E00380070095
:101F3000078007400F000F801F801B0030C040004B
:101F4000000000000180038015001F0007000380CF
:101F500007800B8003C007C007E003600C30000857
:101F600000000000000000000180038015001F0039
:101F70000700038007800B8003C007C007E01F7CB9
:101F8000000000000180038015001F00070003808F
:101F900007800B8003C007C007C0076003300C0830
:101FA0000180038015001F000300038007800B8061
:101FB00003C007C007C0076002200420081000000B
:101FC00013C81DB80FF0066005A0024007E00FF02F
:101FD0001FF833CC63C646622C34066002400E7094
:101FE0000BD00DB00FF0066005A0024003C01FF833
:101FF0007FFEE7E783C1C7E306600C300810381C9A
:102000001C3806600C30666623C467E637EC1FF8A0
:102010000FF007E0024005A006600FF00DB00BD0F6
:10202000700E18180C30066063C627E467E637ECBC
:102030001FF80FF0024005A016680FF00DB003C0A6
:1020400002000140022009401220084013000CC089
:102050001120112022102110122012200CC0030088
:10206000020011200A4011200A40102003000CC079
:102070001020106022902510182010200CC00300A2
:1020800001000880112008901120081003200CC0C6
:10209000102010202D1022D0102010200CC0030082
:1020A00004401220244012202440102023000CC0A1
:1020B0001420122021102210112010A00CC00300A7
:1020C0000A2016680150396265CE03D0FFEE87F111
:1020D00077E4C7FF8BF132AC64A649A21290369820
:1020E00000000520034031741DCC03D03FEC07F401
:1020F0003FE067FC0BF232AC24A40B901AD800C06E
:10210000000000000220096005C803D01FE007F8A6
:102110001FE017F80FF012A805A00AB000C00000D9
:102120000300030003000300030003000300030097
:10213000030003003FF00300186034B02CD0186097
:102140000300030003000300030003000300030077
:10215000030003003FF00300186024D03CD0186057
:102160000300030003000300030003000300030057
:10217000030003003FF0030018602CD034B0186057
:102180001C0014001F000D000F800F8006000F00C0
:102190001F801F803DC03EC00F001D801B801DC0E2
:1021A0001C0014001F000D000F800F8006000F00A0
:1021B0001B801B801B801D800F000600060007008F
:1021C0001C0014001F000D000F800F8006000F0080
:1021D0001F803FC07FE06F600F801DA030E038405F
:1021E00000E001A003E002C007C007C0018003C0F7
:1021F00007E00FF01FF81BD807C016E01C3008706E
:1022000000E001A003E002C007C007C0018003C0D6
:1022100007E007E00EF00DF003C006E007600EE0F7
:1022200000E001A003E002C007C007C0018003C0B6
:1022300007E00760076006E003C0018001800380BB
:10224000000000003FFC63C6EBD7E8170FF007E083
:102250000C300BD01BD81C383FFC3FFC3FFC3FFC34
:102260003C007FC07FF863C6085708170FF707E0E8
:102270000C300BD01BD81C383FFC3FFC3FFC3FFC14
:10228000003C03FE1FFE63C6EA10E810EFF007E013
:102290000C300BD01BD81C383FFC3FFC3FFC3FFCF4
:1022A000030005800B4013202310231013200B4044
:1022B000058003000DC013001FF03FF010200B80BD
:1022C00003000300058007800B400B40078005805A
:1022D000030003000EC003203FE03FF01020074042
:1022E00003000300030003000200020003000300D8
:1022F00003000300074013203FF03FE000200EC022
:10230000030006800B400B40132013200B400B40B2
:10231000068003000B8013203FF01FF010000DC05B
:1023200000000000000003C00C3010082004400230
:10233000800140022004D00B2C344BD212480240C2
:1023400000000000000003C00C3010082004400210
:10235000F81F57EA2BD412480C3003C000000000CD
:102360000420042012484BD22C3493C9A7E54662BE
:10237000866147E223C410080C3003C0000000004F
:1023800000000000000003C00C3012482A545FFA1D
:10239000F67F47E223C410080C3003C000000000A1
:1023A00018602C902CF0186003003FF014A00480FB
:1023B00004800780030003000300030007800FC0B0
:1023C000186024D03CD0186003003FF014A00480B3
:1023D000048007800300030007800FC00000000096
:1023E000186034F03490186003003FF014A00480AB
:1023F0000480078007800FC000000000000000007C
:1024000018603CB024B0186003003FF014A00480B2
:10241000048007800300030007800FC00000000055
:1024200003C0FFFFABD5FFFF13C8299415A80BD03D
:1024300005A003C003C005A00A50142828141008E2
:102440000000000003C0FFFFABD5FFFF13C82994B5
:1024500015A80BD005A003C003C025A04A54142A18
:10246000000000000000000703FDFFD7ABF8FFC02D
:1024700003C0018015A44BD205A423C20BD025A80C
:1024800000000000000000200202001503CE0FD45F
:10249000CBC8B7C2E3C8318107E4C3C817C223FC65
:1024A0000000004000000208000000000840000496
:1024B00000E203A412F00DC018B00C40017830D136
:1024C00000000000000000000000020000000020EA
:1024D00010080A8400206500226808A003D017E0D5
:1024E00000000000000000000000000000000000EC
:1024F0000800008040000000144001A08A8037409E
:1025000000000000000000000000000000000000CB
:102510000000000000000800020080002C0076008F
:1025200061869FF99FF9618603C0FFFF8001AAA918
:102530009FFDB559900DB5599FFDAAA98001FFFFD8
:102540001DB822F422F41DB803C0FFFFD555BFFF0C
:10255000EAADB007E54DB007EAADBFFFD555FFFFC7
:1025600007E00810081007E003C0FFFFFFFFD55782
:10257000E003CAA7E7F3CAA7E003D557FFFFFFFFB1
:102580001DB82F442F441DB803C0FFFFAAABC001E4
:102590009553CFF99AB3CFF99553C001AAABFFFF7A
:1025A000000000000000000000000000000000002B
:1025B000000000003FF020703FF020903F903FF07F
:1025C0000000000000000000000000003FF020704C
:1025D0003FF020903F903FF000000000000000001E
:1025E00000000000000000003FF020703FF020904D
:1025F0003F903FF0000000000000000000000000DD
:102600000000020005000A801540128021002030E1
:10261000203010401FE00FF007E003C002A004903C
:102620002A0015002A00150020002000200020307C
:10263000203010401FE00FF007E003C002A004901C
:1026400000004000A0005000A800440084000430B6
:10265000083008400FE00FF007E003C002A004902C
:102660005400A8005400A800040004000400043032
:10267000083008400FE00FF007E003C002A004900C
:1026800000A8005400A80054008000800080308022
:10269000304008401FC03FC01F800F00150024803D
:1026A000000000080014002A0055008A00843080D1
:1026B000304008401FC03FC01F800F00150024801D
:1026C000015002A0015002A00010001000103010B4
:1026D000301008201FE03FC01F800F00150024802D
:1026E00000000100028005400AA005200210301001
:1026F000301008201FE03FC01F800F00150024800D
:102700005555FFFFFFFF081008100810F81F55551A
:10271000FFFFFFFF0810081008105815FFFFFFFF0C
:1027200000005555FFFFFFFF0810F81F08103FFE7F
:10273000381E08105FF5FFFFFFFF0000FFFF0000DD
:1027400000000000FFFF5555FFFFFFFF0810381E77
:102750003FFE0810F81F5FF5FFFFFFFF00000000BD
:1027600000005555FFFFF81F08105555FFFFFFFFEC
:10277000781DF81FF81F08105555FFFFFFFF0000D8
:102780001F8026403FC036C039C01F8009000900A5
:1027900009001080108010802040204030C030C0E0
:1027A00000001F8026403FC036C039C01F80108007
:1027B000204020404020402080108030C030C000A9
:1027C0000000000000001F8026403FC036C039C016
:1027D0001F8020404020801000080004000C000CE6
:1027E00000001F8026403FC036C039C01F801080C7
:1027F00020402040402040208010C010C0300030D9
:1028000003C00E7013C8318C399C5FFA8DB284A45A
:1028100049242912248942498252049008880040A0
:1028200003C00E7013C8318C399C5FFA4DB185110D
:10283000849248A4292429124489024802500400A1
:1028400003C00E7013C8318C399C5FFA4DB14491AE
:102850008249824A44942524292208900448004051
:1028600003C00E7013C8318C399C5FFA4DB2291227
:1028700024914249824A844A4891092009000080F3
:1028800003400F703F3C3F4C5F665F769F7F007F49
:102890008E008EFF46FE40F22004300C0C3002C049
:1028A00003C00FF03FAC3FCC5FC647B699BF9E7FD9
:1028B0008E7F8D9F45E641F22004300C0C3003C022
:1028C00003C00FF02FBC37C85BE65DE69EDF9E3F7E
:1028D0008C7F8B7F47BE41C2000430040C3003C0A4
:1028E00003C00BF03DBC3DCC5DE65EF49EE39E1F55
:1028F000887F877F077E41B22004300C0C1003C014
:102900000180030006000E001D0032A0217000F0BF
:10291000019033B036103FF038803220355002201D
:102920000180030006000E001D0032A0217000F09F
:10293000019063B066107FF07880622065500220BD
:102940000180030006000E001D0032A0217000F07F
:102950000190C3B0C610FFF0F880C220C55002201D
:102960000480030007802FD01CE01CE02FD017A0AC
:10297000132014A01FE00300186024B02C901860EE
:102980000300078007801CE03B703B701CE017A031
:1029900017A013201FE003001860249034B01860C3
:1029A0000780078004803B7037B037B03B7014A0BD
:1029B00017A017A01FE003001860349024D01860FF
:1029C00007800480030037B02FD02FD037B01320FA
:1029D00014A017A01FE0030018602CD024901860EA
:1029E00001800F801F000D000F800F0006000F00F8
:1029F0001F801F803DC03EC00F001D801B801DC07A
:102A000001800F801F000D000F800F0006000F00D7
:102A10001B801B801B801D800F0006000600070026
:102A200001800F801F000D000F800F0006000F00B7
:102A30001F803FC07FE06F600F801DA030E03840F6
:102A4000060007C003E002C007C003C0018003C046
:102A500007E00FF01FF81BD807C016E01C30087005
:102A6000060007C003E002C007C003C0018003C026
:102A700007E007E00EF00DF003C006E007600EE08F
:102A8000060007C003E002C007C003C0018003C006
:102A900007E00760076006E003C001800180038053
:102AA00003C00FF01FF81FF8318C0E706FF6AE7573
:102AB000B18D9FF99BD98C3147E2024002400E70E4
:102AC0002AC035403FC0090009001F8010801080D7
:102AD0001180224020B85924444244024402FFFF9E
:102AE000FFFF724E8A51AA554A52124822442A5474
:102AF0002A542A542A542A542A542A542A542A54E6
:102B0000018003C003C007E00FF0FFFFFFFFFFFFDE
:102B10007FFE3FFC1FF81FF83FFC3E7C381C200462
:102B20000000004000C001E073E03FE03FF01FFC08
:102B30001FFF1FFC1FF03FE03FE000E000600020AF
:102B40000000002018601FE01FE00FE00FF01FF8EA
:102B50003FFC7FFE0FE003C001C00080008000004A
:102B6000000008000600077007F00FF01FE03FF0BC
:102B70003FF807F803C403800300000000000000D2
:102B80000000000002000300038007F81FF01FE0B0
:102B90000FE007F007F00310000000000000000045
:102BA000030000000C0006000000006003000000AD
:102BB00000000000000000600300000000000000B2
:102BC0000000006003000000000000000000006042
:102BD0000300000000000000A0000A604B9224499E
:102BE000924852242949926403000000000000002A
:102BF000000000604B0200000000000000000060C8
:102C0000030000000000D886020000604B12002480
:102C1000499224499224096003000000000000004A
:102C2000000080640300000000000000000000605D
:102C300003000000500000B04D92946403802449CA
:102C40009224490200000060030000000000000020
:102C5000000000604B9224499224499224499264D6
:102C60006061006228636460651D0D09001D00102D
:102C70000118041E067BEFBDF7DE5B903623585B20
:102C8000804A62DB7BEFBDF7DE000102030405062C
:102C900007A2011FFFFFFFFFFFFFFFFFFFFFFFFF77
:102CA000FFFFFFFFFFFFFFFF0140387840FFFFFFFE
:102CB000FFFFFFFFFFFFFFFFFFFFFFFF030000001D
:102CC000000000B66DDBB66D0300000000000000E0
:102CD0000000007803000000000000000000006019
:102CE0000300000000000000490100600300000034
:102CF00000000000000000604B9224499224490229
:102D0000000030600300000000000080249934605F
:102D10008B24090000000000001830600300000050
:102D20000000000000983460030000489224000076
:102D3000009834600300000000000024099834600B
:102D400003481200000000000098346003000000F7
:102D50000024090000983460030000920400000081
:102D600000000060030000000000000000000060A0
:102D70004B922449922449922449926460610062F2
:102D800028636660671D0D070118011A0703091300
:102D90000C7BEFBDF7DE7BCF43B6706BECE81CDB42
:102DA0007BEFBDF7DE08090A0B0C0D0E0FA2013FE9
:102DB000FFFFFFFFFFFFFFFFFFFFFFFFFFFFFFFF23
:102DC000FFFFFFFFE190189008E1E868E860FFFF6F
:102DD000FFFFFFFFFFFFFFFF030000800100C001B6
:102DE00000000C6003000000000080010000006093
:102DF000030000000000000000000060030000006D
:102E0000000000000000006003000000000000005F
:102E1000000000604B12499224499224499224698F
:102E20000300000000000000000000604B9204005E
:102E300000000000000092643B0000000000000061
:102E4000000000603B0090240900000000000060CA
:102E50003B000000000000000048926433000000C6
:102E600000244900000000600380244900000000A5
:102E7000000000600300000000000080244992640C
:102E80000300000000000000000000604B92244995
:102E900092244992244992646068086930636A6B9D
:102EA000651D0B06000F0017001E0615067BEFBD03
:102EB000F7DE7BCF4336230D181211D97BEFBDF718
:102EC000DE1011121314151617A2011FFFFFFFFFCA
:102ED000FFFFFFFFFFFFFFFFFFFFFFFFFFFFFFFF02
:102EE000E198689808E180188008019018E890FF40
:102EF000FFFFFFFF0300C000006CDBB66DDBB66DAB
:102F0000030000000000000000000060030000005B
:102F100000000000000000600300000000000092BC
:102F20002401006003000000000000000000926423
:102F30000B002000000008000000006003000000FB
:102F40009000008024000060930400000000000056
:102F5000000000600300200100000000004012603B
:102F60000300000000004012000000602309000080
:102F70000000000000000064030000009004000056
:102F8000240100600300240000000000C0009064E1
:102F90000300000000004002000000600300000089
:102FA00000000000000000604B92244992244992E6
:102FB000244992646061006228636C60651D0101B0
:102FC000000C01190110061E067B6F10401BAE910C
:102FD000B169040D51B6AD8B0A3523F7DE18191A05
:102FE0001B1C1D1E1FBD113FFFFFFFFFFFFFFFFF4B
:102FF000FFFFFFFFFFFFFFFFFFFFFFFF010868501C
:10300000080138687830FFFFFFFFFFFFFFFFFFFF79
:1030100003000000000000600000006003000000EA
:10302000000000000000006003000000000000003D
:1030300000000060030000000000000000000060CD
:103040000300000000000000000500604B922449CE
:103050009200802425490260030000000000000067
:103060000000806403000000000000800200006097
:1030700003000000000000499224096003902449E5
:10308000920000000000006003000000000000004B
:103090000000006093922449920040922401006451
:1030A0000300000300000000000000604B0000036C
:1030B000000C18000000006003800203000CD8B66A
:1030C0006D2D00604B9224DBB66DDBB66D499264CA
:1030D0006061006238636D606E0F0D1E010A061D8F
:1030E00007070C090C7BEFBDF7DE9B50431AD1722A
:1030F0002F80E2DE7BEFBDF7DE2021222123242377
:103100002561401F1878005800FFFFFFFFFFFFFFF9
:10311000FFFFFFFFFFFFFFFFE1601860080120389D
:103120006020FFFFFFFFFFFFFFFFFFFF0300000026
:10313000000000000000006003000000000000002C
:1031400000000060030000000000000000000060BC
:103150000300000000000000000000600300000009
:10316000000000000300006003000049002001800F
:1031700024090060031200000000030000009064B6
:1031800003000000000003000000006003000000D6
:1031900000000000204902604B0000000000000019
:1031A000000000600300204992244B922409006033
:1031B000030000000000330000000060030A00006C
:1031C00000000300000090640348120000000000AB
:1031D0002400006003000000000000000000006008
:1031E0004B9224499224499224499264606F007062
:1031F00028637160651D000F0611061E07010A0D88
:103200000B7BEFBDF77ED10922256A66BF05DADCAC
:103210007BEFBDF7DE262728292A2B2C2D6F161FC2
:10322000FFFFFFFFFFFFFFFFFFFFFFFFFFFFFFFFAE
:10323000FFFFFFFF0130406830217040A87041401F
:1032400068A04061C068E8C003000000006CDBB605
:103250006DDBB66D030000000000000000000060A0
:1032600003000000000000000000006003000000F8
:103270000020992449922461030000000000982452
:10328000499224690300802409249924499264699D
:103290004B020000000098044992246903000000DA
:1032A00000009824499220690B0000000000982437
:1032B000C9922469030000000024992449922469DA
:1032C0004B9224490200982049926469030000004F
:1032D000000098244992246103000000006C9B24A4
:1032E000C992246903000048020C0000000000603D
:1032F00003000000000C0000000000604B92244915
:10330000926CDBB66DDBB66D60611062406372601B
:10331000650F0D1E0314061B07130A1E0B7BEFBD62
:10332000F7DE7BEF3D0FD915CCBDF7DE7BEFBDF7A8
:10333000DE2E2F303132333435A2011FFFFFFFFF65
:10334000FFFFFFFFFFFFFFFFFFFFFFFFFFFFFFFF8D
:10335000017808E878E150405010018868E888FF5B
:10336000FFFFFFFF83011C800100D83100000060D7
:10337000030000000000183000000060030000009F
:103380000020190000008064030000000000180005
:103390000000006003000000000018000000006052
:1033A0004B02004892045802000000600300000035
:1033B000000018802401006443120000000018007F
:1033C00000000260030000490000180000000060D7
:1033D0000300000000005892040000600B00000091
:1033E00090041800000092640300004800001800D8
:1033F00000000060039000000000180024490060F5
:1034000003000000480E58020000006003000000A6
:10341000000C1800A00000604B92244992244992AD
:10342000244992646061006248636D73740F0D0DEE
:10343000020E0602081D0DFF0F0C3512B7456BE199
:10344000CD089972CF43B672CDEC40809C363738A8
:10345000393A3B3C3DA2A13F1078006800FFFFFFD6
:10346000FFFFFFFFFFFFFFFFFFFFFFFFE14868488F
:10347000080058587858019038A890FFFFFFFFFFC8
:1034800003060000000000000000006003000000D0
:1034900000000000000000600300000000000000C9
:1034A0000000006003000000000000000000006059
:1034B0000300000000000000000000604B12200923
:1034C0009024490224011260030000000000000063
:1034D00000000060030000000000000000008064A5
:1034E000031220094092240900000060030000003C
:1034F00000000000240112604B00000000000000EA
:1035000000000060030000000000000000000060F8
:1035100003122009902449022401126003000000D4
:1035200000000000000080640300000000000000B4
:10353000000000604B9224499224499224499264ED
:103540006061007550636D606501001001FF0F1F21
:103550000F1F0F1F0F7BEFBDF7DE16088537608E3C
:103560000430A36B72EFBDF7DE3E3F403F41424364
:1035700042A1213F09280864052A5008640549A092
:103580000864056AC80864050160189060008050EE
:103590009060FFFFFFFFFFFFFFFFFFFF0300000042
:1035A0008C2483E12449926403000000000003009E
:1035B000030000604B9204000000030000009264CE
:1035C000030C000000000300000000600300000086
:1035D00000004B120000006003000091244903002A
:1035E000204992644B1200000000030000000060BC
:1035F0000300000000004B92249200604B920000F8
:103600000000030000000060330000489224030023
:10361000000080644B12090000004B9224000078E7
:103620000300000000000300C0920060030000FFE0
:10363000FFFF3F00000000604B02000000000000A0
:103640000000906403000000000000000000006023
:10365000FFFFFFFFFFFFFFFFFFFFFFFF6076187711
:10366000506378797A0C0D15020E010C0612081EB3
:10367000017BEFBDF79E876CD2868B08B45D5C241E
:1036800072EEBDF7DE444544464748494881001F75
:10369000FFFFFFFFFFFFFFFFFFFFFFFFFFFFFFFF3A
:1036A000FFFFFFFF01483870480060507040014044
:1036B00068D020019028A888DBB60D000000000C1F
:1036C00000000060030000000000000A000000602D
:1036D0000300000000000000000000604B1200002A
:1036E0000000000000000060030000000000000077
:1036F00000000060038024490020F9FFFF090060FA
:1037000003000000000000000006806403000000C9
:1037100000000000000600604B00120000000000E6
:103720000006806403000000922449020005006046
:10373000030000006000000C000010600300480A55
:103740006000000A0000006003000000500000005C
:10375000000090644B0000000000000020090060A1
:103760000300000000000000000000604B922449AC
:1037700092244992244992646061007B587C6B7D5D
:103780007E010118001E01010413061E0D604E206B
:10379000D47665CF4336A313B4B92759E41DD7882F
:1037A000DC4A4B4A4C4D4E4F5023201F0A600838CC
:1037B00002291820642049A83064306BD03064049A
:1037C000017818C0780070389070E178689828FF08
:1037D000FFFFFFFF83011C800100D8810100006012
:1037E0000300000000000000000000600300000073
:1037F0000040020000000060030000000000000024
:1038000000000060030000000000000000000060F5
:103810004B020090240D9824490900600300000029
:10382000000C18000000006403002400000C1800C5
:103830000000006003020000000C180000489264C1
:1038400003000040920C1800000000600300040018
:103850000000581200000060030000000000180083
:10386000004800604B92040000001800A000506067
:1038700003000000920C18499224496003000000E4
:10388000000C1800000000604B922449926C5B927F
:10389000244992646061006248636D73740F0D0F78
:1038A00003100702061D0D1A053B924963DBAEECBF
:1038B00079C8060B91B6956B660702E4DC3637389B
:1038C000393A3B3C3DA2A13F1078006800FFFFFF62
:1038D000FFFFFFFFFFFFFFFFFFFFFFFFE14868481B
:1038E00008005858785801C830E0C8FFFFFFFFFFB4
:1038F000DBB66DDBB66DDBB66DDBB66D030E0000BF
:103900000000000000000060030E00000000000046
:1039100000000060030E2049922449922401926421
:10392000030E00000000000000000060030E000015
:103930000000000000000060030E20019204489285
:1039400000490264030E0000000000000000006057
:10395000030E00000000000000000060030E20497C
:103960000224019024019264030E00000000000074
:1039700000000060030E0000000000000000006076
:10398000030E20099004481220498064030E0000B1
:103990000000000000000060030E000000000000B6
:1039A000000000604B489224499224499224C96443
:1039B000607F007550636D8081010D1A030A061344
:1039C000091A090B0C7BEFBDF7DE7BBB487624059B
:1039D0003512F1DE7BEFBDF7DE5152535455565789
:1039E00058BD213F0A28086408FFFFFFFFFFFFFFC3
:1039F000FFFFFFFFFFFFFFFF013808E838008020CE
:103A0000E838E1A038D050009050E83803000000BA
:103A10000000000000000060030000000000000043
:103A200000000060030000000000000000000060D3
:103A30000300000000000000000000600300000020
:103A400000000000000000600300000000200700EC
:103A500000000060037200007200007200007260DB
:103A600003002007000000002007006003000000A2
:103A7000000000000000006003801C00801C00802B
:103A80001C00807C030000000000000000000060BB
:103A9000CB0100C80180244900C801600300000078
:103AA000000000000000006003002007000000008C
:103AB0000000006003000000000000000000006043
:103AC000DBB66DDBB66DDBB66DDBB66D6082208379
:103AD00050637884850F00170203081B071007FF47
:103AE0000F7BEFBDF7960A2F10F6026DA0667600E9
:103AF00078EFBDF7DE595A5B5C5D5E5F60BD215FAC
:103B00000C0800480009580020000BA8023802FFEA
:103B1000FFFFFFFFFFFFFFFFFFFFFFFFFFFFFFFFB5
:103B2000FFFFFFFFFFFFFFFF03006CDBB66DDBB69F
:103B30006DDBB66D03000000000000000000807F18
:103B400003000000000000000000807F030000244C
:103B5000499224499249927F030000060000000028
:103B60000000E07F4B920005000000000000E07FB5
:103B700003000000000000000009E07F0300400097
:103B8000900000000000E07F0312000000004002EF
:103B90000000E07F03000000000000000048E07F1C
:103BA0004B000000900000000000D07F03000000E8
:103BB000000040020000807F03802400000000001D
:103BC0002001807F03000000900000000000807F43
:103BD00003000000000000000000807F4B92244999
:103BE00092244992244992646086007B587C6B87BA
:103BF00088010319020C061A0EFF061E0D7BEFBD8D
:103C0000F7DE7BEF3D0FD90134B5F7DE7BEFBDF773
:103C1000DE6162636465666766A2211F0A482866E2
:103C20002429784066246BA8506820FFFFFFFFFF1F
:103C30000188689888FFFFFFFFFFFFFFFFFFFFFF7E
:103C4000FFFFFFFF03000000000000000000006015
:103C500003000000000000000000006003000000FE
:103C600000000000000000600300000000000000F1
:103C70000000006003000000000000000000006081
:103C80000B000400060C000024010060030000008B
:103C9000066C00000000006003100000066C0300CA
:103CA0000048926403000000066C1B0000000060E6
:103CB0009348922449922449922401600300000011
:103CC0000000000000000060030000C0960000003B
:103CD000004000604B9224090000000000000060DA
:103CE000030000000000001000400060030000001E
:103CF00000000000A02D00604B92244992244992BC
:103D00002449926460610089488A6D738B0C051E9A
:103D1000020D070100110AFF057BEFBDF73C644B64
:103D20007427216D9E2D4025B1EDBDF7DE68696ACF
:103D30006B6C6D6E6FA2011FFFFFFFFFFFFFFFFFA8
:103D4000FFFFFFFFFFFFFFFFFFFFFFFF014868903E
:103D5000080108503808019038B89000D028E8C809
:103D600003000000000000000000806D0300000060
:103D700000000000000000600300000000000000E0
:103D80000000006003000000000000000000006070
:103D90000300142880020500140500604B2449121A
:103DA0002049920049908064932C49122049920046
:103DB00049920069932449122009920049920169AD
:103DC000930049122091240149920069830049120D
:103DD000204992004992006993004912204992209B
:103DE000599200699300493220499224491200698E
:103DF000930049122049922449920069030000006F
:103E0000000000000000006003000000000000004F
:103E1000000092644B92244992244992244992646E
:103E20006061108C50638D60651D0118050F0701DE
:103E300009130A1A0B7BEFBDF7DE7B1EB22D88E457
:103E4000382AC9DE7BEFBDF7DE7071727374757648
:103E50007761363F0A184066402B5040600349980E
:103E60003040006CD8006004002868402801606879
:103E7000C860FFFFFFFFFFFFFFFFFFFF0300000021
:103E8000000000000000306003000000000000009F
:103E9000000000600300000000000000000000605F
:103EA00003000000000000000000006003000000AC
:103EB0000000000000000060031220099024490265
:103EC0002401926403000000000000000000006074
:103ED0004B00000000000000000000600300000034
:103EE00090244902240112600312200900000000FE
:103EF000000000600300000000000000000080647B
:103F00000300000000000000000000600312200910
:103F100090244902240112604B00000000000000C0
:103F200000000060030000000000000000000060CE
:103F30004992244992244992244992246061008E36
:103F400028636D60651D001001FF0F1F0F1F0F1FFD
:103F50000F7BEFBD37608E0430A36B52EF482A69A8
:103F600086ECBDF7DE78797A7B41424342BD373F2C
:103F70000B280868052A500868054CA008680569E0
:103F8000C808680500601890600080508860018053
:103F9000308860E180689060DB0000000000000075
:103FA000000000600300000000000000000000604E
:103FB000030000000000000000000060030000009B
:103FC000000000000000006003000000000000008E
:103FD000000000600312004892040000004992644F
:103FE000030000000000000000000060030000006B
:103FF00000000092000000604B00000080240000E0
:10400000004992640300000000000000000000600E
:104010000300000000000012000000604B120000CE
:10402000000000000049926403008024012449003C
:1040300000000060030000000000000000000060BD
:10404000DB0000000000000000000060DB9224495B
:1040500092244992644992646061006228636D60B1
:104060006501011E0101051E0CFF0F1F0F7BEFBD37
:10407000A55B20EEE72C89DB904622982EEEBDF75B
:10408000DE7C7D7E7F808182814E219F0B28406671
:10409000022A583866304980505004FFFFFFFFFF66
:1040A00001C018E8B801E030E8B0E0E848E8B8013D
:1040B0008068E868000000000000000000000000C8
:1040C00000000000000000000000000000000000F0
:1040D00000000000000000000000000000000000E0
:1040E00000000000000000000000DBB66DDBB66DD4
:1040F00000000000006CDB8001000060D83600008A
:10410000006CDB8001000060DBB66DDBB66DDB8030
:104110000100006003000000000000000000806457
:10412000030000000000000000000060234992240A
:104130004992244912800060030000285000288022
:10414000020010604B000000000000000000006052
:104150000380040000000000000000600300000075
:1041600000000000000000604B9224499224499214
:104170002449926460610062287C6D6065130517B4
:10418000051E060A0B0E0B130B7BEFBDF7DEF3903B
:104190005D50036B0710232271EFBDF7DE515253C0
:1041A0005483848586BB313F09C0306728FFFFFFF9
:1041B000FFFFFFFFFFFFFFFFFFFFFFFF013868B0BA
:1041C00038FFFFFFFFFFFFFFFFFFFFFFFFFFFFFFC6
:1041D0000028608F97CBD3878887898A8B8C8B8DBB
:1041E0008E8F1440017C8072666056665656516010
:1041F00051515666565680726660566656565160E4
:1042000051515656565680726660566656565160E3
:1042100051515666565680726660566656405666CE
:104220008066565656561010100A0A0A0A0A0A0ADA
:104230000A0A0A0A0A0A0A0A0A0A0A0A0A0A0A0ADE
:104240000A0A0A0A0A0A0A0A0A0A0A0A0A0A0A0ACE
:104250000A0A0A0A0A0A0A0A0A0A0A0A0A0A0A0ABE
:104260000A0A0A0A0A0A0A0A0A0A0A0A0A0A0A0AAE
:104270000A0A0A0A0A0A0A0A0A0A0A0A0A140A148A
:104280000A0A05050A80665656AB2B2BAB3333ABB7
:104290008080665660AB2B2BAB3030AB8888724C7D
:1042A0004CAB2626AB3030AB8888724C4CAB262604
:1042B000AB3333AB8080665640802020802B2B8030
:1042C0008080665640802020802626007272604CD6
:1042D0004C4C4C4C5B5633333333406666724C5611
:1042E0008080808081675757CB3333CB4040CB8170
:1042F00081675756C03030C04444C08989734D4DE2
:10430000C03030C04444C08989734D4DCB3333CB6A
:104310004040CB8181675741AB2B2BAB3333AB8113
:1043200081675741982626983030007373614D9904
:104330004D4D995C57CD3434CD416767734D57CBA4
:104340000081CB189351CE895119D49DE779AE677E
:10435000034A69437ED0797DCF720609329CE779A2
:1043600036E48931DF3741E2E961D4379DE77932BC
:10437000DD035299768299768650E7515A7636E473
:10438000E939DAF79D9BD67D5077A6A7EA395047E1
:1043900069996118E7799E12483DD0895119D49DD9
:1043A00022755DE4F94D9D064AD32900E7057D138A
:1043B000739D0E13425DE62DCBB29CE7799EE7001C
:1043C0000102030405060708090A0B0C090D0E0F6C
:1043D0001011121314150E1617180E191A1B1C1D86
:1043E0001E180E16091F0E12270C27182710272734
:1043F00027271A27212710271D000101010101028B
:10440000030303030303030303030303030303047B
:104410000505060303030303030701010101010866
:104420000303030303090A0B030303030303030149
:104430000C0C010303030D0E0F10010111011203F7
:10444000030303030313141516171818181818017B
:104450000C0C011919191A1B1C031D1E1F20030324
:104460000303030303030303030321212121210188
:10447000010101222222232425030303260303032F
:104480000303030303032728292A01010101010172
:104490000101010101010101012728292B2C03033E
:1044A00003030303030301010101010103030103EA
:1044B00003030303030303030101012D2E2F2A30FD
:1044C0002C313233343501010101010103030103B1
:1044D0000303030303030303013636363636363649
:1044E0003636363636363636363636360303360305
:1044F0000303030303030303360001020304050659
:10450000000708090A0B0C0D0E0F101112131415D9
:10451000161718191A1A1B1C1D001E1F20212223F2
:10452000002425262728292A2B2C2D2E2F30313206
:10453000333435361A1A373839003A3B3C3D3E00A1
:1045400000003F1A404142434445464748494A4BD0
:104550004C4D4E4F1A1A50515200535455565758FD
:1045600000595A5B5C5D5E5F6061626364656667AB
:1045700068696A6B1A1A6C6D6E00006F70717273E5
:10458000007475767778797A007B7C7D7E7F808178
:10459000828384851A1A8687880000891A8A8B8C00
:1045A000008D8E8F90919293009495969798999AFA
:1045B0009B9C9D9E1A1A9FA0A10001020304050660
:1045C0000708090A0B0C0D0E0F0F1011121314150A
:1045D0001617011801191A121B1B1C1D1E04001F9F
:1045E00020212223242500000000262728292A2B09
:1045F0002C2D262E2F3031323334263527363733C3
:104600003839263A3B3C3D3E263F40413E424343FB
:104610004445000000000000000046474748494A62
:104620004B4C4D4E4F0000000046505151525354D8
:104630005556575859000000005A5B5C5C5D5E5F40
:1046400060616263640000000065666768696A6BA8
:104650006C6D6E6F70000000007172737475767708
:104660007879797A7B00000000007C7D7E7F8081F4
:10467000000000000000000000008283848586871F
:104680008800000000000000000000898A8B8C8DEB
:104690008E000000000000000000008F90919293B7
:1046A000940000000000000000000000959697981C
:1046B00099000000000000000000009A9B9C9D9E55
:1046C0009F00000000000000000000A0A1A2A3A421
:1046D000A500000000000000000000A6A7A8A9AAED
:1046E000ABAC00000000000000ADAEAFB0B1B2B3A3
:1046F000B4B500000000000000B6B7B89B9BB9BA83
:10470000BBBCBD000000000000BEBFC09B9BC1C27F
:10471000C39BC4C5C6C7C80000C9CACB9BCCCDCEFD
:10472000CFD0D1D2D39BD4D581D6D7D8D9DADBDCC0
:10473000DDDEDFE09BE1E2DAE3E4E5E6E7E8E9EA93
:10474000EBECED9BEEEFB29BF0F1F2F3F4F5F6F744
:10475000F8F9FAFBFC9B9BFDFE1A160B2325171F8D
:104760001D130D251D1E0B1C1E00160F200F1626D7
:10477000251C0F1D0F1E0012131112001D0D191CF8
:104780000F12131112001D0D191C0F1D000D191809
:10479000111C0B1E1F160B1E1319181D2725252172
:1047A0001316162300170B0E0F00131E000C0B0D13
:1047B00015251219170F000B1613200F000B180EDA
:1047C00000210F1616250B1616001E120B18151DAC
:1047D000001E190023191F272525001E120B18156E
:1047E0000023191F001D1900171F0D1225000000BE
:1047F00010191C001A160B231318112700000000B3
:1048000011241FBECFEFD8E0DEBFCDBF11E0A0E086
:10481000B1E0E4EFF9E702C005900D92AC33B107C7
:10482000D9F727E0ACE3B1E001C01D92A03CB2078C
:10483000E1F70E94842F0C94F83C0C940000EF9256
:10484000FF920F931F93CF93DF93C82FD0E0C45EE6
:10485000D84FE6EDF1E444918E010C5011098AE045
:10486000E82EF12CCB01B7010E94CA3C282F220F61
:10487000220F30E021543C4BF9018491840F88834E
:104880003196E491E40FE983F9013296E491E40F63
:10489000E8A32D5F3F4FF9012491240F29A322970C
:1048A000C017D107F9F6DF91CF911F910F91FF90BB
:1048B000EF900895AC0120917F03FC01EE56FC4F70
:1048C0009081233181F44038514068F4933009F4E9
:1048D0003AC09F33A1F19633A1F1913091F189EC67
:1048E000890F883050F16CE171E0269FA001279F6D
:1048F000500D1124405A534D30E020E0692F687F5D
:10490000822FFA01E20FF31FE491223011F02430DC
:1049100011F46E17C9F0E917B9F02F5F3F4F293036
:10492000310571F7E3EDF1E4E4919E1760F0F0E0FA
:1049300037969E171F0609F034F489E0089588E041
:10494000089583E0089580E00895CF93DF93982F32
:104950004150F0F0F901A491A53229F46E5F982F2F
:104960002F5F3F4FF5CFB0E0FD01E754FA4BE491E4
:10497000F0E26F9FE0011124CE56DC4FC90FD11D2C
:10498000E883FD01E751FA4BE491E8A39F5FE8CF8C
:10499000DF91CF9108952F923F924F925F926F9245
:1049A0007F928F929F92AF92BF92CF92DF92EF92BF
:1049B000FF920F93CF93DF93602E712CE8E0F0E02D
:1049C000E619F709AFEFB0E02D0102C05594479406
:1049D000EA95E2F77C01D0E0C0E0D12CC12C90E058
:1049E000190181E0281A3108FA01EC0DFD1DE4914E
:1049F000D201092E02C0AA0FBB1F0A94E2F7F0E011
:104A0000AE23BF23092E02C0B595A7950A94E2F7FD
:104A1000EA2F900F983048F1C215D30530F5EFEF2B
:104A2000CE1ADE0AFA01EC0DFD1DB491A92EB12CAF
:104A30004501F8E08F1A9108EFEFF0E002C0EE0FA9
:104A4000FF1F8A94E2F74F0180949094EB2FE821A6
:104A5000A618B70888E0882E912C8A189B0801C0F8
:104A6000EE0F8A94EAF7EA2B98506115710521F050
:104A7000E60FF72FF11DE491D701EC932196BFEFDC
:104A8000EB1AFB0A2C173D0709F0AECFDF91CF914F
:104A90000F91FF90EF90DF90CF90BF90AF909F90DD
:104AA0008F907F906F905F904F903F902F900895E0
:104AB000E9E7F3E09081918386B18F73808323B11E
:104AC00040E4249F9001112420743327822B80839B
:104AD00029B140E2249F9001112420783327822BB2
:104AE000808389278283089520917F03E2E2F4E0A6
:104AF00084E0233119F493E08C3008F09EEBAF0191
:104B000040515109DF013E9111963C931197A41732
:104B1000B507C9F79C93AF01415F5F4FDF01119665
:104B20003C9111973D934A175B07C9F797878F5FB1
:104B3000B0968032F1F60895E5EDF1E4E4918091CC
:104B40007003282F30E093E0359527959A95E1F78B
:104B5000422FA7EBB3E090E05EEB941708F45E2FD2
:104B60005D939F5F9A31C1F74A3138F4877029F01D
:104B700029543C4F8E0FF90180830895609174038E
:104B800070917503809128039091290386179707E8
:104B900020F4709329036093280381E00E941F246E
:104BA000609128037091290383E10C941F2420E273
:104BB000829FC00111248E569C4F615040F0FC0131
:104BC00021E2215011F04193FCCF8096F6CF089559
:104BD0000F931F93CF93DF93C62F90E2899F80019D
:104BE00011240E561C4FD2E0D60F4EEB6D2F0E94B3
:104BF000D725F80181E297EC815011F09193FCCF19
:104C0000EC2FF0E0319685E0EE0FFF1F8A95E1F77B
:104C1000E00FF11FDF0181E298EC815011F09D93CC
:104C2000FCCF8D2FD80199EC815018F09C93909671
:104C3000FBCFD8015F968AECD15018F08C939096F8
:104C4000FBCF83ECD8018C9384EC5F968C9385EC3E
:104C5000808386EC878FDF91CF911F910F9108950C
:104C60000F931F93CF931092340184ED80937603BA
:104C700082E080930201C0918003C1112AC040E00C
:104C80006CE184E00E94D72580E28C1B90E1899F33
:104C9000B001112420EB30E0803209F43BC0D9018F
:104CA000A60FB71FAA0FBB1FAE5CBD4F50E040E080
:104CB000890107541A4BF801E40FF51FE491ED93B5
:104CC0004F5F5F4F40315105B1F7205F3F4F8F5F1E
:104CD000E3CFC131C8F280E690E0DC01AA0FBB1F30
:104CE000AA59BC4F30E020E0AC0147545A4BFA01BE
:104CF000E20FF31FE491ED932F5F3F4F2031310519
:104D0000B1F74096803B910541F780E0CF911F912C
:104D10000F910895CF5FC0938003C131E1F681E028
:104D2000F5CF40915E0350E0E9E1F1E030E020E0B2
:104D30007FEFA181AF3F21F16623B9F0DA01022EA6
:104D400002C0B595A7950A94E2F7A0FF0EC0D9015D
:104D5000A45BBC4F9C91980F9C93D901A05FBE4F60
:104D60009C91953F10F4980F9C939081980F90839D
:104D7000935D923228F47183922F9295907F908365
:104D80002F5F3F4F33962930310599F608951092E1
:104D90006A03109269032091660330916703281714
:104DA000390709F117BC1092B300009749F0569AE1
:104DB000239A8130910539F02CE025BD2BE006C007
:104DC00056982398F9CF2BE025BD2CE02093B10015
:104DD00090936703809366031092650382E080934B
:104DE0000F01109264030895282F30E0F901EE0FAF
:104DF000FF1FE20FF31FE75EFE4F4083618323E056
:104E0000829FA0011124475E5E4F22E3829FC00172
:104E1000112460E079E18E599E4F0C94F22C462FBC
:104E2000E0913201E695EF5FE37090916D0394FDA0
:104E3000EC5FF0E0E952FE4BE491E0933301682F20
:104E400088E00C94F426AF92BF92CF92DF92FF924B
:104E50000F931F93CF93DF9385E0A82E81E0B82EA8
:104E600090E1C92E91E0D92E0CE413E0D0E0C0E02F
:104E7000FF24FA94F50111925F01F601F1926F019E
:104E8000F801F1928F014D2F6FEF8C2F0E94F426C5
:104E9000CF5FDC5EC93071F7DF91CF911F910F9129
:104EA000FF90DF90CF90BF90AF900895CF93DF93A6
:104EB000EC018430910509F44EC0C0F481309105B5
:104EC00009F1029751F11092800310928103109220
:104ED0008403109263031092820310928303D09391
:104EE0008603C0938503DF91CF91089586309105A5
:104EF00009F448C0B0F1079731F783E090E00E94D1
:104F0000C726E1CF0E94582581E090E00E94C72685
:104F100061E080E00E94E825D6CF1092780382E01D
:104F200090E00E94C72661E080E00E94E825E4ED61
:104F3000F1E4E4918CE08E0F8093B30384E18E0F53
:104F40008093B403E35EE093B503109276038FEF92
:104F500080933401B8CF109276038FEF80933401A1
:104F6000CCCF83E090E00E94C726109270030E948D
:104F7000232710927D0310927C0310926A031092F3
:104F80006903A1CF109276038FEF8093340183E001
:104F900090E00E94C7264EEB60E280E00E94D72599
:104FA00088E791E09093370180933601E7EDF1E4D3
:104FB000E491E0931B0148E66AE780E00E94F42652
:104FC000E1EEF1E4E491E0931E0148E768E781E057
:104FD0000E94F426E0EEF1E4E491E093210140E048
:104FE0006FEF82E00E94F426109268036CCF2F923C
:104FF0003F924F925F926F927F928F929F92AF9269
:10500000BF92CF92DF92EF92FF920F931F93CF93B5
:10501000DF9300D01F92CDB7DEB780917C039091D3
:105020007D039C012B7F3B832A832330310509F0CC
:1050300070C04EEB64E08BE10E94D7254A815B8112
:1050400050937D0340937C0380912A032091360185
:1050500030913701281B31093093370120933601F5
:1050600061E00E94912640E86FEF88E00E94F426FC
:105070002091360130913701C90187709927892B1A
:10508000B9F080E00F900F900F90DF91CF911F91BA
:105090000F91FF90EF90DF90CF90BF90AF909F90D7
:1050A0008F907F906F905F904F903F902F900895DA
:1050B00043E0369527954A95E1F7C90102976CE1DF
:1050C00070E00E94CA3CFC0155E0EE0FFF1F5A95AC
:1050D000E1F7EE5EFB4FCF0180964EEB41938E17CA
:1050E0009F07E1F780912A03843018F4880F80939A
:1050F0002A032230310529F6E2E7F7E081E29EEB50
:10510000815011F09193FCCF10927D0310927C039B
:10511000B8CF009709F065C082E090E090937D03DE
:1051200080937C031092680384E080932A0388E7CD
:1051300091E0909337018093360120917F038CE1B9
:1051400091E0289F7001299FF00C1124A7014B5872
:10515000534D05E020E230E070E060E082E396E04D
:105160000E94CB24E4EDF1E4E491A2E3B6E022E571
:1051700036E09CE09E0F8D91AD0141505109890FA1
:10518000FA0180832A173B07B1F797012559334D60
:105190003B832A83A8E3B3E0EA81FB8124912F318A
:1051A00078F011961C921E922A813B812E5F3F4F10
:1051B0003B832A83129633E0A234B30769F761CFA9
:1051C000EA81FB813196E491F0E0349635E0EE0F10
:1051D000FF1F3A95E1F7E20FF11D1196FC93EE9354
:1051E000E3CF8230910509F045C140912A034983FC
:1051F0000091360110913701041B110910933701FA
:105200000093360160E0842F0E94912607701127D9
:10521000012B09F036CF5981543018F4550F5093B3
:105220002A03109168031F5F10936803123008F47B
:1052300028CFF0907F038CE191E0F89EF001F99E79
:10524000F00D1124FB83EA8381E190E0811B910939
:105250002CE0289FA001299F500D11244E0F5F1FA5
:105260004056544DBF01605A734D85E1811BF0E2F9
:105270008F9FC001112403E020E230E08E569C4F46
:105280000E94CB24113109F0FCCE23E1F21641F04B
:10529000E2E7F7E081E29FEF815011F09193FCCFBC
:1052A0000A811B810C56134DEA81FB81EF56F34DA9
:1052B000849180936C033196349030926D03EA812F
:1052C000FB81ED56F34DE491E0936B03EA81FB81A2
:1052D000E757F34DA4E4B3E0CF01089624912D9352
:1052E0003196E817F907D1F710925E031092430345
:1052F00010924203332D3072332E0E9423271B83DA
:105300000A83F5E54F2EF3E05F2E05E011E0A9E1F9
:105310008A2EA1E09A2EB0E1CB2EB1E0DB2E8CE4F8
:10532000E82E83E0F82EB12CA12C66246394712C16
:10533000222423948A2DEA81FB8194919F3F09F4D2
:1053400058C0A98233962491F6012083EA81FB811B
:1053500034963491F7013083692F70E0DB0155E01A
:10536000B595A7955A95E1F75A2FE3E0759567959E
:10537000EA95E1F7762F73709770EA81FB81319699
:105380006491EA81FB8132964491485071113CC18D
:10539000332021F0A43010F454E05A0F3250F701BA
:1053A00030832C5FF6012083252F220F620F9F5F31
:1053B000332009F446C0523008F046C0F80190830B
:1053C000733009F043C09301098002C0220F331FDC
:1053D0000A94E2F790914303922B90934303208227
:1053E000EFEDF1E49491F4019283F20150830E9475
:1053F000F426FFEFAF1ABF0A2A813B812B5F3F4F94
:105400003B832A833FEF431A530A0F5F1F4F43E04A
:10541000840E911C5FEFC51AD50A8FEFE81AF80ABF
:1054200098E0A916B10409F085CF81E080932A03A2
:1054300084E090E090937D0380937C03109281033D
:1054400020CE543008F4BACF9195B8CF723061F4C1
:105450009301098002C0220F331F0A94E2F7909152
:105460004203922B90934203E52FF0E0EC5BFC4F5C
:105470009081B9CF8430910511F5809136019091DA
:105480003701893C910550F0049790933701809340
:10549000360160E084E00E949126F3CD85E090E043
:1054A00090937D0380937C0384E08093810310922A
:1054B000800380913501846080933501E2CD853091
:1054C000910589F580918103E82FF0E0FB83EA8361
:1054D00020913601309137012E0F3F1F3093370155
:1054E0002093360160E081950E949126809180038F
:1054F0008F5F833019F080938003C3CD10928003B7
:105500002A813B813595279520938103232B09F030
:10551000B8CD86E090E090937D0380937C0381E09A
:1055200080938103AECD069709F0ABCD1091810336
:105530008091360190913701811B91099B838A8369
:10554000909337018093360160E0812F0E9491266D
:10555000809180038F5F843071F610928003110F69
:1055600010938103183009F08CCD87E090E0909380
:105570007D0380937C0320916D03622F70E0CB014B
:1055800095958795877024FF02C08C5F87709091F6
:105590006C0323E0660F771F2A95E1F7262F28700A
:1055A000692F629566956770620F660F660F660FCA
:1055B000EA816E1B6851880F8670990F990F990FB9
:1055C0009250890F0E940F2710926C0380917F03E5
:1055D0008331C1F4A2E1B4E090E080E0FC01E75047
:1055E000FC4BE491ED9301968115F1E09F07B1F733
:1055F00081E28093340188E68093760381E0809392
:10560000020140CD81E03ECDB0915E03F3010A2C52
:1056100001C0EE0F0A94EAF7EB2BE0935E032A5DDC
:10562000F60120833A5DF7013083332009F409CF76
:10563000563008F4C3CE08CF1F920F920FB60F92C8
:1056400011242F933F938F939F93AF93BF93809198
:105650008E0390918F03A0919003B09191033091AC
:105660008D0323E0230F2D3758F50196A11DB11DA1
:1056700020938D0380938E0390938F03A0939003C8
:10568000B09391038091890390918A03A0918B0339
:10569000B0918C030196A11DB11D80938903909355
:1056A0008A03A0938B03B0938C03BF91AF919F911A
:1056B0008F913F912F910F900FBE0F901F901895D3
:1056C00026E8230F0296A11DB11DD2CF1F920F9283
:1056D0000FB60F9211242F933F934F935F936F93C5
:1056E0007F938F939F93AF93BF93EF93FF9380919B
:1056F00084009091850090933503809334038091CA
:10570000320390913303C09709F05AC0809136015B
:1057100090913701382F3770309331032091340145
:10572000211104C0209102012093300320913603FF
:1057300043E0969587954A95E1F760E270E0621B39
:1057400071090E94CA3C2150820F80932F0320E2EE
:10575000829FC00111248E569C4F90932E038093FC
:105760002D0320913003832F330F990B982F882717
:1057700030E0322F2227330F330F330F820F931F66
:1057800080509F4F90932C0380932B038091320382
:10579000909133038F528093240310922703FF913B
:1057A000EF91BF91AF919F918F917F916F915F9199
:1057B0004F913F912F910F900FBE0F901F90189512
:1057C0002091000130910101409134035091350343
:1057D00060912B0370912C0380912D0390912E03E7
:1057E0000E94282D80913203909133038F52809331
:1057F00024032091240380910301909104010897D0
:1058000028171906C9F48FEF809331038091300374
:1058100090E0982F8827990F990F990F805090400A
:1058200090932C0380932B0310922F0382E993E033
:1058300090932E0380932D03809124039091340143
:1058400089132BC08F3F21F0809102018093300398
:105850002091340330913503809100019091010132
:105860002817390740F480913403909135039093C1
:1058700001018093000180913203909133038732BC
:105880009140A1F480916F008B7F80936F00809195
:1058900088038F5F8093880382CF90912403809147
:1058A00076039813D5CF10923003D2CF8091310375
:1058B0008F5F80933103883061F5109231038091BE
:1058C000300390E0982F8827990F990F990F8050F7
:1058D0009F4F90932C0380932B0380912F038F5F16
:1058E00080932F03803279F48091360380932F03C5
:1058F00020E2829FC00111248E569C4F90932E036C
:1059000080932D034CCF80912D0390912E03809690
:10591000F5CF80912B0390912C03939590932C03BA
:1059200080932B033CCF1F920F920FB60F9211243E
:105930002F938F939F93809132039091330301961D
:1059400090933303809332038833914091F484EB36
:1059500093E0909389008093880010923303109213
:1059600032039F918F912F910F900FBE0F901F9038
:1059700018958091320390913303089739F48AE4A3
:1059800090E09093890080938800EBCF8091320360
:1059900090913303C09729F780916F0084608093C2
:1059A0006F00DFCFF999FECF41BD50BDFA9AF99A49
:1059B0000895552740E041BD50912803F3DF5091F1
:1059C00029034395EFDF089540E041BD41BDF89ABA
:1059D00050B550932803439541BDF89A50B5509364
:1059E00029030895FA01AE01EC0121912993219137
:1059F00030912503832F8770281B322F36953695DB
:105A00003695399327703191FB0160E21F920F9216
:105A1000369FE00DF11D0F901F9030E1AA27859170
:105A200088838591888BA8A32A1769F0822F889490
:105A300098819795988398899795988B98A1979531
:105A400098A38A95A9F7C3953A9549F7EA0108956D
:105A50002395421700F02395421700F02395421733
:105A600000F0549ADC0198E08D91FB01E80F44911D
:105A700080914001482B00004093C6008D91FB01AE
:105A8000DF939093C1005498CF93D2E0E80F249114
:105A900080914101282B2093C6001F93CAE28D916B
:105AA000FB01E80F249180914201282B0F93209352
:105AB000C6008D91FB01E80F249180914301282BB2
:105AC000409124032093C6008D91FB01E80F24919F
:105AD00080914401282B000000002093C6008D9186
