:020000040000FA
:100000000C9480050C949D050C949D050C949D0505
:100010000C949D050C949D050C949D050C949D05D8
:100020000C949D050C949D050C949D050C949D05C8
:100030000C9408060C94CD060C949D050C949D051B
:100040000C94BE050C949D050C949D050C949D0587
:100050000C949D050C949D050C949D050C949D0598
:100060000C949D050C949D0500000000000000000C
:100070000000000000000000000000000000000080
:100080000000000000000000000000000000000070
:100090000000000000000000000000000000000060
:1000A0000000000000000000000000000000000050
:1000B0000000000000000000000000000000000040
:1000C0000000000000000000000000000000000030
:1000D0000000000000000000000000000000000020
:1000E0000000000000000000000000000000000010
:1000F0000000000000000000000000000000000000
:1001000003C00000F0003C000F00000000041001DC
:10011000040041001040000140018000601806000A
:1001200000000000000000000000000012814800F4
:1001300004A0520001281480004A0520008000001D
:100140004000002000001000000800000400000231
:1001500000000100020000010000008000004000DB
:100160000020000010000008000004001004000837
:1001700002000401000200800100400080200040D5
:1001800010002008003000001800000C00000600DD
:100190000003000001800000C0000060003000008B
:1001A0001800000C000006000003000001800000A1
:1001B000C00000600000000000000000000000001F
:1001C000000000000000000000000000000000002F
:1001D000000000000000000000000000000000001F
:1001E0000000000060010400F018000C000600038D
:1001F00000018000C000600030000000000000002E
:100200001FF80007FE01FF807FE08187E1122400D4
:1002100088012240088041408103C000F03C0F006B
:1002200007E00001F800007E00001F8008061000B3
:1002300002018400008061000020184001C000001D
:10024000E000007000003800001C00000E000007F5
:1002500000000380001000000800000400000200FD
:1002600000010000008000004000002082190041D1
:100270000C802086401043200821900410C80208FA
:1002800064010432887800223C00221E00088F009E
:100290000887800223C00221E00088F01078000463
:1002A0003C00041E00010F000107800043C0004114
:1002B000E00010F0107838787C7C3C4438044440EE
:1002C000444438783878387C44444444447C38107A
:1002D000387C087C1C7C383808200000101038005E
:1002E0000007E000F0008807FE3C001E000F00073A
:1002F0008003C001E000F000780000000000000072
:100300003FFC000FFF03FFC0FFF0C3CFF317F40162
:10031000FC017F401FC04141C107E001F87E1F8002
:100320001FF80007FE0001FF80007FE051E300009E
:100330001478C000051E300001478C0001C0000089
:10034000E000007000003800001C00000E000007F4
:100350000000038002A00001500000A8000054002B
:10036000002A00001500000A8000054010C00008A7
:100370006000043000021800010C000086000043F9
:10038000000021808CFC00237E00233F0008DF80DA
:1003900008CFC00237E00233F0008DF810FC0004F3
:1003A0007E00043F00011F80010FC00047E00043B2
:1003B000F00011F8284444444040404410044840B0
:1003C0006C4444444444441044444444440444304D
:1003D0004404184020044444101000005410440009
:1003E000001FF801F801FC0FFF7E003F001F800F87
:1003F000C007E003F001F800FC000000000000006E
:10040000399C000E670399C0E670C3CE731DDC03F0
:100410007601DDC03760C1C3610DB0036CDB36C04F
:100420003FFC000FFF0003FFC000FFF003F9C8000E
:1004300000FE7200003F9C80000FE7201FFC000FB1
:10044000FE0007FF0003FF8001FFC000FFE0007F08
:10045000F0003FF812000009000004800002400094
:10046000012000009000004800002400020200016A
:100470000100008080004040002020001010000893
:100480000800040457B60015DB0015ED800576C0A2
:10049000057B60015DB0015ED800576C1DB600069B
:1004A000DB00076D8001B6C001DB60006DB0007637
:1004B000D8001B6C44444044404040441004504029
:1004C00054644444444440104444442828084C1094
:1004D00004082878400844442008007C38100800AC
:1004E000003FFC036C03760E67DB006D8036C01B9B
:1004F000600DB006D8036C01B600000000000000DB
:100500003FFC000FFF03FFC0FFF0C3CFF31FFC074A
:10051000FF01FFC07FF0C1C7F10FF003FCFF3FC038
:100520006DB6001B6D8006DB6001B6D80754E40091
:1005300001D5390000754E40001D53903FFE001F4D
:10054000FF000FFF8007FFC003FFE001FFF000FF87
:10055000F8007FFC01B00000D800006C00003600FD
:10056000001B00000D800006C00003604B31002519
:10057000988012CC4009662004B310025988012CDF
:10058000C400966223FE0009FF0008FF80027FC0BE
:10059000023FE0009FF0008FF80027FC13FE0005EB
:1005A000FF0004FF80017FC0013FE0005FF0004FCB
:1005B000F80017FC447840447878407C1004604090
:1005C0005454447844783810444454101010541053
:1005D000181848047810383C400400001010107CB3
:1005E000006DB603FC07FF0FFFFF007F803FC01FB9
:1005F000E00FF007F803FC01FE000000000000001F
:10060000066000039C00660039C00003C00FF805B7
:10061000FD00FF805FD08085D002400168241680F5
:10062000FFFF003FFFC00FFFF003FFFC11F1800050
:10063000047C6000011F18000047C6003FFE001F39
:10064000FF000FFF8007FFC003FFE001FFF000FF86
:10065000F8007FFC45A80022D400116A0008B5000C
:10066000045A80022D400116A0008B5021C40010B6
:10067000E200087100043880021C40010E2000874F
:100680001000438820B400082400082D000209004F
:10069000020B400082400082D000209028B4000A63
:1006A00024000A2D00028900028B4000A24000A213
:1006B000D00028907C44404440404C4410045040BA
:1006C000444C4440545004104444542810206410B6
:1006D00020047C04442044042008007C38281000B6
:1006E00000FFFF009005FD019824002D0009000B7C
:1006F00040024002D0009000B40000000000000062
:100700000DB000066600DB006660000660041005A0
:1007100005004100505000055005A002045A204039
:10072000399C000E67000399C000E67040A31000DA
:100730001028C400040A310001028C403FFE001F53
:10074000FF000FFF8007FFC003FFE001FFF000FF85
:10075000F8007FFC1FE4000FF20007F90003FC80A3
:1007600001FE4000FF20007F90003FC81FF0000FF7
:10077000F80007FC0003FE0001FF0000FF80007F7F
:10078000C0003FE0210200085A00084080021680A5
:100790000210200085A00084080021684502001195
:1007A0005A001140800456800450200115A0011405
:1007B0000800456844444444404044441044484090
:1007C000444444404848441044286C441040441079
:1007D00040440844442044081010000054440000E1
:1007E00000399C01680505036C5A00408016801092
:1007F0002005A004080168010200000000000000BC
:10080000300C00030C0300C030C0C3C3C308080091
:10081000D80080800D808080800A500108A510805B
:100820001008000402000100800040201110800028
:100830000444200001110800004442003FFE001F54
:10084000FF000FFF8007FFC003FFE001FFF000FF84
:10085000F8007FFC3FF5001FFA800FFD4007FEA067
:1008600003FF5001FFA800FFD4007FEA37F2001B0E
:10087000F9000DFC8006FE40037F2001BF9000DFE1
:10088000C8006FE420840008A50008210002294068
:10089000020840008A500082100022944484001113
:1008A000A500112100046940044840011A500112BA
:1008B00010004694447838787C403C443838447C76
:1008C000444438403444381038104444107C38389C
:1008D0007C38083838203870082000001044100098
:1008E000FF1008029400D80C03A50021002940083D
:1008F000400A500210029400840000000000000032
:1009000001800F801F000D000F800F0006000F00F8
:100910001F801F803DC03EC00F001D801B801DC07A
:1009200001800F801F000D000F800F0006000F00D8
:100930001B801B801B801D800F0006000600070027
:1009400001800F801F000D000F800F0006000F00B8
:100950001F801F803DC03EC00F001D801B801DC03A
:1009600001800F801F000D000F800F0006000F0098
:100970001F803FC07FE06F600F801DA030E03840D7
:10098000060007C003E002C007C003C0018003C027
:1009900007E00FF01FF81BD807C016E01C300870E6
:1009A000060007C003E002C007C003C0018003C007
:1009B00007E007E00EF00DF003C006E007600EE070
:1009C000060007C003E002C007C003C0018003C0E7
:1009D00007E00760076006E003C001800180038034
:1009E000060007C003E002C007C003C0018003C0C7
:1009F00007E007E00EF00DF003C006E007600EE030
:100A000000000000000000000000000000000000E6
:100A100000000000000000000000000000000000D6
:100A200000000000000000000000000000000000C6
:100A300000000000000000000000000000000000B6
:100A400000000000000000000000000000000000A6
:100A50000000000000000000000000000000000096
:100A60000000000000000000000000000000000086
:100A70000000000000000000000000000000000076
:100A80000000000000000000000000000000000066
:100A90000000000000000000000000000000000056
:100AA0000000000000000000000000000000000046
:100AB0000000000000000000000000000000000036
:100AC0000000000000000000000000000000000026
:100AD0000000000000000000000000000000000016
:100AE0000000000000000000000000000000000006
:100AF00000000000000000000000000000000000F6
:100B000011241FBECFEFD8E0DEBFCDBF11E0A0E0C3
:100B1000B1E0ECEAF8E102C005900D92A630B10711
:100B2000D9F727E0A6E0B1E001C01D92A038B207D6
:100B3000E1F70E94E6090C94540C0C94000080919B
:100B40003303809334032C9A2C9898E02A98809150
:100B50003303880F8093330323B125FB222720F929
:100B6000820F809333032A9A915081F78091330347
:100B70009091340389278093350308951F920F9233
:100B80000FB60F9211242F933F938F939F93AF93A0
:100B9000BF9380915E0790915F07A0916007B0912D
:100BA000610730915D0723E0230F2D3758F501963B
:100BB000A11DB11D20935D0780935E0790935F0791
:100BC000A0936007B09361078091590790915A07ED
:100BD000A0915B07B0915C070196A11DB11D8093A8
:100BE000590790935A07A0935B07B0935C07BF9196
:100BF000AF919F918F913F912F910F900FBE0F90CA
:100C00001F90189526E8230F0296A11DB11DD2CF83
:100C10001F920F920FB60F9211242F933F934F9371
:100C20005F936F937F938F939F93AF93BF93CF9374
:100C3000DF93EF93FF93C0918400D0918500809162
:100C4000310390913203C09709F043C0809139037A
:100C500090913A03282F27702093300333E0969524
:100C600087953A95E1F78F71992780932F0345E097
:100C7000880F991F4A95E1F7855C9C4F90932E034E
:100C800080932D03822F220F990B982F8827805055
:100C90009F4F90932C0380932B038091310390916D
:100CA00032038F528093650110926401FF91EF919E
:100CB000DF91CF91BF91AF919F918F917F916F9174
:100CC0005F914F913F912F910F900FBE0F901F900A
:100CD0001895209100013091010160912B037091D2
:100CE0002C03AE0180912D0390912E030E94660784
:100CF0008091000190910101C817D90720F4D09389
:100D00000101C093000180913103909132038F5211
:100D10008093650180916501809131039091320348
:100D20008832914059F480916F008B7F80936F00DF
:100D3000809156078F5F80935607B8CF809130031C
:100D40008F5F809330038830F1F41092300380E09D
:100D500091E090932C0380932B0380912F038F5F5E
:100D600080932F03803249F410922F038BE393E09A
:100D700090932E0380932D0399CF80912D03909112
:100D80002E038096F5CF80912B0390912C039395A1
:100D900090932C0380932B0389CF1F920F920FB651
:100DA0000F9211242F938F939F93809131039091F1
:100DB000320301969093320380933103883391403C
:100DC00091F484EB93E090938900809388001092D3
:100DD0003203109231039F918F912F910F900FBE8C
:100DE0000F901F90189580913103909132030897CE
:100DF00039F48AE490E09093890080938800EBCFE7
:100E00008091310390913203C09729F780916F0050
:100E1000846080936F00DFCFF999FECF41BD50BD54
:100E2000FA9AF99A0895552740E041BD5091620120
:100E3000F3DF509163014395EFDF089540E041BD3A
:100E400041BDF89A50B550936201439541BDF89A5F
:100E500050B5509363010895DF93CF93FA0141E0B9
:100E60005527EC0121912993219130916701832F1E
:100E70008770281B322F3695369536953993277013
:100E80003191FB0160E21F920F92369FE00DF11D40
:100E90000F901F9030E1859188838591888B58A3AE
:100EA000251769F0822F889498819795988398895F
:100EB0009795988B98A1979598A38A95A9F7C40FB1
:100EC000D51F3A9541F7CF91DF91089523954217A9
:100ED00000F02395421700F02395421700F0239568
:100EE000421700F0549ADC0198E08D91FB01E80F65
:100EF000449180914001482B00004093C6008D91A1
:100F0000FB01DF939093C1005498CF93D2E0E80F98
:100F1000249180914101282B2093C6001F93C1E3A7
:100F20008D91FB01E80F249180914201282B0F93B2
:100F30002093C6008D91FB01E80F2491809143011D
:100F4000282B409165012093C6008D91FB01E80F8D
:100F5000249180914401282B000000002093C600BA
:100F60008D91FB01E80F249180914501282B000011
:100F700000002093C600042F1881011B8D91FB01F6
:100F8000E80F249180914601282B2093C60001BDD3
:100F9000E2978D91FB01E80F249180914701282B66
:100FA00018812093C6008D91FB01E80F2491809158
:100FB0004801282B042F011B2093C6008D91FB01B3
:100FC000E80F249180914901282B00BD33272093FD
:100FD000C600E297042F8D91FB01E80F24918091C8
:100FE0004A01282B2093C60018818D91FB01E80F40
:100FF000249180914B01282B011BE2972093C6007E
:101000000BBD042F8D91FB01E80F249180914C01C1
:10101000282B30934C012093C60030934B018D91C7
:10102000FB01E80F249180914D01282B30934D0155
:101030002093C60030934A018D91FB01E80F249163
:1010400080914E01282B30934E012093C60030939F
:1010500049018D91FB01E80F249180914F01282BCC
:1010600030934F012093C600309348018D91FB01CE
:10107000E80F249180915001282B30935001209348
:10108000C600309347018D91FB01E80F24918091B8
:101090005101282B309351012093C6003093460113
:1010A0008D91FB01E80F249180915201282B309300
:1010B00052012093C600309345018D91FB01E80F4A
:1010C000249180915301282B309353012093C60023
:1010D000309344018D91FB01E80F249180915401DC
:1010E000282B309354012093C600309343018D91F7
:1010F000FB01E80F249180915501282B3093550175
:101100002093C600309342018D91FB01E80F24919A
:1011100080915601282B309356012093C6003093BE
:1011200041018D91FB01E80F249180915701282BFB
:10113000309357012093C60018818D91FB01E80F71
:10114000249180915801282B309358012093C60098
:10115000011BE2970ABD042F8D91FB01E80F24913A
:1011600080915901282B2093C600309359018D910D
:10117000FB01E80F249180915A01282B30935A01EA
:101180002093C60018818D91FB01E80F2491809176
:101190005B01282B30935B012093C600011B0EBB23
:1011A0008D91FB01E80F249180915C01282B3093F5
:1011B0005C012093C60011E000E48D91FB01E80F73
:1011C000249180915D01282B30935D012093C6000E
:1011D00090916601309340018D91FB01E80F2491BD
:1011E00080915E01282B2093C60030935E01552725
:1011F0008D91FB01E80F249180915F01282B292319
:101200002093C60030935F011092C100CE01EC0123
:101210002EB3203188F43981D801A30FC20FD51F16
:101220003A812C91322B3D933A892C91322B3D936C
:101230003AA12C91322B3D93C2962AB5203190F4DD
:10124000EC013981D801A30FC20FD51F3A812C912F
:10125000322B3D933A892C91322B3D933AA12C911C
:10126000322B3D93C2962BB5203190F4EC0139819D
:10127000D801A30FC20FD51F3A812C91322B3D9379
:101280003A892C91322B3D933AA12C91322B3D93EC
:10129000C29620B5203190F4EC013981D801A30F1A
:1012A000C20FD51F3A812C91322B3D933A892C9154
:1012B000322B3D933AA12C91322B3D93C29621B50E
:1012C000203190F4EC013981D801A30FC20FD51F52
:1012D0003A812C91322B3D933A892C91322B3D93BC
:1012E0003AA12C91322B3D93C296EC01242F3881E8
:1012F000231B203188F43981D801A30FC20FD51FD9
:101300003A812C91322B3D933A892C91322B3D938B
:101310003AA12C91322B3D93C296EC01242F3881B7
:10132000231B203188F43981D801A30FC20FD51FA8
:101330003A812C91322B3D933A892C91322B3D935B
:101340003AA12C91322B3D93C296EC01242F388187
:10135000231B203188F43981D801A30FC20FD51F78
:101360003A812C91322B3D933A892C91322B3D932B
:101370003AA12C91322B3D93C296EC01242F388157
:10138000231B2031F0F43981D801A30FC20FD51FE0
:101390003A812C91032F322B02233D933A892C91D1
:1013A000132F322B12233D933AA12C91832F322BF2
:1013B00082233D93802B812B90916401892B809314
:1013C00064010F911F91CF91DF910895789484B5B6
:1013D000826084BD84B5816084BD85B5826085BD31
:1013E00085B5816085BD80916E00816080936E00BF
:1013F00010928100809181008260809381008091B1
:101400008100816080938100809180008160809361
:1014100080008091B10084608093B1008091B00021
:1014200081608093B00080917A00846080937A001C
:1014300080917A00826080937A0080917A00816046
:1014400080937A0080917A00806880937A0010926D
:10145000C1000E941E078FEF9FEF909301018093C0
:10146000000193E69093B0008BE08093B10094BDAF
:1014700085BD84E285B984E184B982E08093C000AF
:1014800088E08093C10080EC8093C2001092C50078
:101490001092C400219AF89483EC8093800089E034
:1014A0008093810084EB93E090938900809388007F
:1014B00084ED90E090938B0080938A0081E080938C
:1014C0006F001092850010928400789480916E00D5
:1014D0008E7F80936E000E949F05EBE3F3E08AED20
:1014E000819397E0EB33F907D9F781E090E090938F
:1014F00058078093570770E1C72ED12CE12CF12CAF
:10150000E4E08E2E912CA12CB12CF0E02F2EF0E0F7
:101510003F2E90E080E03091560720913603AC01D9
:101520004F5F5F4F321709F49CC09093380380934C
:10153000370380915607809336030E949F05809160
:10154000570790915807019709F073C0EBE3F7E054
:1015500030E020E08091560790E0A901559547952D
:1015600002C0959587954A95E2F7820F8370828332
:10157000822F63E00E943A0C8295880F807E805B08
:1015800080839295990F907E905B91832F5F3F4F60
:10159000339629303105F1F6809156071092680193
:1015A0001092670190E090933A0380933903109270
:1015B0006601809156078F70E1F5C09156070E9431
:1015C0007F0BD0E023E0D595C7952A95E1F76F967C
:1015D000CF71DD2735E0CC0FDD1F3A95E1F7A7018C
:1015E00096010E94D70BE62FEE0FEC0FFD2FF11D99
:1015F000E55CFC4F8AED808381830E947F0B2B0189
:101600003C010E947F0BA50194010E94D70B162F6D
:10161000110FC301B201A70196010E94D70B660FFB
:10162000C60FD11DC55CDC4F81EE810F88831E5132
:101630001983C9E6D1E00BE317E0A80160E079E087
:10164000CE010E942C07E2960D5F1F4F93E0CB3234
:10165000D90799F72114310409F45BCF0E940000E7
:1016600058CFCA0158CF8F929F92AF92BF92CF921C
:10167000DF92EF92FF92CF93DF93EC016881798143
:101680008A819B81611571058105910521F464E2D0
:1016900079ED8BE597E02DE133EF41E050E00E94DA
:1016A000D70B49015A019B01AC01A7EAB1E40E94A2
:1016B000F60B6B017C01ACEEB4EFA50194010E9426
:1016C000040CC60ED71EE81EF91EF7FE06C081E008
:1016D000C81AD108E10880E8F80AC882D982EA82EB
:1016E000FB82C701B6019F77DF91CF91FF90EF900A
:1016F000DF90CF90BF90AF909F908F9008958F9282
:101700009F92AF92BF92CF92DF92EF92FF92609141
:10171000020170910301809104019091050161150E
:1017200071058105910521F464E279ED8BE597E07F
:101730002DE133EF41E050E00E94D70B49015A01FF
:101740009B01AC01A7EAB1E40E94F60B6B017C019E
:10175000ACEEB4EFA50194010E94040CC60ED71E96
:10176000E81EF91EF7FE06C081E0C81AD108E1089C
:1017700080E8F80AC0920201D0920301E0920401CD
:10178000F0920501C701B6019F77FF90EF90DF90BF
:10179000CF90BF90AF909F908F900895609302017B
:1017A0007093030180930401909305010895052E21
:1017B00097FB1EF400940E94EE0B57FD07D00E9489
:1017C000090C07FC03D04EF40C94EE0B5095409599
:1017D000309521953F4F4F4F5F4F089590958095DD
:1017E000709561957F4F8F4F9F4F08950E942B0CEE
:1017F000A59F900DB49F900DA49F800D911D112465
:101800000895B7FF0C94F60B0E94F60B821B930B06
:101810000895A1E21A2EAA1BBB1BFD010DC0AA1F31
:10182000BB1FEE1FFF1FA217B307E407F50720F049
:10183000A21BB30BE40BF50B661F771F881F991FC4
:101840001A9469F760957095809590959B01AC010D
:10185000BD01CF010895A29FB001B39FC001A39F16
:10186000700D811D1124911DB29F700D811D1124D9
:10187000911D089587FB082E062687FD819567FD3B
:1018800061950E94480C0EF4919507FC819508958E
:10189000991B79E004C0991F961708F0961B881FC2
:1018A0007A95C9F780950895F894FFCFFFFF01005E
:0218B000000036
:107E0000112484B714BE81FFF0D085E080938100F7
:107E100082E08093C00088E18093C10086E0809377
:107E2000C20080E18093C4008EE0C9D0259A86E02C
:107E300020E33CEF91E0309385002093840096BBD3
:107E4000B09BFECF1D9AA8958150A9F7CC24DD24C4
:107E500088248394B5E0AB2EA1E19A2EF3E0BF2EE7
:107E6000A2D0813461F49FD0082FAFD0023811F036
:107E7000013811F484E001C083E08DD089C08234E0
:107E800011F484E103C0853419F485E0A6D080C0E4
:107E9000853579F488D0E82EFF2485D0082F10E0AE
:107EA000102F00270E291F29000F111F8ED06801E7
:107EB0006FC0863521F484E090D080E0DECF843638
:107EC00009F040C070D06FD0082F6DD080E0C81688
:107ED00080E7D80618F4F601B7BEE895C0E0D1E017
:107EE00062D089930C17E1F7F0E0CF16F0E7DF06D8
:107EF00018F0F601B7BEE89568D007B600FCFDCFD4
:107F0000A601A0E0B1E02C9130E011968C91119780
:107F100090E0982F8827822B932B1296FA010C0160
:107F200087BEE89511244E5F5F4FF1E0A038BF0790
:107F300051F7F601A7BEE89507B600FCFDCF97BE46
:107F4000E89526C08437B1F42ED02DD0F82E2BD052
:107F50003CD0F601EF2C8F010F5F1F4F84911BD097
:107F6000EA94F801C1F70894C11CD11CFA94CF0C13
:107F7000D11C0EC0853739F428D08EE10CD085E9AC
:107F80000AD08FE07ACF813511F488E018D01DD067
:107F900080E101D065CF982F8091C00085FFFCCF94
:107FA0009093C60008958091C00087FFFCCF809118
:107FB000C00084FD01C0A8958091C6000895E0E648
:107FC000F0E098E1908380830895EDDF803219F02E
:107FD00088E0F5DFFFCF84E1DECF1F93182FE3DFCA
:107FE0001150E9F7F2DF1F91089580E0E8DFEE27F6
:047FF000FF270994CA
:027FFE00040479
:00000001FF
