:100000000C9480050C949D050C949D050C949D0505
:100010000C949D050C949D050C949D050C949D05D8
:100020000C949D050C949D050C949D050C949D05C8
:100030000C9408060C94DB060C949D050C949D050D
:100040000C94BE050C949D050C949D050C949D0587
:100050000C949D050C949D050C949D050C949D0598
:100060000C949D050C949D0500000000000000000C
:100070000000000000000000000000000000000080
:100080000000000000000000000000000000000070
:100090000000000000000000000000000000000060
:1000A0000000000000000000000000000000000050
:1000B0000000000000000000000000000000000040
:1000C0000000000000000000000000000000000030
:1000D0000000000000000000000000000000000020
:1000E0000000000000000000000000000000000010
:1000F0000000000000000000000000000000000000
:1001000003C00000F0003C000F00000000041001DC
:10011000040041001040000140018000601806000A
:1001200000000000000000000000000012814800F4
:1001300004A0520001281480004A0520008000001D
:100140004000002000001000000800000400000231
:1001500000000100020000010000008000004000DB
:100160000020000010000008000004001004000837
:1001700002000401000200800100400080200040D5
:1001800010002008003000001800000C00000600DD
:100190000003000001800000C0000060003000008B
:1001A0001800000C000006000003000001800000A1
:1001B000C00000600000000000000000000000001F
:1001C000000000000000000000000000000000002F
:1001D000000000000000000000000000000000001F
:1001E0000000000060010400F018000C000600038D
:1001F00000018000C000600030000000000000FF2F
:100200001FF80007FE01FF807FE08187E1122400D4
:1002100088012240088041408103C000F03C0F006B
:1002200007E00001F800007E00001F8008061000B3
:1002300002018400008061000020184001C000001D
:10024000E000007000003800001C00000E000007F5
:1002500000000380001000000800000400000200FD
:1002600000010000008000004000002082190041D1
:100270000C802086401043200821900410C80208FA
:1002800064010432887800223C00221E00088F009E
:100290000887800223C00221E00088F01078000463
:1002A0003C00041E00010F000107800043C0004114
:1002B000E00010F0107838787C7C3C4438044440EE
:1002C000444438783878387C44444444447C38107A
:1002D000387C087C1C7C383808200000101038005E
:1002E0000007E000F0008807FE3C001E000F00073A
:1002F0008003C001E000F00078000000000000FF73
:100300003FFC000FFF03FFC0FFF0C3CFF317F40162
:10031000FC017F401FC04141C107E001F87E1F8002
:100320001FF80007FE0001FF80007FE051E300009E
:100330001478C000051E300001478C0001C0000089
:10034000E000007000003800001C00000E000007F4
:100350000000038002A00001500000A8000054002B
:10036000002A00001500000A8000054010C00008A7
:100370006000043000021800010C000086000043F9
:10038000000021808CFC00237E00233F0008DF80DA
:1003900008CFC00237E00233F0008DF810FC0004F3
:1003A0007E00043F00011F80010FC00047E00043B2
:1003B000F00011F8284444444040404410044840B0
:1003C0006C4444444444441044444444440444304D
:1003D0004404184020044444101000005410440009
:1003E000001FF801F801FC0FFF7E003F001F800F87
:1003F000C007E003F001F800FC000000000000FF6F
:10040000399C000E670399C0E670C3CE731DDC03F0
:100410007601DDC03760C1C3610DB0036CDB36C04F
:100420003FFC000FFF0003FFC000FFF003F9C8000E
:1004300000FE7200003F9C80000FE7201FFC000FB1
:10044000FE0007FF0003FF8001FFC000FFE0007F08
:10045000F0003FF812000009000004800002400094
:10046000012000009000004800002400020200016A
:100470000100008080004040002020001010000893
:100480000800040457B60015DB0015ED800576C0A2
:10049000057B60015DB0015ED800576C1DB600069B
:1004A000DB00076D8001B6C001DB60006DB0007637
:1004B000D8001B6C44444044404040441004504029
:1004C00054644444444440104444442828084C1094
:1004D00004082878400844442008007C38100800AC
:1004E000003FFC036C03760E67DB006D8036C01B9B
:1004F000600DB006D8036C01B6000000000000FFDC
:100500003FFC000FFF03FFC0FFF0C3CFF31FFC074A
:10051000FF01FFC07FF0C1C7F10FF003FCFF3FC038
:100520006DB6001B6D8006DB6001B6D80754E40091
:1005300001D5390000754E40001D53903FFE001F4D
:10054000FF000FFF8007FFC003FFE001FFF000FF87
:10055000F8007FFC01B00000D800006C00003600FD
:10056000001B00000D800006C00003604B31002519
:10057000988012CC4009662004B310025988012CDF
:10058000C400966223FE0009FF0008FF80027FC0BE
:10059000023FE0009FF0008FF80027FC13FE0005EB
:1005A000FF0004FF80017FC0013FE0005FF0004FCB
:1005B000F80017FC447840447878407C1004604090
:1005C0005454447844783810444454101010541053
:1005D000181848047810383C400400001010107CB3
:1005E000006DB603FC07FF0FFFFF007F803FC01FB9
:1005F000E00FF007F803FC01FE000000000000FF20
:10060000066000039C00660039C00003C00FF805B7
:10061000FD00FF805FD08085D002400168241680F5
:10062000FFFF003FFFC00FFFF003FFFC11F1800050
:10063000047C6000011F18000047C6003FFE001F39
:10064000FF000FFF8007FFC003FFE001FFF000FF86
:10065000F8007FFC45A80022D400116A0008B5000C
:10066000045A80022D400116A0008B5021C40010B6
:10067000E200087100043880021C40010E2000874F
:100680001000438820B400082400082D000209004F
:10069000020B400082400082D000209028B4000A63
:1006A00024000A2D00028900028B4000A24000A213
:1006B000D00028907C44404440404C4410045040BA
:1006C000444C4440545004104444542810206410B6
:1006D00020047C04442044042008007C38281000B6
:1006E00000FFFF009005FD019824002D0009000B7C
:1006F00040024002D0009000B4000000000000FF63
:100700000DB000066600DB006660000660041005A0
:1007100005004100505000055005A002045A204039
:10072000399C000E67000399C000E67040A31000DA
:100730001028C400040A310001028C403FFE001F53
:10074000FF000FFF8007FFC003FFE001FFF000FF85
:10075000F8007FFC1FE4000FF20007F90003FC80A3
:1007600001FE4000FF20007F90003FC81FF0000FF7
:10077000F80007FC0003FE0001FF0000FF80007F7F
:10078000C0003FE0210200085A00084080021680A5
:100790000210200085A00084080021684502001195
:1007A0005A001140800456800450200115A0011405
:1007B0000800456844444444404044441044484090
:1007C000444444404848441044286C441040441079
:1007D00040440844442044081010000054440000E1
:1007E00000399C01680505036C5A00408016801092
:1007F0002005A0040801680102000000000000FFBD
:10080000300C00030C0300C030C0C3C3C308080091
:10081000D80080800D808080800A500108A510805B
:100820001008000402000100800040201110800028
:100830000444200001110800004442003FFE001F54
:10084000FF000FFF8007FFC003FFE001FFF000FF84
:10085000F8007FFC3FF5001FFA800FFD4007FEA067
:1008600003FF5001FFA800FFD4007FEA37F2001B0E
:10087000F9000DFC8006FE40037F2001BF9000DFE1
:10088000C8006FE420840008A50008210002294068
:10089000020840008A500082100022944484001113
:1008A000A500112100046940044840011A500112BA
:1008B00010004694447838787C403C443838447C76
:1008C000444438403444381038104444107C38389C
:1008D0007C38083838203870082000001044100098
:1008E000FF1008029400D80C03A50021002940083D
:1008F000400A50021002940084000000000000FF33
:1009000001800F801F000D000F800F0006000F00F8
:100910001F801F803DC03EC00F001D801B801DC07A
:1009200001800F801F000D000F800F0006000F00D8
:100930001B801B801B801D800F0006000600070027
:1009400001800F801F000D000F800F0006000F00B8
:100950001F801F803DC03EC00F001D801B801DC03A
:1009600001800F801F000D000F800F0006000F0098
:100970001F803FC07FE06F600F801DA030E03840D7
:10098000060007C003E002C007C003C0018003C027
:1009900007E00FF01FF81BD807C016E01C300870E6
:1009A000060007C003E002C007C003C0018003C007
:1009B00007E007E00EF00DF003C006E007600EE070
:1009C000060007C003E002C007C003C0018003C0E7
:1009D00007E00760076006E003C001800180038034
:1009E000060007C003E002C007C003C0018003C0C7
:1009F00007E007E00EF00DF003C006E007600EE030
:100A000000000000000000000000000000000000E6
:100A100000000000000000000000000000000000D6
:100A200000000000000000000000000000000000C6
:100A300000000000000000000000000000000000B6
:100A400000000000000000000000000000000000A6
:100A50000000000000000000000000000000000096
:100A60000000000000000000000000000000000086
:100A70000000000000000000000000000000000076
:100A80000000000000000000000000000000000066
:100A90000000000000000000000000000000000056
:100AA0000000000000000000000000000000000046
:100AB0000000000000000000000000000000000036
:100AC0000000000000000000000000000000000026
:100AD0000000000000000000000000000000000016
:100AE0000000000000000000000000000000000006
:100AF00000000000000000000000000000000000F6
:100B000011241FBECFEFD8E0DEBFCDBF11E0A0E0C3
:100B1000B1E0E4E8F9E102C005900D92A630B1071A
:100B2000D9F727E0A6E0B1E001C01D92A038B207D6
:100B3000E1F70E94030A0C94C00C0C940000809111
:100B40003503809336032C9A2C9898E02A9880914C
:100B50003503880F8093350323B125FB222720F925
:100B6000820F809335032A9A915081F78091350343
:100B70009091360389278093370308951F920F922F
:100B80000FB60F9211242F933F938F939F93AF93A0
:100B9000BF938091620790916307A0916407B09121
:100BA00065073091610723E0230F2D3758F5019633
:100BB000A11DB11D20936107809362079093630785
:100BC000A0936407B093650780915D0790915E07DD
:100BD000A0915F07B09160070196A11DB11D8093A0
:100BE0005D0790935E07A0935F07B0936007BF9186
:100BF000AF919F918F913F912F910F900FBE0F90CA
:100C00001F90189526E8230F0296A11DB11DD2CF83
:100C10001F920F920FB60F9211242F933F934F9371
:100C20005F936F937F938F939F93AF93BF93CF9374
:100C3000DF93EF93FF93C0918400D0918500809162
:100C4000320390913303C09709F04DC080913B036C
:100C500090913C03282F27702093310333E0969521
:100C600087953A95E1F78F7199278093300345E096
:100C7000880F991F4A95E1F7835C9C4F90932F034F
:100C800080932E03822F220F990B982F8827805054
:100C90009F4F90932D0380932C038091320390916A
:100CA00033038F5280936501109264018091680133
:100CB00090916901809590958770880F8093340397
:100CC000FF91EF91DF91CF91BF91AF919F918F9164
:100CD0007F916F915F914F913F912F910F900FBE38
:100CE0000F901F90189580913403C81BD109209153
:100CF00000013091010160912C0370912D03AE0130
:100D000080912E0390912F030E948407809100010F
:100D100090910101C817D90720F4D0930101C09325
:100D2000000180913203909133038F5280936501CB
:100D30008091650180913203909133038832914014
:100D400059F480916F008B7F80936F0080915A07D8
:100D50008F5F80935A07B4CF809131038F5F809368
:100D600031038830F1F41092310380E091E09093E8
:100D70002D0380932C03809130038F5F8093300389
:100D8000803249F4109230038DE393E090932F0367
:100D900080932E0395CF80912E0390912F03809600
:100DA000F5CF80912C0390912D03939590932D0373
:100DB00080932C0385CF1F920F920FB60F921124B0
:100DC0002F938F939F9380913203909133030196D9
:100DD00090933303809332038833914091F484EBF2
:100DE00093E09093890080938800109233031092CF
:100DF00032039F918F912F910F900FBE0F901F90F4
:100E0000189580913203909133030897B9F48AE4DE
:100E100090E0909389008093880080916801909180
:100E20006901809590958770992786599F4F880F03
:100E3000991F90938B0080938A00DBCF80913203BF
:100E400090913303C097A9F680916F0084608093DE
:100E50006F00CFCFF999FECF41BD50BDFA9AF99AF4
:100E60000895552740E041BD50916201F3DF509154
:100E700063014395EFDF089540E041BD41BDF89A1D
:100E800050B550936201439541BDF89A50B55093C7
:100E900063010895DF93CF93FA0141E05527EC01F8
:100EA00021912993219130916801832F8770280F18
:100EB000322F369536953695399327703191FB014F
:100EC00060E21F920F92369FE00DF11D0F901F9070
:100ED00030E1859188838591888B58A3251769F027
:100EE000822F889498819795988398899795988B65
:100EF00098A1979598A38A95A9F7C40FD51F3A95FD
:100F000041F7CF91DF9108952395421700F0239583
:100F1000421700F02395421700F0549ADC0198E044
:100F2000209167018D91FB01E80F44918091400170
:100F3000482B42234093C6008D91FB01DF93909391
:100F4000C1005498CF93D2E0E80F249180914101E1
:100F5000282B2093C6001F93C2E38D91FB01E80F5D
:100F6000249180914201282B0F932093C6008D91EC
:100F7000FB01E80F249180914301282B40916501EA
:100F80002093C6008D91FB01E80F249180914401CC
:100F9000282B000000002093C6008D91FB01E80F74
:100FA000249180914501282B000000002093C60069
:100FB000042F1881011B8D91FB01E80F2491809172
:100FC0004601282B2093C60001BDE2978D91FB01BD
:100FD000E80F249180914701282B18812093C600A7
:100FE0008D91FB01E80F249180914801282B042F5B
:100FF000011B2093C6008D91FB01E80F2491809185
:101000004901282B00BD33272093C600E297042F07
:101010008D91FB01E80F249180914A01282B2093A8
:10102000C60018818D91FB01E80F249180914B013E
:10103000282B011BE2972093C6000BBD042F8D9136
:10104000FB01E80F249180914C01282B30934C0137
:101050002093C60030934B018D91FB01E80F249142
:1010600080914D01282B30934D012093C600309381
:101070004A018D91FB01E80F249180914E01282BAC
:1010800030934E012093C600309349018D91FB01AE
:10109000E80F249180914F01282B30934F0120932A
:1010A000C600309348018D91FB01E80F2491809197
:1010B0005001282B309350012093C60030934701F4
:1010C0008D91FB01E80F249180915101282B3093E1
:1010D00051012093C600309346018D91FB01E80F2A
:1010E000249180915201282B309352012093C60005
:1010F000309345018D91FB01E80F249180915301BC
:10110000282B309353012093C600309344018D91D6
:10111000FB01E80F249180915401282B3093540156
:101120002093C600309343018D91FB01E80F249179
:1011300080915501282B309355012093C6003093A0
:1011400042018D91FB01E80F249180915601282BDB
:10115000309356012093C600309341018D91FB01DD
:10116000E80F249180915701282B30935701209349
:10117000C60018818D91FB01E80F249180915801E0
:10118000282B309358012093C600011BE2970ABD1B
:10119000042F8D91FB01E80F249180915901282B98
:1011A0002093C600309359018D91FB01E80F2491E3
:1011B00080915A01282B30935A012093C600188140
:1011C0008D91FB01E80F249180915B01282B3093D6
:1011D0005B012093C600011B0EBB8D91FB01E80F44
:1011E000249180915C01282B30935C012093C600F0
:1011F00011E000E48D91FB01E80F249180915D01E5
:10120000282B30935D012093C600909166013093A6
:1012100040018D91FB01E80F249180915E01282B04
:101220002093C60030935E0155278D91FB01E80F96
:10123000249180915F01282B29232093C6003093AD
:101240005F011092C100CE01EC012EB3203188F471
:101250003981D801A30FC20FD51F3A812C91322BAF
:101260003D933A892C91322B3D933AA12C91322B0C
:101270003D93C2962AB5203190F4EC013981D80112
:10128000A30FC20FD51F3A812C91322B3D933A897F
:101290002C91322B3D933AA12C91322B3D93C29647
:1012A0002BB5203190F4EC013981D801A30FC20F86
:1012B000D51F3A812C91322B3D933A892C91322BB8
:1012C0003D933AA12C91322B3D93C29620B520310B
:1012D00090F4EC013981D801A30FC20FD51F3A81D8
:1012E0002C91322B3D933A892C91322B3D933AA18C
:1012F0002C91322B3D93C29621B5203190F4EC0114
:101300003981D801A30FC20FD51F3A812C91322BFE
:101310003D933A892C91322B3D933AA12C91322B5B
:101320003D93C296EC01242F3881231B203188F491
:101330003981D801A30FC20FD51F3A812C91322BCE
:101340003D933A892C91322B3D933AA12C91322B2B
:101350003D93C296EC01242F3881231B203188F461
:101360003981D801A30FC20FD51F3A812C91322B9E
:101370003D933A892C91322B3D933AA12C91322BFB
:101380003D93C296EC01242F3881231B203188F431
:101390003981D801A30FC20FD51F3A812C91322B6E
:1013A0003D933A892C91322B3D933AA12C91322BCB
:1013B0003D93C296EC01242F3881231B2031F0F499
:1013C0003981D801A30FC20FD51F3A812C91032F69
:1013D000322B02233D933A892C91132F322B122367
:1013E0003D933AA12C91832F322B82233D93802B66
:1013F000812B90916401892B809364010F911F913F
:10140000CF91DF910895789484B5826084BD84B5CE
:10141000816084BD85B5826085BD85B5816085BDEF
:1014200080916E00816080936E00109281008091A7
:10143000810082608093810080918100816080932F
:101440008100809180008160809380008091B10054
:1014500084608093B1008091B00081608093B0007F
:1014600080917A00846080937A0080917A00826013
:1014700080937A0080917A00816080937A008091D5
:101480007A00806880937A001092C1000E943C0725
:101490008FEF9FEF909301018093000193E690936B
:1014A000B0008BE08093B10094BD85BD84E285B926
:1014B00084E184B982E08093C00088E08093C10019
:1014C00080EC8093C2001092C5001092C400219A53
:1014D000F89483EC8093800089E08093810084EB12
:1014E00093E0909389008093880084ED90E090933E
:1014F0008B0080938A0081E080936F0010928500BA
:1015000010928400789480916E008E7F80936E009C
:101510000E949F05EDE3F3E08AED819337E0ED3320
:10152000F307D9F710923E0710923D0781E090E053
:1015300090935C0780935B0770E1C72ED12CE12C60
:10154000F12CE4E04E2E512C612C712CF0E02F2E6A
:10155000F0E03F2E90E080E050915A074091380330
:101560009C012F5F3F4F541709F4E4C090933A0356
:101570008093390380915A07809338030E949F0516
:1015800080915B0790915C07019709F0BBC0EFE386
:10159000F7E030E020E080915A0790E0A9015595EE
:1015A000479502C0959587954A95E2F7820F83701B
:1015B0008283822F63E00E94A60C8295880F807E32
:1015C000805B80839295990F907E905B91832F5FD3
:1015D0003F4F339629303105F1F620915A07220FFB
:1015E000219520933E0780913D079DEF980F97FF2F
:1015F000A3C08B5F80933D0780915A0790E033E052
:10160000959587953A95E1F7877034EB380FECE3C1
:10161000F7E0CF014F97DF014E9111964C93119750
:10162000A817B907C9F7B097318383E0EC33F807FF
:1016300081F730913D07C22FD0E0D0933C03C09397
:101640003B03832F90E0909369018093680137708A
:101650008FE790E0032E02C0959587950A94E2F7F4
:101660008093670187E090E0831B91093EEF01C002
:10167000330F8A95EAF730936601822F877009F05D
:1016800041C083E0D595C7958A95E1F76F96CF71F4
:10169000DD2795E0CC0FDD1F9A95E1F72F7071F5EE
:1016A0000E94EB0BA70196010E94430CE62FEE0F60
:1016B000EC0FFD2FF11DE35CFC4F8AED80838183ED
:1016C0000E94EB0B4B015C010E94EB0BA30192010A
:1016D0000E94430C162F110FC501B401A7019601FA
:1016E0000E94430CE62FEE0FEC0FFD2FF11DE35C83
:1016F000FC4F81EE810F80831E511183C35CDC4F50
:101700009FEF9883CAE6D1E00FE317E0A80160E0FD
:1017100079E0CE010E944A07E2960D5F1F4F33E049
:10172000CC32D30799F72114310409F413CF0E9466
:10173000000010CFC90110CF90933D077ACF8F9250
:101740009F92AF92BF92CF92DF92EF92FF92CF9390
:10175000DF93EC01688179818A819B816115710534
:101760008105910521F464E279ED8BE597E02DE1A7
:1017700033EF41E050E00E94430C49015A019B01C4
:10178000AC01A7EAB1E40E94620C6B017C01ACEEF3
:10179000B4EFA50194010E94700CC60ED71EE81E7E
:1017A000F91EF7FE06C081E0C81AD108E10880E8FA
:1017B000F80AC882D982EA82FB82C701B6019F7704
:1017C000DF91CF91FF90EF90DF90CF90BF90AF90DF
:1017D0009F908F9008958F929F92AF92BF92CF92D9
:1017E000DF92EF92FF92609102017091030180916C
:1017F000040190910501611571058105910521F4A0
:1018000064E279ED8BE597E02DE133EF41E050E0C4
:101810000E94430C49015A019B01AC01A7EAB1E4C3
:101820000E94620C6B017C01ACEEB4EFA501940147
:101830000E94700CC60ED71EE81EF91EF7FE06C0E9
:1018400081E0C81AD108E10880E8F80AC0920201D4
:10185000D0920301E0920401F0920501C701B601A4
:101860009F77FF90EF90DF90CF90BF90AF909F90C9
:101870008F90089560930201709303018093040197
:10188000909305010895052E97FB1EF400940E9485
:101890005A0C57FD07D00E94750C07FC03D04EF47C
:1018A0000C945A0C50954095309521953F4F4F4FD1
:1018B0005F4F089590958095709561957F4F8F4FFC
:1018C0009F4F08950E94970CA59F900DB49F900D77
:1018D000A49F800D911D11240895B7FF0C94620CF4
:1018E0000E94620C821B930B0895A1E21A2EAA1B80
:1018F000BB1BFD010DC0AA1FBB1FEE1FFF1FA217C0
:10190000B307E407F50720F0A21BB30BE40BF50BBC
:10191000661F771F881F991F1A9469F76095709545
:10192000809590959B01AC01BD01CF010895A29FC8
:10193000B001B39FC001A39F700D811D1124911DA3
:10194000B29F700D811D1124911D089587FB082EF3
:10195000062687FD819567FD61950E94B40C0EF403
:10196000919507FC81950895991B79E004C0991F12
:10197000961708F0961B881F7A95C9F780950895E9
:04198000F894FFCF09
:06198400FFFF010000005E
:00000001FF
