:100000000C9480060C949D060C949D060C949D0601
:100010000C949D060C949D060C949D060C949D06D4
:100020000C949D060C949D060C949D060C949D06C4
:100030000C9408070C9454080C949D060C949D068F
:100040000C94BE060C949D060C949D060C949D0683
:100050000C949D060C949D060C949D060C949D0694
:100060000C949D060C949D0605A84CCDB2D44EB9B7
:100070003836A9020C50B9918688083CA6AAAA2A4B
:10008000BE000000803F00000000000000000000F3
:100090000000000000000000000000000000000060
:1000A0000000000000000000000000000000000050
:1000B0000000000000000000000000000000000040
:1000C0000000000000000000000000000000000030
:1000D0000000000000000000000000000000000020
:1000E0000000000000000000000000000000000010
:1000F0000000000000000000000000000000000000
:10010000000FFFFFFFFFFFFFFFFFFFFFFFFFFFC02D
:10011000000FFFFFFFFEFFFFFFFFFFFFFFFFFFF0EE
:100120000000003FFFFFFC1FFFFFFFFFFFFFFFF08E
:10013000FFFFFFDF0000F80FF9FF1E73FFFFFFFC5A
:10014000FFFFFFDF0000FC1FFFFFFFFFFFFFFFFFC0
:10015000000FFFFF003E7C1FF81F3399C000F80717
:10016000000FFFFFFFFFFC1FF00007FFCC0CF8079C
:10017000000F8000E0003FF924924924924927FFB4
:10018000000E0000FFFFFFF000000000000003FF72
:1001900000FFFFFEFFFFFFFFFFFFFFFFFFFFFFFF6F
:1001A00000FFFFFEF8004003FFFFFFFFFFFFFFFF20
:1001B000000FFFFFFFFFFFFFDFFFFFFDFFFFFFF06F
:1001C00030F878F0FCFC7CCCFC0CCCC0C6CC78F8C9
:1001D00078F87CFCCCCCC6CCCCFC3000003000C025
:1001E000CCCCCCCCC0C0CCCC30CCCCC0C6DCCCC011
:1001F000CCCC0C30CC78FE7830C0003030003030C1
:10020000000FFFFFF9FFFFFFFFFFFFFFFFFFFFE012
:10021000000FFFFFFFFFFFFFFFFFFFFFFFFFFFF0EC
:10022000FFFFFFDFFFFFF80FFFCFFE7FFFFFFFF0B5
:10023000FFFFFFDF8001FC1FF8FE0E63FFFFFFFEE4
:10024000FFFFFFDF8001FFFFFFFFFFFFFFFFFFFF5B
:10025000000FFFFF003E7FFFF81F3399CC0CF8071B
:10026000000FFFFFFFFFF80FF8000F87C000FFFF30
:10027000000E000060003FF000000000000003FFDF
:10028000000E00007FFFFFF000000000000003FFF1
:1002900000FFFFFEFFFFFFFFFFFFFFFFFFFFFFFF6E
:1002A00000FFFFFEF8004003FFFFFFFFFFFFFFFF1F
:1002B000000FFFFFFFFFFFFFC000001C000001F068
:1002C00078FCFCF8FCFCFCCCFC0CCCC0C6CCFCFCE8
:1002D000FCFCFCFCCCCCC6CCCCFC3000003000607C
:1002E000CCCCCCDCC0C0CCCC30CCCCC0C6CCCCC010
:1002F000D4CC0C30CC78EECC30C000303000307034
:10030000000FFFFFF0FFFFFFFFFFFFFFFFFFFFF00A
:10031000000FFFFFFFFFFFFFFFFFFFFFFFFFFFF0EB
:10032000FFFFFFDFFFFFFC1FFE01F00FFFFFFFF0ED
:10033000FFFFFFDF8001FFFFFC7C43C7FFFFFFFFE4
:10034000FFFFFFDF8001FFFFFFFFFFFFFFFFFFFF5A
:10035000000FFFFF807E780FFFFFFFFFF1E3FB3709
:10036000000FFFFFFFFFFC1FFC001F03FFFFFFFF4D
:10037000000E0000F800FFF000000000000003FF86
:10038000000F8000FFFFFFF000000000000003FFEF
:1003900000FFFFFE7F03F81FFFFFFFFFFFFFFFFFD0
:1003A00000FFFFFEFC00E007FFFFFFFFFFFFFFFF76
:1003B000000FFFFFFFFFFFFFFFFFFFFFFFFFFFF04B
:1003C000FCCCCCDCC0C0C0CC300CD8C0EECCCCCC8B
:1003D000CCCCC030CCCCC6CCCC1830000030307087
:1003E000CCFCFCF8FCC0FCCCFCFCC6FCC6CCFCC0C5
:1003F000F8C6FC30FC30C6CC30FC00303030306009
:10040000000FFFFFE07EFFFFFFFFFFFFFFFFFFF09A
:10041000000FFFFFFFFFFFFFFFFFFFFFFFFFFFF0EA
:10042000FFFFFFDFFFFFFFFFFC30E187FFFFFFF073
:10043000FFFFFFDF0000F80FFC00E007FFFFFFFFFA
:10044000FFFFFFDFE667FFFFFFFFFFFFFFFFFFFF8D
:10045000000FFFFFFFFFF80FFFFFFFFFF3F3FB3776
:10046000000FFFFFFC01FFFFFFFFFF03FFFFFFFF88
:10047000000E0007E0003FF000000000000003FF56
:10048000000FFFFFF001FFF000000000000003FF7D
:1004900000FFFFFE3E01F00FFFFFFFFFFFFFFFE346
:1004A00000FFFFFEFE01F00FFFFFFFFFFFFFFFFF5A
:1004B000000000000000000000000000000000003C
:1004C000CCCCCCCCC0C0C0CC300CD8C0EEECCCCCAA
:1004D000CCCCC030CCCCC678CC183000003030301A
:1004E000CCF878F0FCC078CCFC78C6FCC6CC78C0E0
:1004F0006CC6F830783082CC30FC0030303030C000
:10050000000FFFFFE07E800000007C00000003F091
:10051000000FFFFFFFFFFFFFFFFFFFFFFFFFFFF0E9
:10052000FFFFFFDFE667F80FFCFC47E7FFFFFFF088
:10053000FFFFFFDF0000F80FFF03F81FF8707FE7F1
:100540000000003FFFFFFFFFFFFFFFFFFFFFFFFF78
:10055000000FFFFFFFFFFFFFFC001FFFF3F3F80793
:10056000000FFFFFF800FFFFFFFFFF87FFFFFFFF08
:10057000000E0000E0003FF000000000000003FF5C
:10058000000FFFFFF001FFF000000000000003FF7C
:1005900000FFFFFE3C00E007FFFFFFFFFFFFFFC182
:1005A00000FFFFFEFF03F81FC000001C000001FE5B
:1005B000000000000000000000000000000000003B
:1005C000CCFCC0CCF8F8DCFC300CF0C0FEECCCCCA1
:1005D000CCCCE030CCCCC678783030000030303035
:1005E000000000000000000000000000000000000B
:1005F000000000000000000000000000600000009B
:10060000000FFFFFF0FEB33333337D9999999BF0D0
:10061000000FFFFFC3C3FFFFFFFFFFFFFFFFFFF060
:10062000FFFFFFDF8001F80FF9FE0E73FFFFFFF001
:10063000FFFFFFDF8001FFFFFFCFFE7FF0203FC302
:10064000000E0FFFFFFFFFFFFFFFFFFFFFFFF80799
:10065000000FFFFF821FF80FF8000FFFF3F3F807FA
:10066000000FFFFFE0003FFFFFFFFFFFFFFFFFFF67
:10067000000E00007800FFF000000000000003FF03
:100680000003FFFFF001FFF924924924924927FF5C
:1006900000FFFFFE38004003FFFFFFFFFFFFFFC129
:1006A00000FC0001FFCFFE7FDFFFFFFDFFFFFFFC2F
:1006B000000000000000000000000000000000003A
:1006C000CCF8C0CCF8F8DCFC300CF0C0D6FCCCCCBC
:1006D000CCFC7030CCCCD6307830300000303030AC
:1006E000000000000000000000000000000000000A
:1006F00000000000000000000000000040000000BA
:10070000000FFFFFF9FEB33333337D9999999BF0C6
:10071000000F1FFF8181FFFFFFFFFFFFFFFFFFF0C3
:10072000FFFFFFDF8001FFFFF9FF1E73FFFFFFF0F8
:10073000FFFFFFDF8001FC1FFFFFFFFFF8707FC39B
:10074000000F1FFF807E7C1FFFFFFFFFFFFFFB37B7
:10075000000FFFFFFFFFF80FF00007FFF3F3FB3779
:10076000000FFFFFE0003FFFFFFFFFFFFFFFFFFF66
:10077000000E0000FC01FFF000000000000003FF7D
:1007800000FC0001F001FFF924924924924927FF5F
:1007900000FFFFFE38004003FFFFFFFFFFFFFFC128
:1007A0000003FE03FFFFFFFFD333333D333333F842
:1007B0000000000000000000000000000000000039
:1007C000FCCCC0CCC0C0CCCC300CD8C0D6FCCCFC4F
:1007D000CCF83830CCCCD63030600000003000305F
:1007E0000000000000000000000000000000000009
:1007F00000000000000000000000000000000000F9
:10080000000FFFFFFFFE800000007C00000003F0EF
:10081000000E0FFFC3C3FFFFFFFFFFFFFFFFFFF04F
:10082000FFFFFFDF0000FC1FF9831813FFFFFFF835
:10083000FFFFFFDF0000F80FFFFFFFFFFFFFFFE7F5
:10084000000FFFFF003E780FFFFFFFFFFFFFFB37AA
:10085000000FFFFFFFFFFFFFF00007FFF1E3FB3793
:10086000000FFFFFF800FFF924924924924927FF67
:10087000000E0007FFFFFFF000000000000003FF74
:1008800000FFFFFEF001FFFFFFFFFFFFFFFFFFFF85
:1008900000FFFFFE78004003FFFFFFFFFFFFFFE3C5
:1008A000000FFF07FFFFFFFFD333333D333333F038
:1008B0000000000000000000000000000000000038
:1008C000FCCCC0CCC0C0CCCC300CD8C0C6DCCCF882
:1008D000CCD81C30CCCCFE7830600000003000302A
:1008E0000000000000000000000000000000000008
:1008F00000000000000000000000000000000000F8
:10090000D3C7C8D200C8D200D3C7C400C5C8D7C493
:10091000C300C1CED3D3CECC00D2C4C2D3C8CECDB7
:1009200001800F801F000D000F800F0006000F00D8
:100930001F801F803DC03EC00F001D801B801DC05A
:1009400001800F801F000D000F800F0006000F00B8
:100950001B801B801B801D800F0006000600070007
:1009600001800F801F000D000F800F0006000F0098
:100970001F801F803DC03EC00F001D801B801DC01A
:1009800001800F801F000D000F800F0006000F0078
:100990001F803FC07FE06F600F801DA030E03840B7
:1009A000060007C003E002C007C003C0018003C007
:1009B00007E00FF01FF81BD807C016E01C300870C6
:1009C000060007C003E002C007C003C0018003C0E7
:1009D00007E007E00EF00DF003C006E007600EE050
:1009E000060007C003E002C007C003C0018003C0C7
:1009F00007E00760076006E003C001800180038014
:100A0000060007C003E002C007C003C0018003C0A6
:100A100007E007E00EF00DF003C006E007600EE00F
:100A200000000000000000000000000000000000C6
:100A300000000000000000000000000000000000B6
:100A400000000000000000000000000000000000A6
:100A50000000000000000000000000000000000096
:100A60000000000000000000000000000000000086
:100A70000000000000000000000000000000000076
:100A80000000000000000000000000000000000066
:100A90000000000000000000000000000000000056
:100AA0000000000000000000000000000000000046
:100AB0000000000000000000000000000000000036
:100AC0000000000000000000000000000000000026
:100AD0000000000000000000000000000000000016
:100AE0000000000000000000000000000000000006
:100AF00000000000000000000000000000000000F6
:100B000000000000000000000000000000000000E5
:100B100000000000000000000000000000000000D5
:100B2000D3C7C8D200C8D200C0CD00C4D7C0CCCF74
:100B3000CBC400CEC500D2CFCBC8D300D2C2D1C463
:100B4000C4CD00D2C2D1CECBCBC8CDC600D4D2C882
:100B5000CDC600D3C7C400C0D1C3D4C8CDCE00D445
:100B6000CDCE00C6C0CCC400C4CDC6C8CDC4DD0047
:100B7000D3C7C400D2C2D1C4C4CD00C8D200D2CF22
:100B8000CBC8D300C8CDD3CE00C000D2C8D7D3C401
:100B9000C4CD00CFC8D7C4CB00C7C8C6C700C5C81E
:100BA000D7C4C300D2C4C2D3C8CECD00C0D300D3F3
:100BB000C7C400D3CECFDC00D3C7C4CD00C000D2A1
:100BC000C2D1CECBCBC8CDC600D2C4C2D3C8CECD45
:100BD00000C8CD00D3C7C400CCC8C3C3CBC4DC009D
:100BE000C0CDC300C5C8CDC0CBCBD800C000D2C8D3
:100BF000D7D3C4C4CD00CFC8D7C4CB00C7C8C6C7DD
:100C000000C5C8D7C4C300D2C4C2D3C8CECD00C0AB
:100C1000D300D3C7C400C1CED3D3CECCDB000000F9
:100C200000000000000000000000000000000000C4
:100C300000000000000000000000000000000000B4
:100C400000000000000000000000000000000000A4
:100C50000000000000000000000000000000000094
:100C60000000000000000000000000000000000084
:100C70000000000000000000000000000000000074
:100C80000000000000000000000000000000000064
:100C90000000000000000000000000000000000054
:100CA0000000000000000000000000000000000044
:100CB0000000000000000000000000000000000034
:100CC0000000000000000000000000000000000024
:100CD0000000000000000000000000000000000014
:100CE0000000000000000000000000000000000004
:100CF00000000000000000000000000000000000F4
:100D000011241FBECFEFD8E0DEBFCDBF11E0A0E0C1
:100D1000B1E0E6EEFFE102C005900D92A430B1070C
:100D2000D9F727E0A4E0B1E001C01D92A038B207D6
:100D3000E1F70E94710B0C94F10F0C94000080916C
:100D40003703809338032C9A2C9898E02A98809146
:100D50003703880F8093370323B125FB222720F91F
:100D6000820F809337032A9A915081F7809137033D
:100D70009091380389278093390308951F920F9229
:100D80000FB60F9211242F933F938F939F93AF939E
:100D9000BF938091710790917207A0917307B091F2
:100DA00074073091700723E0230F2D3758F5019613
:100DB000A11DB11D20937007809371079093720756
:100DC000A0937307B093740780916C0790916D079F
:100DD000A0916E07B0916F070196A11DB11D809380
:100DE0006C0790936D07A0936E07B0936F07BF9148
:100DF000AF919F918F913F912F910F900FBE0F90C8
:100E00001F90189526E8230F0296A11DB11DD2CF81
:100E10001F920F920FB60F9211242F933F934F936F
:100E20005F936F937F938F939F93AF93BF93EF9352
:100E3000FF93809184009091850020913603821B5E
:100E40009109909369018093680180913403909196
:100E50003503C09709F069C01092670120916701BE
:100E600080913D0390913E032817190609F04BC06D
:100E700080914703809366018091460380936501CA
:100E80008091440390E090938B0080938A0080913E
:100E90004503809336038091480387708093330322
:100EA0008091420380933203109264018091320357
:100EB00020E2829FC0011124855B9C4F90933103F7
:100EC0008093300380913303082E000C990B982FE8
:100ED000882780509F4F90932F0380932E0381E0AB
:100EE00080936701FF91EF91BF91AF919F918F9197
:100EF0007F916F915F914F913F912F910F900FBE16
:100F00000F901F90189584ED90E090938B00809344
:100F10008A008FEF809366018093650110923303FE
:100F20001092360310923203BFCF60912E0370915E
:100F30002F0380913003909131030E94ED0820919E
:100F4000670180910201909103012817190689F524
:100F50008FEF8093330320E030E030932F03209312
:100F60002E0390913C039093320320913A033091E9
:100F70003B03309331032093300324ED30E0309372
:100F80008B0020938A001092360380936601809331
:100F9000650180916701883F09F051C080916F0021
:100FA0008B7F80936F00809169078F5F80936907C3
:100FB00099CF2091670180913D0390913E032817BE
:100FC000190639F7809147038093660180914603A3
:100FD000809365018091440390E090938B0080930F
:100FE0008A0080914503809336032091000130915F
:100FF0000101820F932F911D9093010180930001B5
:10100000809148038770809333032091420320939B
:10101000320390E2299F90011124255B3C4F3093CD
:10102000310320933003082E000C990B982F88274A
:1010300080509F4F90932F0380932E03AACF8091CF
:1010400033038F5F80933303883021F5109233038D
:1010500080E091E090932F0380932E0380913203E0
:101060008F5F80933203803279F4809143038093C1
:10107000320320E2829FC0011124855B9C4F909334
:101080003103809330032ECF809130039091310350
:101090008096F5CF80912E0390912F039395909396
:1010A0002F0380932E031ECF1F920F920FB60F9225
:1010B00011242F938F939F93809134039091350344
:1010C000019690933503809334038833914091F4D3
:1010D00084EB93E09093890080938800109235030D
:1010E000109234039F918F912F910F900FBE0F900C
:1010F0001F9018958091340390913503089739F427
:101100008AE490E09093890080938800EBCF8091EF
:10111000340390913503C09729F780916F00846064
:1011200080936F00DFCFF999FECF41BD50BDFA9A91
:10113000F99A0895552740E042BD50916201F3DFCE
:10114000509163014395EFDF089540E042BD41BDFA
:10115000F89A50B550936201439541BDF89A50B545
:10116000509363010895DF93CF93FA0141E055272F
:10117000EC0121912993219130916A01832F87708D
:10118000280F322F36953695369539932770319141
:10119000FB0160E21F920F92369FE00DF11D0F9050
:1011A0001F9030E1859188838591888B58A32517FE
:1011B00069F0822F8894988197959883988997955C
:1011C000988B98A1979598A38A95A9F7C40FD51FD6
:1011D0003A9541F7CF91DF91089520910001409118
:1011E00068012395421700F02395421700F02395DC
:1011F000421700F0549ADC0198E0209166018D912D
:10120000FB01E80F449180914001482B4223409319
:10121000C6008D91FB01DF939093C1005498CF934A
:10122000D2E0E80F249180914101282B2093C60041
:101230001F93C4E38D91FB01E80F2491809142013B
:10124000282B0F932093C6008D91FB01E80F24916A
:1012500080914301282B409167012093C6008D9116
:10126000FB01E80F249180914401282B8D9120935C
:10127000C600FB01E80F249180914501282B042F23
:101280000395009367012093C600042F1881011B6A
:101290008D91FB01E80F249180914601282B20932A
:1012A000C60001BDE2978D91FB01E80F249180916A
:1012B0004701282B18812093C6008D91FB01E80F70
:1012C000249180914801282B042F011B2093C600F4
:1012D0008D91FB01E80F249180914901282B00BDDD
:1012E00033272093C600E297042F8D91FB01E80F6E
:1012F000249180914A01282B2093C60018818D915A
:10130000FB01E80F249180914B01282B011BE297F0
:101310002093C6000BBD042F8D91FB01E80F249193
:1013200080914C01282B30934C012093C6003093C0
:101330004B018D91FB01E80F249180914D01282BE9
:1013400030934D012093C60030934A018D91FB01EB
:10135000E80F249180914E01282B30934E01209369
:10136000C600309349018D91FB01E80F24918091D3
:101370004F01282B30934F012093C6003093480132
:101380008D91FB01E80F249180915001282B30931F
:1013900050012093C600309347018D91FB01E80F67
:1013A000249180915101282B309351012093C60044
:1013B000309346018D91FB01E80F249180915201F9
:1013C000282B309352012093C600309345018D9114
:1013D000FB01E80F249180915301282B3093530196
:1013E0002093C600309344018D91FB01E80F2491B6
:1013F00080915401282B309354012093C6003093E0
:1014000043018D91FB01E80F249180915501282B18
:10141000309355012093C600309342018D91FB011A
:10142000E80F249180915601282B30935601209388
:10143000C600309341018D91FB01E80F249180910A
:101440005701282B309357012093C60018818D91A6
:10145000FB01E80F249180915801282B309358010B
:101460002093C600011BE2970ABD042F8D91FB015A
:10147000E80F249180915901282B2093C6003093C6
:1014800059018D91FB01E80F249180915A01282B7D
:1014900030935A012093C60018818D91FB01E80F0B
:1014A000249180915B01282B30935B012093C6002F
:1014B000011B0EBB8D91FB01E80F249180915C0113
:1014C000282B30935C012093C60011E000E48D913D
:1014D000FB01E80F249180915D01282B30935D0181
:1014E0002093C60090916501309340018D91FB01DE
:1014F000E80F249180915E01282B2093C600309341
:101500005E0155278D91FB01E80F249180915F01C9
:10151000282B29232093C60030935F011092C1002D
:10152000CE012EB3203158F43981D801A30FC20F58
:10153000D51F3A813D933A893D933AA13D93C29696
:101540002AB5203190F4EC013981D801A30FC20FE4
:10155000D51F3A812C91322B3D933A892C91322B15
:101560003D933AA12C91322B3D93C2962BB520315D
:1015700090F4EC013981D801A30FC20FD51F3A8135
:101580002C91322B3D933A892C91322B3D933AA1E9
:101590002C91322B3D93C29620B5203190F4EC0172
:1015A0003981D801A30FC20FD51F3A812C91322B5C
:1015B0003D933A892C91322B3D933AA12C91322BB9
:1015C0003D93C29621B5203190F4EC013981D801C8
:1015D000A30FC20FD51F3A812C91322B3D933A892C
:1015E0002C91322B3D933AA12C91322B3D93C296F4
:1015F000EC01242F3881231B203188F43981D80154
:10160000A30FC20FD51F3A812C91322B3D933A89FB
:101610002C91322B3D933AA12C91322B3D93C296C3
:10162000EC01242F3881231B203188F43981D80123
:10163000A30FC20FD51F3A812C91322B3D933A89CB
:101640002C91322B3D933AA12C91322B3D93C29693
:10165000EC01242F3881231B203188F43981D801F3
:10166000A30FC20FD51F3A812C91322B3D933A899B
:101670002C91322B3D933AA12C91322B3D93C29663
:10168000EC01242F3881231B2031F0F43981D8015B
:10169000A30FC20FD51F3A812C91832F322B8223A7
:1016A0003D933A892C91932F322B9223892B3D9392
:1016B0003AA12C91932F322B9223892B3D93909119
:1016C0006401892B8093640120910001409168019D
:1016D000421714F4409300010F911F91CF91DF91B5
:1016E0000895789484B5826084BD84B5816084BD9A
:1016F00085B5826085BD85B5816085BD80916E00B0
:10170000816080936E0010928100809181008260E0
:10171000809381008091810081608093810080911D
:1017200080008160809380008091B100846080930C
:10173000B1008091B00081608093B00080917A0008
:10174000846080937A0080917A00826080937A002E
:1017500080917A00816080937A0080917A0080681D
:1017600080937A001092C1000E94A5088FEF9FEF2E
:10177000909301018093000193E69093B0008BE079
:101780008093B10094BD85BD84E285B984E184B9BC
:1017900082E08093C00088E08093C10080EC809359
:1017A000C2001092C5001092C400219AF89483ECF4
:1017B0008093800089E08093810084EB93E0909394
:1017C00089008093880084ED90E090938B00809353
:1017D0008A0081E080936F0010928500109284004F
:1017E000789480916E008E7F80936E000E949F0699
:1017F000EBE4F3E0119287E0EB34F807D9F780E1EE
:1018000090E090933E0380933D0388EE90E09093A8
:1018100003018093020182E080933C0385E0809382
:1018200043038BE893E090933B0380933A032CE6C9
:1018300034E080E040E1480FF901982F8F5F9193E9
:10184000982F8413FBCF205E3F4F803C99F7E0E058
:10185000F9E0ABE8B3E084918D938111805E5F96EF
:101860008C935F97319699E0E032F907A1F71092D7
:101870004C0710924A031092680710924B0781E0C0
:1018800090E090936B0780936A0768E6262E67E0E6
:10189000362EDEEF4EE2842E43E0942E50E0A52E4D
:1018A00050E0B52E90E080E05091690740913F03F1
:1018B0009C012F5F3F4F541709F403C190934103DC
:1018C000809340038091690780933F030E949F06A5
:1018D00080916A0790916B07019709F0D7C0C0917A
:1018E00068070DE417E0809169076C2F70E090E0C5
:1018F00080E00E94480E2DEF3DEA40E05DE30E944B
:10190000D40E6B017C010E94410F2B013C0120E0B1
:1019100030E040E450E4C701B6010E94D40E2BED44
:101920003FE049EC5FE30E94A40D0E94410F9058F4
:1019300020E030E044EB52E40E94D40E0E94100EEE
:101940006059F801608320E030E048EE52E4C301C2
:10195000B2010E94D40E0E94100E6C58F8016183EF
:1019600084E18C0FC45B893C08F4C82F0D5F1F4FC6
:101970002016310609F0B7CFCF5FC093680790916A
:101980004C0721E0290F80914B07C09143030C2F96
:1019900010E020934C07943608F0ACC09FEF980FEE
:1019A00097FD91C090934B076091690770E090E0BC
:1019B00080E00E94480E2BED3FE049EC5CE30E9482
:1019C000D40E0E94410FF0904B0720E030E048E435
:1019D00052E40E94D40E0E94100E6254862F90E0B2
:1019E00090934903809348032F2D30E030936B018F
:1019F00020936A014F2D47702FE730E0042E02C07C
:101A0000359527950A94E2F72093470327E030E0C5
:101A1000241B31093D2F022E01C0330F0A94EAF72F
:101A200030934603220F209345032C522093440306
:101A300023E0969587952A95E1F760E270E0601BB8
:101A4000710B0E94DD0FC80FC0934203809169079C
:101A500065E00E94D10F911119C0EBE4F3E08181A0
:101A600081938AE893E08E179F07C9F780914A0314
:101A7000E82FF0E0E05EF44FE491E0936A03E111B7
:101A8000E05EE0938A038F5F80934A030CE611E0E7
:101A90008DE4E82E87E0F82EA70160E279E0C80126
:101AA0000E94B3080E5C1F4F93E0E90EF11C8016F4
:101AB000910691F7A114B10409F4F4CE0E9400003C
:101AC000E9CEC901F1CE895F80934B072C2FEAE460
:101AD000F7E0203208F068CFCF014F97DF013E9149
:101AE00011963C9311978A179B07C9F7B0971182FB
:101AF0002F5FEFCF91E0980F983010F187508093CF
:101B00004B07F80135E0EE0FFF1F3A95E1F7E55B73
:101B1000FC4F3C2F303230F0283C09F045CF10927A
:101B20004C0742CFCF014F96DF0111964C91119790
:101B30004D938A179B07C9F7178E3F5FB096EACF80
:101B400090934B07E9CF5058BB27AA270E94BB0DA3
:101B50000C949A0E0E948C0E38F00E94930E20F086
:101B600039F49F3F19F426F40C94890E0EF4E09595
:101B7000E7FB0C94830EE92F0E94AB0E58F3BA17C3
:101B8000620773078407950720F079F4A6F50C9493
:101B9000CD0E0EF4E0950B2EBA2FA02D0B01B9013E
:101BA00090010C01CA01A0011124FF27591B99F0D3
:101BB000593F50F4503E68F11A16F040A22F232FDF
:101BC000342F4427585FF3CF469537952795A7952F
:101BD000F0405395C9F77EF41F16BA0B620B730BD6
:101BE000840BBAF09150A1F0FF0FBB1F661F771F47
:101BF000881FC2F70EC0BA0F621F731F841F48F4FC
:101C0000879577956795B795F7959E3F08F0B0CF84
:101C10009395880F08F09927EE0F9795879508956B
:101C20000E94170E6894B1110C94CE0E08950E9474
:101C3000B30E88F09F5798F0B92F9927B751B0F09D
:101C4000E1F0660F771F881F991F1AF0BA95C9F740
:101C500014C0B13091F00E94CD0EB1E008950C9403
:101C6000CD0E672F782F8827B85F39F0B93FCCF3B6
:101C7000869577956795B395D9F73EF490958095BD
:101C8000709561957F4F8F4F9F4F0895E89409C0DD
:101C900097FB3EF490958095709561957F4F8F4F9F
:101CA0009F4F9923A9F0F92F96E9BB279395F695B5
:101CB000879577956795B795F111F8CFFAF4BB0F33
:101CC00011F460FF1BC06F5F7F4F8F4F9F4F16C097
:101CD000882311F096E911C0772321F09EE8872F21
:101CE000762F05C0662371F096E8862F70E060E0DD
:101CF0002AF09A95660F771F881FDAF7880F969556
:101D0000879597F9089597F99F6780E870E060E0FC
:101D100008959FEF80EC089500240A941616170684
:101D200018060906089500240A94121613061406CC
:101D300005060895092E0394000C11F4882352F02F
:101D4000BB0F40F4BF2B11F460FF04C06F5F7F4FE7
:101D50008F4F9F4F089557FD9058440F551F59F0CE
:101D60005F3F71F04795880F97FB991F61F09F3F88
:101D700079F087950895121613061406551FF2CFB1
:101D80004695F1DF08C0161617061806991FF1CF01
:101D900086957105610508940895E894BB27662728
:101DA0007727CB0197F908950E94E70E0C949A0EBD
:101DB0000E948C0E38F00E94930E20F0952311F0B3
:101DC0000C94830E0C94890E11240C94CE0E0E9458
:101DD000AB0E70F3959FC1F3950F50E0551F629FB6
:101DE000F001729FBB27F00DB11D639FAA27F00D74
:101DF000B11DAA1F649F6627B00DA11D661F829F9B
:101E00002227B00DA11D621F739FB00DA11D621F7F
:101E1000839FA00D611D221F749F3327A00D611D9C
:101E2000231F849F600D211D822F762F6A2F11247E
:101E30009F5750409AF0F1F088234AF0EE0FFF1FB1
:101E4000BB1F661F771F881F91505040A9F79E3F08
:101E5000510580F00C94830E0C94CE0E5F3FE4F39A
:101E6000983ED4F3869577956795B795F795E7955E
:101E70009F5FC1F7FE2B880F911D9695879597F967
:101E800008959F930E944B0F0F9007FCEE5F0C94F8
:101E9000740F0C94890E0E94B30ED8F3E894E0E01E
:101EA000BB279F57F0F02AED3FE049EC06C0EE0F4C
:101EB000BB0F661F771F881F28F0B23A62077307AF
:101EC000840728F0B25A620B730B840BE3959A9542
:101ED00072F7803830F49A95BB0F661F771F881F02
:101EE000D2F790480C948A0FEF93E0FF07C0A2EA64
:101EF0002AED3FE049EC5FEB0E94BB0D0E949A0E79
:101F00000F90039401FC9058E8E6F0E00C94960FD3
:101F10009F3F31F0915020F4879577956795B7955D
:101F2000880F911D9695879597F908959F938F93A4
:101F30007F936F93FF93EF939B01AC010E94D40EAC
:101F4000EF91FF910E94AA0F2F913F914F915F91C6
:101F50000C94D40EDF93CF931F930F93FF92EF92C5
:101F6000DF927B018C01689406C0DA2EEF010E949B
:101F7000E70EFE01E894A591259135914591559183
:101F8000A6F3EF010E94BB0DFE019701A801DA94B0
:101F900069F7DF90EF90FF900F911F91CF91DF9144
:101FA0000895991B79E004C0991F961708F0961BB5
:101FB000881F7A95C9F780950895AA1BBB1B51E12C
:101FC00007C0AA1FBB1FA617B70710F0A61BB70BA9
:101FD000881F991F5A95A9F780959095BC01CD014E
:061FE0000895F894FFCF04
:041FE600FFFF58029F
:00000001FF
