:100000000C9400210C941D210C941D210C941D2195
:100010000C941D210C941D210C941D210C941D2168
:100020000C941D210C941D210C941D210C941D2158
:100030000C94D0280C94292A0C941D210C941D2179
:100040000C9486280C941D210C941D210C941D21C8
:100050000C941D210C941D210C941D210C941D2128
:100060000C941D210C941D210000000000000000D4
:100070000000000000000000000000000000000080
:100080000000000000000000000000000000000070
:100090000000000000000000000000000000000060
:1000A0000000000000000000000000000000000050
:1000B0000000000000000000000000000000000040
:1000C0000000000000000000000000000000000030
:1000D0000000000000000000000000000000000020
:1000E0000000000000000000000000000000000010
:1000F0000000000000000000000000000000000000
:10010000050606132215141924057874706C6864AA
:10011000605C585450484038302820182028303827
:1001200040485054585C6064686C707478010104F5
:10013000C8C3BEB9B6B401010504184B4C4C4D4BB5
:100140004C4C4D4B4C4C4D4B4C4C4D4B4C4C4D4BEF
:100150004C4C4D050318505152695354556956572C
:10016000556958595A695B595A696465516605055C
:10017000041625151C0000003C3CF103023C3CE247
:1001800007013C3C830A083D3F740E043D3F651265
:10019000103D3F02C8C6CAC4CCC2CEC0D0BED2BC7D
:1001A000D4BAD6B8D8B6DA000202000201010101C1
:1001B0000501010101090101010105030101040318
:1001C0000101030103070103030302020303020306
:1001D000060302030204020D190B0C0C0C101D295E
:1001E00023241522290D160B0C0C0C1008000010EE
:1001F0002024230D130B0C0C0C10010500102024DF
:10020000230D100B0C0C0C10010000102024230DEA
:100210000D0B0C0C0C10100800102024230D0A0BE1
:100220000C0C0C101005001020242320202020206E
:10023000202122212221220D0E0F0D0E0F23232318
:100240002323232625272725262424242424240980
:10025000070F2B1023131F2215102411121C151029
:100260002B17000500102024230804112B10231342
:100270001F22151022111E1B191E17102B061515F3
:100280001F252210231322111D121C1510232923B0
:1002900024151D100D051216181F271016112210F7
:1002A00013111E10291F2510191E261114150A1DC1
:1002B0000D0F101B1F1E111D191001090801041834
:1002C00018121F1E2523101A15241010161F221095
:1002D00001000000001020242309140F1F1E151018
:1002E000201C11291522101F1E1C29081111202560
:1002F000231810232411222410122524241F1EC089
:1003000033BC310000B032AB310000A0339B300071
:100310000093308B33000083307B310000703268F3
:1003200032000060346B2D0000732D7B2E000080A6
:100330003680360001832C83300000803680360002
:10034000018036803600008036803600018036809D
:10035000360000803680360001803680360001800D
:1003600036803600018035803500008036803600CA
:100370000483357B30000073306B310000603260E5
:100380002C00006B2C732C00007B2F832F00008B24
:100390002E932D0000982EA02E0000AB2DB02F0024
:1003A00000BB2CC32C0000C836C82E0000D32DDBA8
:1003B0002E0000E036E0360001E036E0360001D8DD
:1003C00032D8350000DB2CE0360000E036E03600A5
:1003D00002E036E0360002E036D8340000E036E0D5
:1003E000360001E036E0360001E036E0360004D8A1
:1003F00032D8350000D030D02D0000DB2FE03600A1
:1004000000E036E0360000E036E0360001E036E09D
:10041000360000E036E0360001E036E0360000E06D
:1004200036E0360001E036E0360004E036E0360023
:1004300002D830D3300000D02CD82E0000E036E0B7
:10044000360001E036DB330000D033CB330000C888
:1004500036C8360001C031C0360000C036C0360094
:1004600001B934C0350000C036C0360001B834B818
:10047000330000B836B8360001B836B8360001B0DF
:1004800033A8340000B036B0360004B036B03600C1
:1004900002A833A0320000A036A0360001A036A08A
:1004A000360001983498300000982C98330000985A
:1004B0003698360001983698360001903490330013
:1004C000009036903600019036903600018B3283D2
:1004D0003100007B33733400007B2D832E00008BB2
:1004E0002D932F00009B2CA32E0000AB2CB32D00CE
:1004F00000B836B8360001B836B8360001B332ABB2
:10050000330000A034A0340000A836A8360001A3B0
:10051000329B3200009034983500009836983600AF
:100520000193308B33000083327B30000073336BD8
:1005300031000060346B2E00007035702E000078A2
:1005400036783600017B2D832D00008836883600F2
:10055000028B2F932D00009B2EA0350000A036A00B
:10056000360001A32CA33000009B33903300009091
:1005700036903600019036903600048830882C0082
:10058000009036903600018834932E00009B2DA3F6
:100590002F0000AB2CB32E0000BB2FC32C0000C8D3
:1005A00036CB2E0000D036D0360001D035C834000E
:1005B00000D036D0360002D036D0360002CB31C360
:1005C000330000C036C0360001C036BB320000B078
:1005D00030B02E0000B836B3330000AB32AB2C0085
:1005E00000B32CBB2C0000C32CC8360000C836C892
:1005F000360001C836C8350000C836C0340000CB0C
:100600002CD32C0000DB2CDB300000D836D8360091
:1006100002DB2DE0360000E036E0360004D834D8A6
:10062000300000D836D8360001D330CB320000C8B5
:1006300036C8360001C836C8360004CB2CD0350089
:1006400000CB30C8360000C033BB330000B331AB41
:10065000330000A034A8350000A836A8360001A851
:1006600036A8360001A836A8360004A836A83600F9
:1006700002A835A82C0000B036B0360001B036B064
:10068000360001B036B0360001B036B0360000A8F2
:1006900034A8310000A836A8360002A836A83600D3
:1006A00001A836A8360004AB2FB32E0000BB2DC026
:1006B000350000C036C0360002BB31B3320000AB9B
:1006C00031A0340000A3319B3200009333903500F9
:1006D000008B32803400008B2C932E00009B2FA3C4
:1006E0002C0000AB2DB32E0000BB2DC32F0000FF4C
:1006F000C82ED0362863285E00D036D02D285E3034
:100700006300D836D836305E305E02D82FE03638F7
:1007100063385E00E036D831385E406300D030C8C0
:10072000304862486200C030B831485D506200B85D
:1007300036B835505E5F6200B034B82C5F5D5F60E4
:1007400000C035B8345060486000C02DC82C4862E5
:10075000506200D036D02C5060506200D82DD83175
:100760005F625F6000D032C8315F625F6000C0329C
:10077000C02F5060486000C82FC8334862486000EE
:10078000C82CD02C4060386000D030D02D3862406A
:100790006200D031C8344862486000C830C0304080
:1007A00060386100B830B0303862406300B02CB0BF
:1007B000304060386100B036B02C3060306200B834
:1007C0002CB8303862386000B82CC02C30603062F1
:1007D00000C836C0303862405C00C02CC835386074
:1007E000306100C030C02C285E286000C031B830B5
:1007F0002862306200B032B0363862406200B02EFB
:10080000B82D4862506200C02EC82D5F625F3A006A
:10081000D036D0365F3A5F6001D036D036503A508D
:100820003A02D036D0365F625F3A01D036D0365FBA
:100830003A5F3A02D036D02E5F3A5F3A00D836D8C7
:10084000365F3A5F6004D836D8365060486004D0CE
:1008500032D0364060386000D036D036303A303A48
:1008600001C831C032303A303A00C036C036303A72
:10087000303A01B831B032303A306000B036B0367C
:10088000283A283A00B036B036283A283A00B02E36
:10089000B82D3062303A00C036C02E303A303A00BF
:1008A000C836C8363862406204C836C8364862481E
:1008B0003A01C82ED036483A506200D036D0365F62
:1008C000625F3A04D036D02D5F3A5F6000D836D8E8
:1008D000365060486001D836D8364060386002D063
:1008E00031C8323060286000C031B83028623062D0
:1008F00000B032B0363862406200B02EB82D486287
:10090000506200C02EC82D5F625F3A00D036D036EC
:100910005F3A5F6001D036D036503A503A01D03657
:10092000D0365F625F3A02D036D0365F3A5F3A0225
:10093000D036D02E5F3A5F3A00D836D8365F3A5F6D
:100940006001D836D8365060486001D032D0364089
:1009500060386000D036D036303A303A04C831C002
:1009600032303A303A00C036C036303A303A01B808
:1009700031B032303A306000B036B036283A283ADA
:1009800000B036B036283A283A00B02EB82D306282
:10099000303A00C036C02E303A303A00C836C83639
:1009A0003862406204C836C8364862483A04C82EE5
:1009B000D036483A506200D036D0365F625F3A0196
:1009C000D036D02D5F3A5F6000D836D836506048B8
:1009D0006004D836D8364060386004D031C8323030
:1009E00060286000C82CD02C2862306200D82CE02F
:1009F000363862406200E036E0364862506201E01C
:100A000036D8345F5C506000E036E03648604060C5
:100A100002E036E0363860306001E036E036285ECD
:100A2000306201D834E036365C306000E036E036C3
:100A3000285E305C04E036E036285E306201E03645
:100A4000E0363862406204D830D0304862575C00EB
:100A5000C830C0304860406000B830B034386030D2
:100A60006000B82CC02C283A283A00C82CD02C287A
:100A70003A283A00D82CD834283A283A00E036E010
:100A800036283A305C01E036E036283A283A02D877
:100A900030D034283A283A00D82CE036283A283A80
:100AA00000E036E036283A283A01E036E036283AC7
:100AB000283A01E036E036283A283A01E036D834C0
:100AC000283A283A00E036E036283A283A04E03658
:100AD000D830283A283A00D030C830283A28600068
:100AE000FFC836CB2E0000D32CDB2E0000E036E012
:100AF000360001DB30D3330000D035CB320000C3E9
:100B000033B8300000BB2FC32D0000CB2ED32C00F8
:100B100000DB2EE0360000E036E0360001E036E093
:100B2000360002E036E0360001DB30D0320000D380
:100B30002EDB2C0000DB30D3320000C834D32F0072
:100B400000D836D8360002D330CB330000C330BBD8
:100B5000330000B82FB8300000B82EC32D0000CBF2
:100B60002CD32F0000D836D8360001D836DB2E0023
:100B700000E036E0360004E036E0360002E036DB26
:100B8000330000D330C8300000C033B8340000C395
:100B90002FCB2D0000D32CDB2F0000E036E03600F9
:100BA00002D832D8350000DB2CE0360000E036E019
:100BB000360004E036E0360004E036D8340000E0C9
:100BC00036E0360002E036E0360001E036E036007E
:100BD00001D832D8350000D030D02D0000DB2FE016
:100BE000360000E036E0360004E036E0360004E08F
:100BF00036E0360001E036E0360002E036E036004E
:100C000001DB30D3310000CB32C3330000BB31BB3A
:100C10002C0000C32DCB2E0000D02CD82E0000E0DD
:100C200036E0360002E036DB330000D033CB330051
:100C300000C836CB2E0000D32CDB2E0000E036E0BF
:100C4000360004DB30D3330000D035CB320000C394
:100C500033B8300000BB2FC32D0000CB2ED32C00A7
:100C600000DB2EE0360000E036E0360002E036E041
:100C7000360001E036E0360001DB30D0320000D330
:100C80002EDB2C0000DB30D3320000C834D32F0021
:100C900000D836D8360002D330CB330000C330BB87
:100CA000330000B82FB8300000B82EC32D0000CBA1
:100CB0002CD32F0000D836D8360000D836DB2E00D3
:100CC00000E036E0360004E036E0360002E036DBD5
:100CD000330000D330C8300000C836CB2E0000D31C
:100CE0002CDB2E0000E036E0360001DB30D3330091
:100CF00000D035CB320000C333B8300000BB2FC367
:100D00002D0000CB2ED32C0000DB2EE0360000E0BF
:100D100036E0360001E036E0360001E036E036002D
:100D200002DB30D0320000D32EDB2C0000DB30D3CE
:100D3000320000C834D32F0000D836D8360002D392
:100D400030CB330000C330BB330000B82FB83000C5
:100D500000B82EC32D0000CB2CD32F0000D836D8DE
:100D6000360000D836DB2E0000E036E0360002E028
:100D700036E0360004E036DB330000D330C8300004
:100D800000FF604E604E0000604E604E0000604EFE
:100D9000604E0000604E604E0000704E704E0001CC
:100DA000604E604E0001604E604E0000784E784EFE
:100DB0000001604E604E0001484E484E0000584E03
:100DC000584E0001484E484E0000584E584E000103
:100DD000584E584E0001684E684E0001684E684EED
:100DE0000002784E784E0001784E784E0001884E11
:100DF000884E0001884E884E0002984E984E0001A1
:100E0000984E984E0001904E904E0004904E904E99
:100E10000004904E904E0001904E904E0000A04E67
:100E2000A04E0001804E804E0000904E904E00017A
:100E3000704E704E0000804E804E0001604E604E3D
:100E40000000704E704E0001504E504E0000604E3B
:100E5000604E0001504E504E0000484E484E00007B
:100E6000584E584E0001504E504E0000504E504EBD
:100E70000000604E604E0001584E584E0000684E13
:100E8000684E0001604E604E0000704E704E0001D2
:100E9000684E684E0000784E784E0001704E704EDD
:100EA0000000804E804E0001804E804E0000804E3B
:100EB000804E0000804E804E0004804E804E000226
:100EC000804E804E0004804E804E0001804E804E49
:100ED0000001784E784E0001704E704E0002684E50
:100EE000684E0004604E604E0001604E604E00018E
:100EF000584E584E0000584E584E0000604E604EFE
:100F00000001484E484E0000484E484E0000504EEA
:100F1000504E0001484E484E0001584E584E0001B8
:100F2000484E484E0000504E504E0001484E484E2C
:100F30000000604E604E0001504E504E0002404E88
:100F4000404E0000604E604E0001404E404E00009A
:100F5000604E604E0001404E404E0000504E504EDC
:100F60000001404E404E0000504E504E0001604E79
:100F7000604E0000604E604E0002604E604E000009
:100F8000604E604E0002604E604E0000604E604E4B
:100F90000002704E704E0001604E604E0001604EC7
:100FA000604E0000784E784E0001604E604E0001A9
:100FB000484E484E0000584E584E0001484E484E8C
:100FC0000000584E584E0001584E584E0001684ED1
:100FD000684E0001684E684E0002784E784E00015F
:100FE000784E784E0001884E884E0001884E884E1B
:100FF0000002984E984E0001984E984E0001904E77
:10100000904E0004904E904E0004904E904E000181
:10101000904E904E0000A04EA04E0001804E804E9B
:101020000000904E904E0001704E704E0000804EB9
:10103000804E0001604E604E0000704E704E000108
:10104000504E504E0000604E604E0001504E504ECB
:101050000000484E484E0000584E584E0001504E79
:10106000504E0000504E504E0000604E604E000149
:10107000584E584E0000684E684E0001604E604E5B
:101080000000704E704E0001684E684E0000784EB1
:10109000784E0001704E704E0000804E804E000170
:1010A000804E804E0000804E804E0000804E804E6C
:1010B0000004804E804E0002804E804E0004804E20
:1010C000804E0001804E804E0001784E784E000127
:1010D000704E704E0002684E684E0004604E604EC6
:1010E0000001604E604E0001584E584E0000584EB0
:1010F000584E0000604E604E0001484E484E0000C1
:10110000484E484E0000504E504E0001484E484E4A
:101110000001584E584E0001484E484E0000504EB7
:10112000504E0001484E484E0000604E604E000197
:10113000504E504E0002404E404E0000604E604EF9
:101140000001404E404E0000604E604E0001404E97
:10115000404E0000504E504E0001604E604E000068
:10116000604E604E0000604E604E0000604E604E6B
:101170000000FF604E604E474E474E02604E604E8C
:10118000474E474E02604E604E374E374E00604E1F
:10119000604E374E374E00604E604E374E374E0031
:1011A000504E504E374E374E02504E504E374E37FF
:1011B0004E00604E604E374E374E00604E604E37E8
:1011C0004E374E00604E604E374E374E00604E60D8
:1011D0004E474E474E00604E604E474E474E0060B1
:1011E0004E604E474E474E02604E604E474E474E51
:1011F00002604E604E474E474E02604E604E2F4E8C
:101200002F4E02604E604E2F4E2F4E00604E604EAD
:101210002F4E2F4E00404E404E2F4E2F4E00404E30
:10122000404E2F4E2F4E00404E404E2F4E2F4E0020
:10123000404E404E2F4E2F4E00404E404E2F4E2FD0
:101240004E00A04EA04E2F4E2F4E00A04EA04E2F6F
:101250004E2F4E00A04EA04E2F4E2F4E00A04EA05F
:101260004E2F4E2F4E00A04EA04E2F4E2F4E02A0BE
:101270004EA04E2F4E2F4E02A04EA04E374E374E50
:1012800002A04EA04E8F4E8F4E02A04EA04E8F4E0B
:101290008F4E02A04EA04E8F4E8F4E02A04EA04EFB
:1012A0008F4E8F4E00A04EA04E8F4E8F4E00A04E00
:1012B000A04E8F4E8F4E00D84ED84E8F4E8F4E0080
:1012C000D84ED84E8F4E8F4E00D84ED84E8F4E8F60
:1012D0004E00D84ED84EC74EC74E00D84ED84EC737
:1012E0004EC74E02D84ED84EC74EC74E02D84ED823
:1012F0004EC74EC74E02D84ED84EC74EC74E02D824
:101300004ED84EC74EC74E00D84ED84E3F4E3F4ED9
:1013100000D84ED84E3F4E3F4E00D84ED84E3F4E8E
:101320003F4E00D84ED84E3F4E3F4E00D84ED84E7E
:101330003F4E3F4E00D84ED84E3F4E3F4E00504E8F
:10134000504E3F4E3F4E00504E504E3F4E3F4E008F
:10135000504E504E3F4E3F4E00504E504E3F4E3F2F
:101360004E00504E504E3F4E3F4E00D84ED84E3F4E
:101370004E3F4E00D84ED84E3F4E3F4E00D84ED82E
:101380004E3F4E3F4E00D84ED84E3F4E3F4E00D8B7
:101390004ED84E3F4E3F4E00D84ED84E3F4E3F4E59
:1013A00000D84ED84E3F4E3F4E00D84ED84EC74E76
:1013B000C74E00D84ED84EC74EC74E00D84ED84E56
:1013C000C74EC74E00D84ED84EC74EC74E00D84E57
:1013D000D84EC74EC74E00D84ED84EC74EC74E0047
:1013E000D84ED84EC74EC74E00D84ED84E4F4E4F4F
:1013F0004E00D84ED84E4F4E4F4E00D84ED84E4F7E
:101400004E4F4E00D84ED84E4F4E4F4E00D84ED86D
:101410004E4F4E4F4E00604E604E4F4E4F4E00604E
:101420004E604E4F4E4F4E00604E604E4F4E4F4EF0
:1014300000604E604E374E374E00604E604E374E65
:10144000374E00484E484E374E374E00484E484EB5
:10145000374E374E00484E484E374E374E00584EA6
:10146000584E374E374E00584E584E374E374E0076
:10147000584E584E474E474E00584E584E474E47CE
:101480004E00584E584E474E474E00584E584E4705
:101490004E474E00D84ED84E474E474E00D84ED8F5
:1014A0004E474E474E00D84ED84E474E474E00D876
:1014B0004ED84E474E474E00D84ED84E474E474E18
:1014C00000D84ED84EC74EC74E00D84ED84EC74E45
:1014D000C74E00D84ED84EC74EC74E00D84ED84E35
:1014E000C74EC74E00D84ED84EC74EC74E00D84E36
:1014F000D84EC74EC74E00D84ED84EC74EC74E0026
:10150000D84ED84EC74EC74E00D84ED84E3F4E3F4D
:101510004E00D84ED84E3F4E3F4E00D84ED84E3F8C
:101520004E3F4E00D84ED84E3F4E3F4E00D84ED87C
:101530004E3F4E3F4E00D84ED84E3F4E3F4E00508D
:101540004E504E3F4E3F4E00604E604E3F4E3F4E1F
:1015500000604E604E3F4E3F4E00604E604E3F4E2C
:101560003F4E00FFC84EC84E0000C84EC84E000097
:10157000904E904E0000504E504E0000904E904EB7
:101580000000C84EC84E0000C84EC84E0000984E1D
:10159000984E0000984E984E0000984E984E0000CD
:1015A000C84EC84E0000481B481F0000481E481186
:1015B0000000481D48190000C84EC84E0000984E53
:1015C000984E0000984E984E0000984E984E00009D
:1015D000C84EC84E0000C84EC84E0000C84EC84E87
:1015E0000008C84EC84E0000C84EC84E0000C84E85
:1015F000C84E0000704E704E0000704E704E0000DD
:10160000C84EC84E0000C84EC84E0000FFFF00FE86
:1016100000FE00FE00FE00FE00FE00FE00FE00FEDA
:1016200002FE00FE02FE00FE02FE02FE02FE0200BC
:10163000020002020202020202020202020202028C
:101640000002020200020202000202020002000284
:101650000002000200020202000200020002020276
:101660000002000200020002020200020202000266
:1016700000020202020202000200020002FE02FE5A
:1016800002FE02FE02FE00FE02FE00FE02FE00FE60
:1016900002FE00FE02FE00FE00FE00FE00FE00FE56
:1016A00000181A181A1C1E1E1C1E1C1A18181A18AC
:1016B0001A1C1E1E1C1E1C1A1803646566676869C6
:1016C0006A6B6C6D6E6F7071727374757677787902
:1016D0007A7B7C7D7E7F80818283848586878889F2
:1016E0008A8B8C8D8E8F90919293949596979899E2
:1016F0009A9B9C9D9E9FA0A1A2A3A4A5A6A7A8A9D2
:10170000AAABACADAEAFB0B1B2B3B4B5B6B7B8B9C1
:10171000BABBBCBEBFC0C1C2C3C4C5C6C7C8CACCA1
:10172000CED0D2D4D6D8DADCDE016F0D06086C9AA2
:101730009B9C9D9E9F6C041119171F1F14101C2544
:10174000131B101E1528241024191D151011171114
:10175000191E040F19291F2510131F1D201C1524E5
:10176000151410291F252210142524191523090DDD
:101770000F131F1E17221124251C1124191F1E23AD
:101780000000000000000000000000000000000059
:101790000000000000000000000000000000000049
:1017A0000000000000000000000000000000000039
:1017B0000000000000000000000000000000000029
:1017C0000000000000000000000000000000000019
:1017D0000000000000000000000000000000000009
:1017E00000000000000000000000000000000000F9
:1017F00000000000000000000000000000000000E9
:10180000FF12FF36FFFFFFFFFFFFFFFFFFFFFFFF9E
:10181000FFFFFFFFFFFFFFFFFFFFFFFFFFFFFFFFD8
:10182000FFFFFFFFFFFFFFFFFFFFFFFFFFFFFF3790
:10183000FFFFFFFFFFFFFFFFFFFFFFFFFF38FFFF7F
:10184000FFFFFFFFFFFFFFFFFFFFFFFFFFFFFFFFA8
:10185000FFFFFFFFFFFF2F09FFFFFFFFFFFFFFFF5E
:10186000FFFF1DFFFFFFFFFFFFFFFFFFFFFFFFFF6A
:10187000FFFFFFFFFFFFFFFFFFFFFFFFFFFFFFFF78
:10188000FFFFFFFF10FFFFFFFFFFFFFFFFFFFFFF57
:10189000FFFFFFFFFFFFFFFFFFFFFFFF33FFFFFF24
:1018A00001FFFFFFFFFFFFFFFFFFFFFFFFFFFFFF46
:1018B000FFFFFFFFFFFFFFFFFFFF04FFFFFFFFFF33
:1018C00028FFFF12FFFFFFFFFF0BFFFFFFFFFFFFE0
:1018D00015FFFFFFFFFFFFFFFFFFFFFFFFFFFFFF02
:1018E000FFFFFFFFFFFFFFFFFFFFFFFFFFFFFFFF08
:1018F000FFFFFFFFFFFFFFFFFFFFFFFFFFFFFFFFF8
:10190000FFFFFFFFFFFFFFFFFFFFFFFFFFFFFFFFE7
:101910003DFFFFFFFFFFFFFFFFFFFF1CFFFFFFFF7C
:10192000FFFFFFFFFFFFFFFFFFFFFFFFFFFFFFFFC7
:10193000FFFFFF24FFFF333BFFFFFFFFFFFFFFFF22
:10194000FFFFFFFFFFFFFFFF11FFFFFFFFFFFFFF95
:10195000FFFFFFFFFF0AFFFFFFFFFFFFFFFFFFFF8C
:10196000FFFFFFFFFFFFFFFFFFFFFFFF01FFFFFF85
:10197000FFFFFFFFFFFFFFFFFFFFFFFFFFFFFFFF77
:10198000FFFFFF39FFFFFFFF18FFFFFFFFFFFFFF14
:10199000FFFFFFFFFFFF36FFFFFFFFFFFFFFFFFF20
:1019A00020FF26FFFFFFFFFFFFFFFFFFFFFFFFFFFF
:1019B000FFFFFFFFFFFFFFFFFFFFFFFFFFFFFFFF37
:1019C000FFFF1CFFFFFFFFFFFFFFFFFFFFFFFFFF0A
:1019D000FFFFFFFFFFFFFFFFFFFFFFFFFFFFFFFF17
:1019E00033FFFFFFFFFFFFFFFFFFFF07FFFFFFFFCB
:1019F000FFFFFFFFFFFFFF37FFFFFFFFFFFFFFFFBF
:101A0000FFFFFFFFFF34FFFFFFFF1838FF0CFFFF52
:101A1000FFFFFFFFFFFFFFFFFFFFFFFFFFFFFF13C2
:101A2000FFFFFFFFFFFFFFFFFFFFFFFFFFFFFFFFC6
:101A3000FFFFFFFFFFFFFFFFFFFFFFFFFFFFFFFFB6
:101A4000FFFFFFFFFFFFFFFFFFFFFFFFFFFFFF0D98
:101A5000FFFFFFFFFFFFFFFF03FFFFFFFFFFFFFF92
:101A6000FF2FFFFFFFFFFFFFFFFF36FFFFFFFFFF1F
:101A7000FFFFFF08FFFFFFFFFFFFFFFFFFFFFFFF6D
:101A8000FFFF30FFFFFFFFFFFFFFFF17FFFFFFFF1D
:101A9000FFFFFFFFFFFFFFFFFFFFFFFFFFFFFFFF56
:101AA000FFFFFFFFFFFFFFFFFFFFFFFFFFFFFFFF46
:101AB000FFFFFFFFFFFFFFFFFFFFFFFFFFFFFFFF36
:101AC000FFFFFFFFFFFFFFFFFFFFFFFFFFFFFFFF26
:101AD000FF33FFFFFFFFFFFFFFFFFFFFFFFFFFFFE2
:101AE000FFFFFF2616FFFFFFFFFFFFFFFFFFFFFFC8
:101AF0001AFFFFFFFFFF25FFFFFFFFFFFFFFFFFFB5
:101B0000FFFFFFFFFF19FFFFFFFFFFFFFFFFFFFFCB
:101B1000FFFFFFFFFFFFFFFFFFFFFFFFFFFFFFFFD5
:101B2000FFFFFFFFFFFFFFFFFFFFFFFFFFFFFFFFC5
:101B3000FFFFFFFFFFFFFFFFFFFFFFFFFFFFFFFFB5
:101B4000FFFFFFFF1BFFFFFFFFFFFFFFFFFFFFFF89
:101B5000FFFFFFFFFFFFFFFFFFFFFFFF1E0AFFFF6B
:101B6000FFFF1CFFFFFFFFFFFFFFFFFFFFFF29FF3E
:101B7000FFFFFFFFFFFFFFFFFFFFFFFFFFFFFFFF75
:101B8000FFFFFFFFFFFFFFFFFFFFFFFFFFFFFFFF65
:101B9000FFFFFFFFFFFFFFFFFFFFFFFFFFFFFFFF55
:101BA000FFFFFFFFFFFFFFFFFFFFFFFFFFFFFF370D
:101BB000FFFFFFFFFFFFFFFFFFFFFFFFFF38FFFFFC
:101BC000FFFFFFFFFFFFFFFFFFFFFFFFFFFFFFFF25
:101BD000FFFFFFFFFFFF2F09FFFFFFFFFFFFFFFFDB
:101BE000FFFF1DFFFFFFFFFFFFFFFFFFFFFFFFFFE7
:101BF000FFFFFFFFFFFFFFFFFFFFFFFFFFFFFFFFF5
:101C0000FFFFFFFF10FFFFFFFFFFFFFFFFFFFFFFD3
:101C1000FFFFFFFFFFFFFFFFFFFFFFFFFFFFFFFFD4
:101C200001FFFFFFFFFFFFFFFFFFFFFFFFFFFFFFC2
:101C3000FFFFFFFFFFFFFFFFFFFF04FFFFFFFFFFAF
:101C400028FFFFFFFFFFFFFFFF0BFFFFFFFFFFFF6F
:101C5000FFFFFFFFFFFFFFFFFFFFFFFFFFFFFFFF94
:101C6000FFFFFFFFFFFFFFFFFFFFFFFFFFFFFFFF84
:101C7000FFFFFFFFFFFFFFFFFFFFFFFFFFFFFFFF74
:101C8000FFFFFFFFFFFFFFFFFFFFFFFFFFFFFFFF64
:101C90003DFFFFFFFFFFFFFFFFFFFFFFFFFFFFFF16
:101CA000FFFFFFFFFFFFFFFFFFFFFFFFFFFFFFFF44
:101CB000FFFFFFFFFFFFFFFFFFFFFFFFFFFFFFFF34
:101CC000FFFFFFFFFFFFFFFFFFFFFFFFFFFFFFFF24
:101CD000FFFFFFFFFFFFFFFFFFFFFFFFFFFFFFFF14
:101CE000FFFFFFFFFFFFFFFFFFFFFFFF01FFFFFF02
:101CF000FFFFFFFFFFFFFFFFFFFFFFFFFFFFFFFFF4
:101D0000FFFFFFFFFFFFFFFFFFFFFFFFFFFFFFFFE3
:101D1000FFFFFFFFFFFF36FFFFFFFFFFFFFFFFFF9C
:101D200020FFFFFFFFFFFFFFFFFFFFFFFFFFFFFFA2
:101D3000FFFFFFFFFFFFFFFFFFFFFFFFFFFFFFFFB3
:101D4000FFFF1CFFFFFFFFFFFFFFFFFFFFFFFFFF86
:101D5000FFFFFFFFFFFFFFFFFFFFFFFFFFFFFFFF93
:101D6000FFFFFFFFFFFFFFFFFFFFFF07FFFFFFFF7B
:101D7000FFFFFFFFFFFFFF37FFFFFFFFFFFFFFFF3B
:101D8000FFFFFFFFFFFFFFFFFFFF18FFFF0CFFFF3D
:101D9000FFFFFFFFFFFFFFFFFFFFFFFFFFFFFF133F
:101DA000FFFFFFFFFFFFFFFFFFFFFFFFFFFFFFFF43
:101DB000FFFFFFFFFFFFFFFFFFFFFFFFFFFFFFFF33
:101DC000FFFFFFFFFFFFFFFFFFFFFFFFFFFFFFFF23
:101DD000FFFFFFFFFFFFFFFF03FFFFFFFFFFFFFF0F
:101DE000FFFFFFFFFFFFFFFFFFFF36FFFFFFFFFFCC
:101DF000FFFFFFFFFFFFFFFFFFFFFFFFFFFFFFFFF3
:101E0000FFFFFFFFFFFFFFFFFFFFFFFFFFFFFFFFE2
:101E1000FFFFFFFFFFFFFFFFFFFFFFFFFFFFFFFFD2
:101E2000FFFFFFFFFFFFFFFFFFFFFFFFFFFFFFFFC2
:101E3000FFFFFFFFFFFFFFFFFFFFFFFFFFFFFFFFB2
:101E4000FFFFFFFFFFFFFFFFFFFFFFFFFFFFFFFFA2
:101E5000FFFFFFFFFFFFFFFFFFFFFFFFFFFFFFFF92
:101E6000FFFFFF2616FFFFFFFFFFFFFFFFFFFFFF44
:101E7000FFFFFFFFFFFF25FFFFFFFFFFFFFFFFFF4C
:101E8000FFFFFFFFFF19FFFFFFFFFFFFFFFFFFFF48
:101E9000FFFFFFFFFFFFFFFFFFFFFFFFFFFFFFFF52
:101EA000FFFFFFFFFFFFFFFFFFFFFFFFFFFFFFFF42
:101EB000FFFFFFFFFFFFFFFFFFFFFFFFFFFFFFFF32
:101EC000FFFFFFFF1BFFFFFFFFFFFFFFFFFFFFFF06
:101ED000FFFFFFFFFFFFFFFFFFFFFFFF1EFFFFFFF3
:101EE000FFFFFFFFFFFFFFFFFFFFFFFFFFFFFFFF02
:101EF000FFFFFFFFFFFFFFFFFFFFFFFFFFFFFFFFF2
:101F0000FF12FFFFFFFFFFFFFFFFFFFFFFFFFFFFCE
:101F1000FFFFFFFFFFFFFFFFFFFFFFFFFFFFFFFFD1
:101F2000FFFFFFFFFFFFFFFFFFFFFFFFFFFFFFFFC1
:101F3000FFFFFFFFFFFFFFFFFFFFFFFFFFFFFFFFB1
:101F4000FFFFFFFFFFFFFFFFFFFFFFFFFFFFFFFFA1
:101F5000FFFFFFFFFFFF2FFFFFFFFFFFFFFFFFFF61
:101F6000FFFF1DFFFFFFFFFFFFFFFFFFFFFFFFFF63
:101F7000FFFFFFFFFFFFFFFFFFFFFFFFFFFFFFFF71
:101F8000FFFFFFFF10FFFFFFFFFFFFFFFFFFFFFF50
:101F9000FFFFFFFFFFFFFFFFFFFFFFFFFFFFFFFF51
:101FA000FFFFFFFFFFFFFFFFFFFFFFFFFFFFFFFF41
:101FB000FFFFFFFFFFFFFFFFFFFF04FFFFFFFFFF2C
:101FC00028FFFF12FFFFFFFFFFFFFFFFFFFFFFFFE5
:101FD00015FFFFFFFFFFFFFFFFFFFFFFFFFFFFFFFB
:101FE000FFFFFFFFFFFFFFFFFFFFFFFFFFFFFFFF01
:101FF000FFFFFFFFFFFFFFFFFFFFFFFFFFFFFFFFF1
:10200000FFFFFFFFFFFFFFFFFFFFFFFFFFFFFFFFE0
:10201000FFFFFFFFFFFFFFFFFFFFFFFFFFFFFFFFD0
:10202000FFFFFFFFFFFFFFFFFFFFFFFFFFFFFFFFC0
:10203000FFFFFF24FFFF333BFFFFFFFFFFFFFFFF1B
:10204000FFFFFFFFFFFFFFFF11FFFFFFFFFFFFFF8E
:10205000FFFFFFFFFFFFFFFFFFFFFFFFFFFFFFFF90
:10206000FFFFFFFFFFFFFFFFFFFFFFFFFFFFFFFF80
:10207000FFFFFFFFFFFFFFFFFFFFFFFFFFFFFFFF70
:10208000FFFFFF39FFFFFFFFFFFFFFFFFFFFFFFF26
:10209000FFFFFFFFFFFFFFFFFFFFFFFFFFFFFFFF50
:1020A000FFFF26FFFFFFFFFFFFFFFFFFFFFFFFFF19
:1020B000FFFFFFFFFFFFFFFFFFFFFFFFFFFFFFFF30
:1020C000FFFFFFFFFFFFFFFFFFFFFFFFFFFFFFFF20
:1020D000FFFFFFFFFFFFFFFFFFFFFFFFFFFFFFFF10
:1020E00033FFFFFFFFFFFFFFFFFFFF07FFFFFFFFC4
:1020F000FFFFFFFFFFFFFFFFFFFFFFFFFFFFFFFFF0
:10210000FFFFFFFFFF34FFFFFFFF1838FF0CFFFF4B
:10211000FFFFFFFFFFFFFFFFFFFFFFFFFFFFFF13BB
:10212000FFFFFFFFFFFFFFFFFFFFFFFFFFFFFFFFBF
:10213000FFFFFFFFFFFFFFFFFFFFFFFFFFFFFFFFAF
:10214000FFFFFFFFFFFFFFFFFFFFFFFFFFFFFFFF9F
:10215000FFFFFFFFFFFFFFFFFFFFFFFFFFFFFFFF8F
:10216000FFFFFFFFFFFFFFFFFFFF36FFFFFFFFFF48
:10217000FFFFFF08FFFFFFFFFFFFFFFFFFFFFFFF66
:10218000FFFF30FFFFFFFFFFFFFFFFFFFFFFFFFF2E
:10219000FFFFFFFFFFFFFFFFFFFFFFFFFFFFFFFF4F
:1021A000FFFFFFFFFFFFFFFFFFFFFFFFFFFFFFFF3F
:1021B000FFFFFFFFFFFFFFFFFFFFFFFFFFFFFFFF2F
:1021C000FFFFFFFFFFFFFFFFFFFFFFFFFFFFFFFF1F
:1021D000FFFFFFFFFFFFFFFFFFFFFFFFFFFFFFFF0F
:1021E000FFFFFFFF16FFFFFFFFFFFFFFFFFFFFFFE8
:1021F0001AFFFFFFFFFFFFFFFFFFFFFFFFFFFFFFD4
:10220000FFFFFFFFFFFFFFFFFFFFFFFFFFFFFFFFDE
:10221000FFFFFFFFFFFFFFFFFFFFFFFFFFFFFFFFCE
:10222000FFFFFFFFFFFFFFFFFFFFFFFFFFFFFFFFBE
:10223000FFFFFFFFFFFFFFFFFFFFFFFFFFFFFFFFAE
:10224000FFFFFFFFFFFFFFFFFFFFFFFFFFFFFFFF9E
:10225000FFFFFFFFFFFFFFFFFFFFFFFFFF0AFFFF83
:10226000FFFFFFFFFFFFFFFFFFFFFFFFFFFF29FF54
:10227000FFFFFFFFFFFFFFFFFFFFFFFFFFFFFFFF6E
:1022800000000000000000070003000120D10757F4
:10229000022F05670019000100030007000000007D
:1022A000000000000000E000000087C0D110F11E17
:1022B000FFFFFFFEDBB087C00000E0000000000071
:1022C000000000000000000700030001002111EFE2
:1022D000075F2CCB1831000100030007000000004D
:1022E0000000000000000000000087C0D890F89EA9
:1022F000FFFFFFFED77087C0000000000000000055
:1023000000000000000000070003000104411B9BC7
:10231000CC37035B00010001000300070000000050
:102320000000000000000000000087C0D450F45EF0
:10233000FFFFFFFECEE087C00000000000000000AD
:1023400000000000000000070003020120D10B770D
:1023500002AF15E7001101010003000700000000B3
:10236000000000000000E000000087C0D230F23E14
:10237000FFFFFFFEDDD087C00000E000000000008E
:10238000000000000000000000000000000002C08B
:10239000ABF002C0000000000000000000000000E0
:1023A0000000000000000000000000005000AAC073
:1023B00057F0AAC05000000000000000000000001C
:1023C000000000000000000000000000010001808B
:1023D00003C000E00000000000000000000000005A
:1023E0000000000000000000000000000100038069
:1023F00001C000C00000000000000000000000005C
:102400000000000000000000000000000380010048
:1024100003800380010001000000000000000000B4
:10242000000000000000000003C00FF01928192868
:102430003FFC07E0018000000000000000000000F9
:10244000000000000000000003C00FF01248124816
:102450003FFC07E0018000000000000000000000D9
:10246000000000000000000003C00FF01498149852
:102470003FFC07E0018000000000000000000000B9
:102480000000000000000C0019803D2237ECFF47DF
:10249000B6FC7FE85BB03D180C00000000000000B7
:1024A00000000000010001000E002DC43AA0EF382A
:1024B0007DF3D6607E822E40070000000000000001
:1024C0000000000000000000000019007E40B50878
:1024D000EFC0FDA13BFE29840000000000000000C9
:1024E0000000000000000000040017087D605B048D
:1024F000FEE0EFF93DA034000800000000000000FD
:10250000000008200401420200040118234002E0F8
:1025100006600B8008C010102210021040484004D2
:102520002010102008400880030105868D686BB0DC
:102530000AC00F4004B03B18620482020202040188
:1025400000200040004083C067A01A711DF61928C2
:102550005FB88B280D701C9427E2434140408040B7
:1025600080814042208419D81B681E3C2BD8367CC1
:10257000DDF83FD615B90E783DD02A984284810304
:1025800000700080000300040003003F017E02F899
:102590000BF0047F029700680005000000000000B7
:1025A0000E000100C0002000C000FC007E801F4023
:1025B0000FD0FE20E9401600A0000000000000003F
:1025C0000404020401820042002B8036781D047747
:1025D00003B600DB006D007F018C0604080830089C
:1025E0002020204041804200D4006C01B81EEE2023
:1025F0006DC0DB00B600FE00318020601010100CB2
:1026000080206010100F080D053B02D705BE07ADF6
:102610001AA6E1D500BA00CF0118021D040808006F
:1026200004010806F008B010DCA0EB407DA0B5E086
:102630006558AB875D00F3001880B840102000108B
:1026400004040203011A809F42F425B7176D2E7B04
:102650002BDA1EEF73748BBF04D900FF010502084B
:102660002020C0405880F9012F42EDA4B6E8DE7466
:102670005BD4F7782ECEFDD19B20FF00A0801040C8
:10268000008001C001C001C001C001C003E007F02B
:1026900007F007F006300630041004100410041090
:1026A000008001C001C001C001C001C003E007F00B
:1026B00007F007F006B007F00490055004100490EE
:1026C000008001C001C001C001C001C003E007F0EB
:1026D00007F007F007F006F0059004D005500490CD
:1026E0000FF03FFC4A96DAB7CA97DAB758923FFC28
:1026F0000FF007E00C300FF018181FF8300C781EA0
:10270000018003C00FF005A007E02E745C3AD81BCF
:10271000D81B5C3A2E7437EC6186F3CFF3CF618619
:1027200007E05FFA26646666FFFF1A58C7E3700E7B
:1027300067E667E64FF2EFF7EFF7E7E74182E3C7B7
:1027400007E01FF829946996FFFF3998C7E3700ED8
:1027500063C663C64FF247E24182E3C7E3C7E3C7FC
:10276000C7E3DFFB29946996FFFF1998C7E3700E52
:1027700063C663C6EE37EE37EE374FF2EFF7EFF78B
:102780000000000000000000000300010001000341
:10279000000700030001000100030000000000002A
:1027A0000000000000000000000087C0DFF0FFFE16
:1027B000FFFFFFFEDFF087C0000000000000000008
:1027C0000000000000000000000000000000000009
:1027D00000000000000000000000000000000000F9
:1027E00000000000000000000000000000000000E9
:1027F00000000000000000000000000000000000D9
:1028000000000000000000000000000000000000C8
:1028100000000000000000000000000000000000B8
:1028200000000000000000000000000000000000A8
:102830000000000000000000000000000000000098
:102840000000000000000000000000000000000088
:102850000000000000000000000000000000000078
:102860000000000000000000000000000000000068
:102870000000000000000000000000000000000058
:102880000600100125201010101819171810231316
:102890001F22150B160A17111D1510101F261522C1
:1028A0000B140A201C11291522101F1E15000000F0
:1028B0000000000000000000000000000000000018
:1028C0000000000000000000000000000000000008
:1028D00000000000000000000000000000000000F8
:1028E00000000000000000000000000000000000E8
:1028F00000000000000000000000000000000000D8
:102900001C0C3E3F0E7E1E7F3C3E0000003C6B3C9C
:10291000001C7E1E7C3F7F1F633F03633063633E6A
:102920007E3E7E3C3F63636363337F00C080E08014
:10293000030107011CC1D700B1AAAA08AA813CFF64
:10294000FFFFFFFFFFFFFFFFFFFFFFFFFFFF7E3CDB
:10295000FFFFFFFFFFFFFFFFFFFFFFFFABBEAAFB75
:10296000ABABEACAFFFFFFFFFFFF03C0FF000000A1
:1029700000800FF0018007E007E0C7E300000000DF
:1029800007F00FF0D81B67E663C663C62451112910
:102990000000000020100020808181E39CC3C083E0
:1029A000052906600AC05FB8DDF8000000000000DD
:1029B000F0000000000000000F0000000000000018
:1029C0008040201008040201000000000000000008
:1029D00000000000000000000000000000000000F7
:1029E00000000000000000000000000000000000E7
:1029F00000000000000000000000000000000000D7
:102A0000261C63061E6030636263780000661C4209
:102A10000036633366306030630C0366307773636F
:102A2000636363660C6363637733070060C0788019
:102A300006031F011C417D00F955550C558142814B
:102A40000000000000000000D555558000017E66A2
:102A50009C3C7E9E667CBE7E8C7E66BED755554F66
:102A60005E5E757DFC18F98000010240FF000000E9
:102A700001C03FFC03C05FFA1FF8DFFB000000004D
:102A800007F007E05C3A67E663C663C62451212974
:102A9000000008201020004040429CC99C99CF991A
:102AA00045290B800F408B283FD600000000000016
:102AB00000F0000000000000000F00000000000017
:102AC0000000000000000000804020100804020107
:102AD00000000000000000000000000000000000F6
:102AE00000000000000000000000000000000000E6
:102AF00000000000000000000000000000000000D6
:102B0000630C070C367E6006726330F800467F99CE
:102B10000063636063306060630C036C307F7B63D1
:102B2000636363600C63636B3E120E00B0C0ACC0A5
:102B30000E033A033CC1AA00EDAAAAFEAAFF99819E
:102B40008080A0A0A8A8AAAAAAAAAB8000010046DB
:102B50008C6618B266668C629C1866B06EB6AA0661
:102B6000B8B61A6EE63CC18000010240FF000000CA
:102B700001C04A960FF026642994299400000000B1
:102B800006300C302E744FF24FF2EE37738E7CC647
:102B9000000004010840004020849C9C9C9FCF9C26
:102BA00038C608C004B00D7015B900000000000060
:102BB0000000F0000000000000000F000000000016
:102BC0000000000000000000000000000000000005
:102BD00080402010080402010000000000000000F6
:102BE00000000000000000000000000000000000E5
:102BF00000000000000000000000000000000000D5
:102C0000630C1E1E66037E0C3C3F3D56180E1CA135
:102C100000637E60633E7E677F0C0378307F7F6356
:102C20006363673E0C63777F1C1E1C7F5060566099
:102C30000D07750734635500575555FF5518A18189
:102C40000040405050545455D55555800001E70E72
:102C50008C60188676629862B41866B07467550006
:102C600050620D45E666C18000010240FF00000091
:102C700001C0DAB705A06666699669960000000093
:102C800006300FF037ECEFF747E2EE3700000000B8
:102C900000004202088083C019D89C9C9CC1C19C42
:102CA000000010103B181C940E780000000000007B
:102CB000000000F0000000000000000F0000000015
:102CC0000000000000000000000000000000000004
:102CD00000000000000000008040201008040201F5
:102CE00000000000000000000000000000000000E4
:102CF00000000000000000000000000000000000D4
:102D0000630C3C037F0363184F0347FF18186BA144
:102D1000007F636063306063630C037C306B6F63C0
:102D20007E6F7C030C633E7F3E0C3800B0A0AAA2ED
:102D30000A066A466CA7AA00AAAAAAFFAA18A18135
:102D40008080A0A0A8A8AAAAAAAAAB800001E71820
:102D50008C3E188C7662BC66E4187EBE2CE3AF0015
:102D6000B0E00A06FC66F98000010240FF000000A6
:102D700001C0CA9707E0FFFFFFFFFFFF238E38C6A1
:102D8000041018186186EFF74182EE37000000004A
:102D900038C60004030167A01B6881809CFCCF9C9F
:102DA00000002210620427E23DD000000000000075
:102DB00000000000F0000000000000000F00000014
:102DC0000000000000000000000000000000000003
:102DD00000000000000000000000000000000000F3
:102DE00080402010080402010000000000000000E4
:102DF00000000000000000000000000000000000D3
:102E0000320C70630663631843063D560000409918
:102E10000063633366306033630C636E30636763F3
:102E200060666E630C631C36770C700058705776C2
:102E30001D0DD56D76755506555555FE55FF998175
:102E40000040405050545455D55555800001000065
:102E50008C0318987E62867CFE1866823441DD0001
:102E600070C00D03E67EC18000010240FF0000003B
:102E700001C0DAB72E741A58399819986451452947
:102E800004101FF8F3CFE7E7E3C74FF2000000009C
:102E90004529011805861A711E3C9F9C9C9CCF9960
:102EA00000000210820243412A9800000000000046
:102EB0000000000000F0000000000000000F000013
:102EC0000000000000000000000000000000000002
:102ED00000000000000000000000000000000000F2
:102EE00000000000000000008040201008040201E3
:102EF00000000000000000000000000000000000D2
:102F00001C3F7F3E063E3E183E3C30F800184042D3
:102F100000637E1E7C3F601F633F3E673F63633EEE
:102F2000603D673E0C3E0822630C7F00AEB0ABBE36
:102F30007A0EEA7AEBB6AA4FAAAAAA0CAA81428113
:102F40000000000000000000AAAAAB8000017E186B
:102F50008C6318B06E66E66E8C1866B21CC1F90000
:102F6000E0800601E666C18000010240FF0000002B
:102F700003E058925C3AC7E3C7E3C7E3245105294D
:102F80000410300CF3CF4182E3C7EFF700000000DC
:102F9000052923408D681DF62BD89F9CC1C1C08395
:102FA000000040480202404042840000000000004F
:102FB000000000000000F0000000000000000F0012
:102FC0000000000000000000000000000000000001
:102FD00000000000000000000000000000000000F1
:102FE00000000000000000000000000000000000E1
:102FF00080402010080402010000000000000000D2
:103000000000000000000000000078000018403CB4
:1030100000000000000000000000000000000000B0
:10302000000000000000000000000000575F55573E
:10303000D5FDD5D5D55D55FD5555FF0855813CFFCE
:10304000FFFFFFFFFFFFFFFFFFFFFFFFFFFF7E18F8
:10305000BF3E18BE667CBC668C1866BE1CC1B10043
:10306000C0800301FC66F980000103C0FF0000007E
:1030700007F03FFCD81B700E700E700E245109290A
:103080000410781E6186E3C7E3C7EFF70000000075
:103090001D2902E06BB01928367CFFFFFFFFFFFF00
:1030A0000000400404018040810300000000000093
:1030B00000000000000000F0000000000000000F11
:1030C0000000000000000000000000000000000000
:1030D00000000000000000000000000000000000F0
:1030E00000000000000000000000000000000000E0
:1030F00000000000000000008040201008040201D1
:103100001C0C3E3F0E7E1E7F3C3E0000003C6B3C94
:10311000001C7E1E7C3F7F1F633F03633063633E62
:103120007E3E7E3C3F63636363337F00C080E0800C
:10313000030107011CC1D700B1000008007EC300D5
:10314000FFFFFFFFFFFFFFFFFFFFFFFFFFFF813CD0
:10315000FFFFFFFFFFFFFFFFFFFFFFFF81BE00FB41
:103160000383C0C0FFFFFFFFFFFF03C0FF0000009D
:1031700000800FF0018007E007E0C7E300000000D7
:1031800007F00FF0D81B67E663C663C62451112908
:103190000000000020100020808181E39CC3C083D8
:1031A000052906600AC05FB8DDF8000000000000D5
:1031B000F0000000000000000F0000000000000010
:1031C0008040201008040201000000000000000000
:1031D00000000000000000000000000000000000EF
:1031E00000000000000000000000000000000000DF
:1031F00000000000000000000000000000000000CF
:10320000261C63061E6030636263780000661C4201
:103210000036633366306030630C03663077736367
:10322000636363660C6363637733070060C0788011
:1032300006031E011C417D00F900000C007EBD7ECE
:103240000000000000000000D55555800001816697
:103250009C3C7E9E667CBE7E8C7E66BEC314004F08
:103260000E1E7078FC18F98000010240FF0000007B
:1032700001C03FFC03C05FFA1FF8DFFB0000000045
:1032800007F007E05C3A67E663C663C6245121296C
:10329000000008201020004040429CC99C99CF9912
:1032A00045290B800F408B283FD60000000000000E
:1032B00000F0000000000000000F0000000000000F
:1032C00000000000000000008040201008040201FF
:1032D00000000000000000000000000000000000EE
:1032E00000000000000000000000000000000000DE
:1032F00000000000000000000000000000000000CE
:10330000630C070C367E6006726330F800467F99C6
:103310000063636063306060630C036C307F7B63C9
:10332000636363600C63636B3E120E0030400CC03D
:103330000C033803344100004D0000FE0000667E9F
:103340008080A0A0A8A8AAAAAAAAAB800001FF46D4
:103350008C6618B266668C629C1866B046360006AB
:103360001836186CE63CC18000010240FF000000E6
:1033700001C04A960FF026642994299400000000A9
:1033800006300C302E744FF24FF2EE37738E7CC63F
:10339000000004010840004020849C9C9C9FCF9C1E
:1033A00038C608C004B00D7015B900000000000058
:1033B0000000F0000000000000000F00000000000E
:1033C00000000000000000000000000000000000FD
:1033D00080402010080402010000000000000000EE
:1033E00000000000000000000000000000000000DD
:1033F00000000000000000000000000000000000CD
:10340000630C1E1E66037E0C3C3F3D56180E1CA12D
:1034100000637E60633E7E677F0C0378307F7F634E
:103420006363673E0C63777F1C1E1C7F1060066021
:103430000806700624630000070000FF00E75E7EB8
:103440000040405050545455D55555800001180E39
:103450008C60188676629862B41866B064260100A3
:1034600010220844E666C18000010240FF0000000F
:1034700001C0DAB705A0666669966996000000008B
:1034800006300FF037ECEFF747E2EE3700000000B0
:1034900000004202088083C019D89C9C9CC1C19C3A
:1034A000000010103B181C940E7800000000000073
:1034B000000000F0000000000000000F000000000D
:1034C00000000000000000000000000000000000FC
:1034D00000000000000000008040201008040201ED
:1034E00000000000000000000000000000000000DC
:1034F00000000000000000000000000000000000CC
:10350000630C3C037F0363184F0347FF18186BA13C
:10351000007F636063306063630C037C306B6F63B8
:103520007E6F7C030C633E7F3E0C3800102002222D
:103530000804604464260000000000FF00E75E7E8F
:103540008080A0A0A8A8AAAAAAAAAB8000011818E7
:103550008C3E188C7662BC66E4187EBE246307003D
:1035600030600806FC66F98000010240FF000000A0
:1035700001C0CA9707E0FFFFFFFFFFFF238E38C699
:10358000041018186186EFF74182EE370000000042
:1035900038C60004030167A01B6881809CFCCF9C97
:1035A00000002210620427E23DD00000000000006D
:1035B00000000000F0000000000000000F0000000C
:1035C00000000000000000000000000000000000FB
:1035D00000000000000000000000000000000000EB
:1035E00080402010080402010000000000000000DC
:1035F00000000000000000000000000000000000CB
:10360000320C70630663631843063D560000409910
:103610000063633366306033630C636E30636763EB
:1036200060666E630C631C36770C700018300336CE
:10363000180CC06C66340006000000FE0000667EB8
:103640000040405050545455D55555800001FF005E
:103650008C0318987E62867CFE18668234418D0049
:1036600030C00C03E67EC18000010240FF00000074
:1036700001C0DAB72E741A5839981998645145293F
:1036800004101FF8F3CFE7E7E3C74FF20000000094
:103690004529011805861A711E3C9F9C9C9CCF9958
:1036A00000000210820243412A980000000000003E
:1036B0000000000000F0000000000000000F00000B
:1036C00000000000000000000000000000000000FA
:1036D00000000000000000000000000000000000EA
:1036E00000000000000000008040201008040201DB
:1036F00000000000000000000000000000000000CA
:103700001C3F7F3E063E3E183E3C30F800184042CB
:1037100000637E1E7C3F601F633F3E673F63633EE6
:10372000603D673E0C3E0822630C7F000E30011E98
:10373000780CC078E394004F0000000C007EBD7E42
:103740000000000000000000AAAAAB800001811860
:103750008C6318B06E66E66E8C1866B21C41F90078
:10376000E0800601E666C18000010240FF00000023
:1037700003E058925C3AC7E3C7E3C7E32451052945
:103780000410300CF3CF4182E3C7EFF700000000D4
:10379000052923408D681DF62BD89F9CC1C1C0838D
:1037A0000000404802024040428400000000000047
:1037B000000000000000F0000000000000000F000A
:1037C00000000000000000000000000000000000F9
:1037D00000000000000000000000000000000000E9
:1037E00000000000000000000000000000000000D9
:1037F00080402010080402010000000000000000CA
:103800000000000000000000000078000018403CAC
:1038100000000000000000000000000000000000A8
:10382000000000000000000000000000031F010372
:1038300080F8C0C0C01C00FD0001FF08007EC3006E
:10384000FFFFFFFFFFFFFFFFFFFFFFFFFFFF8118ED
:10385000BF3E18BE667CBC668C1866BE1CC1B1003B
:10386000C0800301FC66F980000103C0FF00000076
:1038700007F03FFCD81B700E700E700E2451092902
:103880000410781E6186E3C7E3C7EFF7000000006D
:103890001D2902E06BB01928367CFFFFFFFFFFFFF8
:1038A000000040040401804081030000000000008B
:1038B00000000000000000F0000000000000000F09
:1038C00000000000000000000000000000000000F8
:1038D00000000000000000000000000000000000E8
:1038E00000000000000000000000000000000000D8
:1038F00000000000000000008040201008040201C9
:103900001C0C3E3F0E7E1E7F3C3E0000003C6B3C8C
:10391000001C7E1E7C3F7F1F633F03633063633E5A
:103920007E3E7E3C3F63636363337F00000000FFA5
:1039300000A800AA0AA002A0028280AAA0A02AA031
:10394000272A9F2AAF1CABEA2BE7CA72EAE823A812
:103950002EA71F2AAEBA97C01C009A72BAEA9CA87A
:103960000000000000000000F2AAAAAAAAAAAAA8C1
:103970000000000000000000000000000000000047
:103980000000000000000000000000000000000037
:10399000000000006618180C6C067E1866067E662D
:1039A0006066606066661806D860D67E667E66F8D9
:1039B0000618663CFE3C1860001C00000000000079
:1039C00080402010080402010000000000000000F8
:1039D00000000000000000000000000000000000E7
:1039E00000000000000000000000000000000000D7
:1039F00000000000000000000000000000000000C7
:103A0000261C63061E6030636263780000661C42F9
:103A10000036633366306030630C0366307773635F
:103A2000636363660C6363637733070000000081A0
:103A300005540555555405500545415551505554AB
:103A400017955E55578D17F417E7E575E4E453D0E5
:103A50004E574F944E3D59F65D5D5D7538E55D54AA
:103A60000FFFFFFFFFFFFFFFE0000000000000006E
:103A70000000000000000000000000000000000046
:103A80000000000000000000000000000000000036
:103A9000000000006618180C6C06661866067E6644
:103AA0006066606066661806D860C66E667C66D81A
:103AB0000618663CEE661860003800000000000042
:103AC00000000000000000008040201008040201F7
:103AD00000000000000000000000000000000000E6
:103AE00000000000000000000000000000000000D6
:103AF00000000000000000000000000000000000C6
:103B0000630C070C367E6006726330F800467F99BE
:103B10000063636063306060630C036C307F7B63C1
:103B2000636363600C63636B3E120E0000000081F0
:103B30000A020A00A00A0A280A2A22802A08800A01
:103B400027CA9CAAAB9CA772A7776A738AE8A0E8E9
:103B50002F0F2FC32E9CBCFE9C9E1C707AE01C0273
:103B600007FFFFFFFFFFFFFFE00000000000000075
:103B70003C183C7E0C7E1C7E3C3C187C3C787E7E57
:103B80003E667E06CC60C6663C7C3CF83E7E666641
:103B9000C666667E661830667E06663066066666AF
:103BA0006666606066661866CC60C66E666066CCE7
:103BB0007E187E18C666187E0070000000000000A7
:103BC00000000000000000000000000000000000F5
:103BD00080402010080402010000000000000000E6
:103BE00000000000000000000000000000000000D5
:103BF00000000000000000000000000000000000C5
:103C0000630C1E1E66037E0C3C3F3D56180E1CA125
:103C100000637E60633E7E677F0C0378307F7F6346
:103C20006363673E0C63777F1C1E1C7F000000816E
:103C300015F911FF4FE505D00595917FD4E53FF4C7
:103C400011F13D55407D5775576F657764E45FF41A
:103C50004FFE57FF8E4E393C394FFD7FF4FF5FF921
:103C60000000000000000000000000000000000054
:103C70007E187E7E0C7E3C7E7E7E3C7E7E7C7E7EC2
:103C80007E667E06CC60C6667E7E7EFC7E7E666636
:103C9000C666667E661830667E666630660E666646
:103CA000666E606066661866CC60C66666606ACCE2
:103CB0007C183C188266187EE0E0000000000000DE
:103CC00000000000000000000000000000000000F4
:103CD00000000000000000008040201008040201E5
:103CE00000000000000000000000000000000000D4
:103CF00000000000000000000000000000000000C4
:103D0000630C3C037F0363184F0347FF18186BA134
:103D1000007F636063306063630C037C306B6F63B0
:103D20007E6F7C030C633E7F3E0C380000000081F8
:103D30000BFCA7FFAFFA09C809CBAA7FEAE8BFF2DC
:103D400026FCBCAAAFFAA8000F0E726F72E89FF2B1
:103D500027FEA9FFAEAF3A9CBAAFFC7FE2FF1FFA85
:103D600000000000000078000000000000000000DB
:103D70006638660C1C60700666667E66666E6060FD
:103D800060661806D860EE66666666CC6018666681
:103D9000C666660C7E7E7E7E0C7E7E307E3C667EB7
:103DA0007E7C7E607E667E7EC67EC6667E607CC6CB
:103DB0000000000000000000700000000000000093
:103DC00000000000000000000000000000000000F3
:103DD00000000000000000000000000000000000E3
:103DE00080402010080402010000000000000000D4
:103DF00000000000000000000000000000000000C3
:103E0000320C70630663631843063D560000409908
:103E10000063633366306033630C636E30636763E3
:103E200060666E630C631C36770C700000000081C6
:103E300017FD4FFF8FFD13E413D3D17FE4E55FF44B
:103E4000177E3D554FE547FFEEFE356F78E45FE4A2
:103E500011F9547E4E57014E3957FD3FC4FF5FF9AB
:103E60000000000000003C00000000000000000016
:103E70006638660C1C60600666666666666660602C
:103E800060661806D860EE76666666CC6018666670
:103E9000C63C660C3C7E7E3C0C3C3C303C38667C30
:103EA0003C787E603C667E3CC67EC6663C6036C61C
:103EB00000000000000000003800000000000000CA
:103EC00000000000000000000000000000000000F2
:103ED00000000000000000000000000000000000E2
:103EE00000000000000000008040201008040201D3
:103EF00000000000000000000000000000000000C2
:103F00001C3F7F3E063E3E183E3C30F800184042C3
:103F100000637E1E7C3F601F633F3E673F63633EDE
:103F2000603D673E0C3E0822630C7F00000000816C
:103F3000278CAF832E3C8BE80BCBCA70EAE8AF0A24
:103F40002F1F1CAAAE12AFFFEEFEBA6EBAE89C0895
:103F50000A02AA80A02BAAA072A802802A00A002AE
:103F60000000000000003FFFFFFFFFFFFFFFFFF822
:103F700066180C183C7C600C3C7E667E60667C7C1F
:103F80006E7E1806F060FE76666666CC7018666611
:103F9000C63C3C18000000000000000000000000CB
:103FA0001C186666D61818300000000000000000DB
:103FB00000000000000000001C00000000000000E5
:103FC00000000000000000000000000000000000F1
:103FD00000000000000000000000000000000000E1
:103FE00000000000000000000000000000000000D1
:103FF00080402010080402010000000000000000C2
:104000000000000000000000000078000018403CA4
:1040100000000000000000000000000000000000A0
:10402000000000000000000000000000000000FF91
:1040300017515F544F5D13E413E7D574E4E45794CC
:104040004E4F5E554E754FFFDEFD397138E45D50C1
:104050000555555555539555755555555555555403
:104060000000000000001FFFFFFFFFFFFFFFFFF049
:1040700066180C183C7E7C0C3C3E667C60667C7C42
:104080006E7E1806F060D67E666666FC3818666638
:10409000D6183C18000000000000000000000000DE
:1040A0000E186666FE3C183000000000000000009C
:1040B00000000000000000000E00000000000000F2
:1040C00000000000000000000000000000000000F0
:1040D00000000000000000000000000000000000E0
:1040E00000000000000000000000000000000000D0
:1040F00000000000000000008040201008040201C1
:10410000070F11181917181023131F221523102237
:10411000152315240000000000000000000000002E
:10412000000000000000000000000000000000008F
:10413000000000000000000000000000000000007F
:10414000000000000000000000000000000000006F
:10415000000000000000000000000000000000005F
:10416000000000000000000000000000000000004F
:10417000000000000000000000000000000000003F
:10418000000000000000000000000000000000002F
:10419000000000000000000000000000000000001F
:1041A000000000000000000000000000000000000F
:1041B00000000000000000000000000000000000FF
:1041C00000000000000000000000000000000000EF
:1041D00000000000000000000000000000000000DF
:1041E00000000000000000000000000000000000CF
:1041F00000000000000000000000000000000000BF
:1042000011241FBECFEFD8E0DEBFCDBF11E0A0E08C
:10421000B1E0EAEEF1E702C005900D92AC30B107D3
:10422000D9F728E0ACE0B1E001C01D92A030B207A0
:10423000E1F70E94462D0C94F3380C940000E9E459
:10424000F3E080E092819F3F29F08F5F33968430C6
:10425000C9F78FEF0895A5E6B7E013968C911397F1
:1042600025E0829FC00111248B589E4FFC012491B0
:104270003196E491F0E0FE2FEE27E20FF11D189643
:10428000FC93EE931797FC013296E4911996EC9308
:104290001997FC013396E4911A96EC931A97FC0156
:1042A0003496E4911B96EC930895E5E6F7E0978544
:1042B0008685E9E4F3E0958B868B908F805F818F14
:1042C0008091640786958670878B8F5F828F0895B3
:1042D00090E2699FF0011124E80FF11DEC59FC4FA9
:1042E00080E1415018F08083B096FBCF08950F9382
:1042F0001F93CF93DF9324E0260F30E2439FF0011A
:104300001124EC59FC4F0AE010E0EF01C20FD11D5F
:10431000B8010E94C5388883CB0121500097A9F7C6
:10432000DF91CF911F910F91089580E18093300428
:104330008091B50746E069E090E00C947721E4E6CF
:10434000F3E080E184A385A386A387A380A741E04F
:1043500064E080916507909166070E94772141E0B3
:104360006EE08091B9079091BA070C947721FC0117
:10437000A49131962491AC014D5F5F4F0296FC01F0
:10438000949181E0691710F4962F80E0F0E22F9F5E
:1043900090011124FA019A0F2C593C4FA91751F0A2
:1043A00041E04A0F5491A20FB32FB11D5C93319697
:1043B000A42FF4CF08956FEF8EE691E00E94B7210D
:1043C0008AE680930D0480917107EEE0F4E097E4B3
:1043D000883060F490E4980F9193885024E0EE3197
:1043E000F207B1F78BE680931E0408958138A0F39D
:1043F00080E09CE4F1CF70E0709348036093470342
:10440000482F50E050936901409368012FE730E056
:1044100002C0359527958A95E2F72093390327E066
:1044200030E0241B350B8EEF022E01C0880F0A945A
:10443000EAF780933803220F209337032C522093FE
:10444000360320914403CB0133E0969587953A9546
:10445000E1F760E270E0621B71090E94C538280F25
:10446000209335030895282F30E0F901EE0FFF1F48
:10447000E20FF31FE75BFC4F8295807F8E5C8083A9
:104480008FEF818382830895CF93C0E08C2F0E94A9
:104490003322CF5FC930D1F7CF910895CF93DF9307
:1044A00060E080E00E94FB210E942B210E944422B8
:1044B00010926B0780E88093710798E190937307DF
:1044C00090E49093740710927507109276071092FB
:1044D000720710929B0780939A0780919C078079BE
:1044E00080939C071092780710927707E4ECF6E02F
:1044F000AAE7B7E096E38CE39193878F87AFEF014C
:10450000C15ADF4F88831D9226E0E43EF207A1F7EF
:104510001092A8071092A7071092A9071092AB0754
:104520001092AA071092AC071092AE071092AD0736
:104530001092AF071092B1071092B0071092B20715
:104540001092A3071092A4071092A5071092A60735
:10455000DF91CF9108950E94442289E290E09093E8
:104560003E0380933D0388EE90E090930301809397
:10457000020185E080933C0387E08093440384E05C
:1045800094E090933B0380933A0360E080E00E94C4
:10459000FB21E4E6F3E080E1819397E0E436F9075C
:1045A000D9F76FEF80E091E00E94B7216FEF80E8CC
:1045B00098E20E94B72110928D03109297030E94F7
:1045C0009F210C9495218091B6078093B7072C9A70
:1045D0002C9898E02A988091B607880F8093B607A8
:1045E00023B125FB222720F9820F8093B6072A9A50
:1045F000915081F78091B6079091B70789278093F2
:10460000B8070895811106C0662311F0569A0895DF
:1046100056980895813029F4662311F0239A08955D
:1046200023980895CF93C82F60E00E9402238C2F17
:1046300090E0FC01EB59F84F10AE880F991FFC0178
:10464000E156F84F11821082CF91089580E00E94C8
:10465000122381E00C94122390919C0794FD1AC0C0
:10466000282F30E0F901EB59F84F91E090AF220F7D
:10467000331FF901E156F84F71836083FB016491A8
:104680006860811104C065BD61E00C9402236093F1
:10469000B100FACF08956FEF83E591E00E94B72152
:1046A0006FEF88E391E00E94B72130916807E9EE4F
:1046B000F3E080E04BE49CE45DE468E429E47AE420
:1046C0003817B0F160832183228373838F5F349620
:1046D0008630B1F780919C0784FD1BC0209167074D
:1046E000E6E2F4E080E090E13AE04BE0821728F562
:1046F000308341838F5F32968630C1F780916E0799
:104700006FE271E0823011F469E071E080E00E94B4
:104710002C2390916907E1E4F4E080E020E13EE0A1
:10472000981770F030838F5F31978031C9F7089503
:104730004083918392835383C9CF90839183DACF4F
:104740002083F1CFCF93DF93EC01FC013197EA3066
:10475000F10578F5E255FC4D0C94ED38B823C523EE
:10476000D0232624EC23D9230524242429243924E6
:1047700010926607109265070E94262380E099E355
:104780009093B4078093B30714C00E94262380E05F
:1047900099E39093B4078093B3070E94AB2209C0BA
:1047A00010926807109269071092670780E880935B
:1047B00071071092CD07109245031092CE07109208
:1047C0004203109243031092CF07D093D107C093B6
:1047D000D007DF91CF910895109266071092650778
:1047E000109268071092690785E180936A0782E05A
:1047F0008093670780E88093710780919C078F7E84
:1048000080939C0780E099E2C4CF0E944E22809161
:104810009C0784FF0E944B230E94DB2180E1809350
:10482000EF058093F0058093F1058093F205809366
:10483000F3058093F4058093F5058093F605809346
:10484000F7058093F805B5CF0E9426230E944422E5
:10485000B0CF0E9426230E94442280E099E29093E8
:10486000B4078093B30780916707815080936707EF
:10487000A0CF0E9426230E94442280E099E280CFAC
:10488000CF93DF9390919C0794FD24C020916507FE
:1048900030916607C82FD0E0283E83E0380760F4E7
:1048A0002C0F3D1F283E334038F0809167078F5F03
:1048B000809367070E944B2380916507909166075C
:1048C000C80FD91FD0936607C0936507DF91CF91BA
:1048D0000C949F21DF91CF910895CF93DF93EC014A
:1048E0008881803109F466C08C3808F063C094E890
:1048F000980F943008F45EC090E9980F9C3028F02F
:1049000090E8980F9C3008F040C087FDA097888100
:1049100080FD219788818437E1F138F435E08037D4
:10492000D9F0823779F030E017C0883721F08A3724
:1049300011F08637C1F780919C07806280939C07B5
:1049400030E50AC080917107885E813800F5809358
:1049500071070E94DB213FE022E9288381E0820F7A
:10496000898380E1820F88A381E1820F89A3CE0130
:104970008456934060E270E00E94D938FC01EB5904
:10498000F84F258B832F0E94402481E014C080E8DB
:10499000DECF8091640763E00E94B9383AE0939FCC
:1049A000300D11242EE79130C1F220E99230A9F2A6
:1049B0002CE7D3CF80E0DF91CF9108950F931F9321
:1049C000CF93DF9309E413E0EAE6F1E0D0E0C0E042
:1049D000615072E3D80112965C9193EF950F93307A
:1049E00020F09FED950F9230A0F59081B62FB91B66
:1049F0009B2FB03170F52181A82FA21BA33048F561
:104A000020E1A29FD00111247C9F90017D9F300D59
:104A1000112426593E4F2A0F3B1F290F311DD90162
:104A200012969C919423A9F08AE0513208F088E014
:104A30000E944024CE01880F991FC80FD91FC75B61
:104A4000DC4F87E18A8381E0DF91CF911F910F9145
:104A5000089521960D5F1F4FF296C430D10509F0DD
:104A6000B9CF80E0F1CF811105C067BD611105C0EC
:104A70000C9402236093B300F9CF61E0F9CF2F9239
:104A80003F924F925F926F927F928F929F92AF92DE
:104A9000BF92CF92DF92EF92FF920F931F93CF932B
:104AA000DF9300D000D01F92CDB7DEB70E94552112
:104AB00049E453E060E872E28AE691E00E94882AC5
:104AC0004CE453E060E872E28CE991E00E94882AAD
:104AD0004FE453E060E872E28EEC91E00E94882A95
:104AE00042E553E060E872E280E092E00E94882AAA
:104AF00027EA37E03B832A8365E6E62E67E0F62E59
:104B000000E210E070E1B72EAA81BB8112968C9171
:104B10001297805B803108F04DC0ED91FC9180814F
:104B2000805B803108F4B082EA81FB818281883B1E
:104B300008F4D6C0208131812F5F3F4F318320831D
:104B400088508283EA81FB8120813181F901E4561A
:104B5000F340CF01B8010E94D9386C01AA81BB8112
:104B60008E3191050CF0D7C08093CE07AA81BB810E
:104B700012968C91877050EFA52EA80ECF01F7FDED
:104B80004F9645E0959587954A95E1F7880F880FF0
:104B9000880FA80EA0924503C9010E946D248823A6
:104BA00009F4A4C063E971E081E00E942C23EA814A
:104BB000FB811282EA81FB813396FB83EA83E35B0C
:104BC000F74009F0A1CF49E453E05B834A83E2E078
:104BD000AE2EF4E19F2EA0EF7A2E88248A94B0ECBA
:104BE000CB2ED12CAA81BB8151969C915197909349
:104BF000CE079F3F09F45BC088EF890F853008F02E
:104C0000AFC0F7012289E22FF0E0E655FE4FE491B4
:104C1000E1FB332730F91F968C911F97830F4E2F9E
:104C2000417050963C915097B42EB30E1F968C93C2
:104C30001F975096BC925097E2FF79C09F5F5196A4
:104C40009C932A3218F42F5FF701228B00916801A0
:104C500010916901085F1F4F0B0D111D63E0169540
:104C600007956A95E1F70093CE0790E0089673E008
:104C7000959587957A95E1F78E5F80934503F0E2ED
:104C80008F9FC0011124800F911D8C599C4F0E9451
:104C90006D24882309F451C0AA81BB8151969C924E
:104CA00068EA71E081E00E942C23F701128A2A81D0
:104CB0003B812D5F3F4F3B832A833FEFE31AF30A8B
:104CC00041E0A41231C090919C0793FF7AC0E4EABE
:104CD000F3E081E220E1815009F473C02193FBCF1E
:104CE000885FAA81BB8112968C932CCFAA81BB814D
:104CF00012964C916A2D8C2D0E94DE24811152CF88
:104D0000AA81BB81ED91FC9111978081803708F0D9
:104D100051CF803119F012961C924CCFAA81BB81E1
:104D200012968C91808346CFAA24A3945BCFE3FF95
:104D300088CF9150AA81BB8182CF8B2D8770A6012D
:104D400002C0559547958A95E2F7AA81BB811F96C7
:104D50006C91685F802F0E94DE2481119DCFA7CFC8
:104D60008CEE890F843008F0A2CFEA81FB81808924
:104D70008150808B80916407837009F098CFD701B0
:104D800052968C9152978F5F52968C93843059F43F
:104D9000A79C802D11248E558787808A818A81E087
:104DA0000E94122384CF9F5F983141F09093CE07E9
:104DB0008091CE07EA81FB81818B79CF9092CE07DB
:104DC000F7CF92FD12C1809160038093450388E282
:104DD000809360034EE553E060E872E288EC92E075
:104DE0000E94882A80914503809360038091630329
:104DF0008093450389E28093630341E653E060E8D2
:104E000072E28AEF92E00E94882A809145038093A3
:104E100063030091B3071091B407A8ECB2E0BB8321
:104E2000AA8327E030E052E3B52EEA81FB81D080EF
:104E3000D3948D2D90E073E0959587957A95E1F761
:104E4000029645E0880F991F4A95E1F74181840F4A
:104E5000911D8C599C4FF12CB29EA001B39E500D18
:104E6000112446595E4FFD2DF770EF2E60E1A62EFE
:104E7000AF0CBC01FA01EF0DF11DC280FB01908067
:104E8000FBE8F91508F4CCC0E4E8E90DE43008F4D7
:104E9000C7C0EE2DF0E0FE2FEE27E90DF11DE00F6B
:104EA000F11FE491EC2109F0EEC0E394E8E0EE128A
:104EB00003C0605E7F4FE12CF394FA10DBCF0196C4
:104EC000F0E3FF12D0CF4A815B814E5C5F4F5B8382
:104ED0004A832830310509F0A0C06CE2262E63E039
:104EE000362E8C9111962C911197EAE6F1E0FD8314
:104EF000EC8369E473E01B821A8290E05C01FFE0BE
:104F0000AF1AB1080F9630E0690142E0C41AD10827
:104F10002F5F3F4FFB01F281F9834F2F4D504730F8
:104F200020F04451423008F04BC0EC81FD814081BB
:104F300050E04A155B050CF443C0841795070CF448
:104F40003FC01181412F50E04C155D05CCF1241775
:104F50003507B4F111968C901197811A582C529400
:104F600050EF5522712CF2E0F81520F19C90EC8165
:104F7000FD814081941A40E1442E490C672C691848
:104F8000472D450DE40FF11DAF01062D090DFFE082
:104F9000F91568F00A0F1B2F111D7A01E90CF11C9D
:104FA000F701F280F80112811F2109F058C0939493
:104FB0004910EBCF8394F0E17F0E40E37412D3CF1E
:104FC000EA81FB813196FB83EA836D5F7F4F4C81E1
:104FD0005D814E5C5F4F5D834C83349709F09ACFBF
:104FE000D2962A163B0609F07CCF0F900F900F90B7
:104FF0000F900F90DF91CF911F910F91FF90EF9045
:10500000DF90CF90BF90AF909F908F907F906F90E8
:105010005F904F903F902F90089528E030E005CFAB
:10502000E0E040CF42E060E081E090E00F900F9040
:105030000F900F900F90DF91CF911F910F91FF90E4
:10504000EF90DF90CF90BF90AF909F908F907F9028
:105050006F905F904F903F902F900C9477215981E3
:105060008AE0513208F088E00E9440248A819B81C6
:10507000880F991FAA81BB81A80FB91FA75BBC4FDE
:1050800087E112968C9380919C0783FDCBCF84603F
:1050900080939C0710929B0765ED71E080E00E9471
:1050A0002C2388E180935A0389E180935D039091DA
:1050B0007407809173079093580328E0280F20937A
:1050C000590390935B03885E80935C038ECF0F93AC
:1050D0001F93CF93DF9309EB17E0D0E0C0E0F80116
:1050E00060810E5F1F4FCE010E944838F801329751
:1050F0006181CE0101960E9448382296C431D105C3
:1051000071F7DF91CF911F910F9108951F920F9228
:105110000FB60F9211242F933F938F939F93AF93CA
:10512000BF938091D7079091D807A091D907B091EC
:10513000DA073091D60723E0230F2D3758F5019673
:10514000A11DB11D2093D6078093D7079093D80750
:10515000A093D907B093DA078091D2079091D30733
:10516000A091D407B091D5070196A11DB11D8093E0
:10517000D2079093D307A093D407B093D507BF91DC
:10518000AF919F918F913F912F910F900FBE0F90F4
:105190001F90189526E8230F0296A11DB11DD2CFAE
:1051A0001F920F920FB60F9211242F933F934F939C
:1051B0005F936F937F938F939F93AF93BF93EF937F
:1051C000FF93809184009091850020913403821B8D
:1051D00091099093670180936601809132039091C9
:1051E0003303C09709F06DC01092650120916501ED
:1051F00080913D0390913E032817190609F04FC096
:105200008091390380936401809138038093630116
:105210008091360390E090938B0080938A00809178
:105220003703809334038091470387708093310361
:105230008091350380933003109262018091300396
:1052400020E2829FC00111248C599C4F90932F0320
:1052500080932E0380913103082E000C990B982F18
:1052600088272091B3073091B407820F931F909342
:105270002D0380932C0381E080936501FF91EF91D2
:10528000BF91AF919F918F917F916F915F914F915E
:105290003F912F910F900FBE0F901F90189584EDA6
:1052A00090E090938B0080938A008FEF809364014D
:1052B00080936301109231031092340310923003F3
:1052C000BBCF60912C0370912D0380912E039091A0
:1052D0002F030E94C22A20916501809102019091C2
:1052E000030128171906A1F58FEF80933103209150
:1052F000B3073091B4073A9530932D0320932C03D4
:1053000090913C039093300320913A0330913B03FA
:1053100030932F0320932E0324ED30E030938B0045
:1053200020938A0010923403809364018093630178
:1053300080916501883F09F055C080916F008B7F97
:1053400080936F00809164078F5F8093640796CF8E
:105350002091650180913D0390913E032817190625
:1053600039F78091390380936401809138038093E9
:1053700063018091360390E090938B0080938A00C4
:10538000809137038093340320910401309105010B
:10539000820F932F911D90930501809304018091BA
:1053A00047038770809331032091350320933003A6
:1053B00090E2299F900111242C593C4F30932F03E8
:1053C00020932E03082E000C990B982F88272091EC
:1053D000B3073091B407820F931F90932D038093EE
:1053E0002C03A6CF809131038F5F809331038830E7
:1053F00031F5109231038091B3079091B4079093E7
:105400002D0380932C03809130038F5F80933003B2
:10541000803279F4809144038093300320E2829FAC
:10542000C00111248C599C4F90932F0380932E031D
:1054300025CF80912E0390912F038096F5CF8091F8
:105440002C0390912D03939590932D0380932C031F
:1054500015CF1F920F920FB60F9211242F938F9397
:105460009F9380913203909133030196909333037D
:10547000809332038833914091F484EB93E09093CE
:1054800089008093880010923303109232039F9119
:105490008F912F910F900FBE0F901F9018958091B4
:1054A000320390913303089739F48AE490E09093A3
:1054B000890080938800EBCF809132039091330371
:1054C000C09729F780916F00846080936F00DFCFD1
:1054D000F999FECF41BD50BDFA9AF99A0895552722
:1054E00040E042BD50910001F3DF5091010143952E
:1054F000EFDF089540E042BD41BDF89A50B55093AA
:105500000001439541BDF89A50B5509301010895AB
:10551000DF93CF93FA0141E05527EC0121912993C4
:10552000219130916801832F8770280F322F369593
:1055300036953695399327703191FB0160E21F92C1
:105540000F92369FE00DF11D0F901F9030E1859175
:1055500088838591888B58A3251769F0822F8894BA
:1055600098819795988398899795988B98A1979506
:1055700098A38A95A9F7C40FD51F3A9541F7CF9103
:10558000DF9108952091040140916601239542170F
:1055900000F02395421700F02395421700F0549A2B
:1055A000DC0198E0209164018D91FB01E80F4491AA
:1055B00080914001482B42234093C6008D91FB010E
:1055C000DF939093C1005498CF93D2E0E80F2491D9
:1055D00080914101282B2093C6001F93C2E38D9137
:1055E000FB01E80F249180914201282B0F93209317
:1055F000C6008D91FB01E80F249180914301282B77
:10560000409165012093C6008D91FB01E80F249124
:1056100080914401282B8D912093C600FB01E80F57
:10562000249180914501282B042F03950093650157
:105630002093C600042F1881011B8D91FB01E80FF8
:10564000249180914601282B2093C60001BDE2974A
:105650008D91FB01E80F249180914701282B18813F
:105660002093C6008D91FB01E80F249180914801A1
:10567000282B042F011B2093C6008D91FB01E80FFE
:10568000249180914901282B00BD33272093C60027
:10569000E297042F8D91FB01E80F249180914A013C
:1056A000282B2093C60018818D91FB01E80F2491CF
:1056B00080914B01282B011BE2972093C6000BBD64
:1056C000042F8D91FB01E80F249180914C01282B30
:1056D00030934C012093C60030934B018D91FB0118
:1056E000E80F249180914D01282B30934D01209398
:1056F000C60030934A018D91FB01E80F24918091FF
:105700004E01282B30934E012093C600309349015F
:105710008D91FB01E80F249180914F01282B30934C
:105720004F012093C600309348018D91FB01E80F93
:10573000249180915001282B309350012093C60072
:10574000309347018D91FB01E80F24918091510125
:10575000282B309351012093C600309346018D9140
:10576000FB01E80F249180915201282B30935201C4
:105770002093C600309345018D91FB01E80F2491E1
:1057800080915301282B309353012093C60030930E
:1057900044018D91FB01E80F249180915401282B45
:1057A000309354012093C600309343018D91FB0147
:1057B000E80F249180915501282B309355012093B7
:1057C000C600309342018D91FB01E80F2491809136
:1057D0005601282B309356012093C6003093410187
:1057E0008D91FB01E80F249180915701282B309374
:1057F00057012093C60018818D91FB01E80F249179
:1058000080915801282B309358012093C600011B2A
:10581000E2970ABD042F8D91FB01E80F249180913E
:105820005901282B2093C600309359018D91FB011B
:10583000E80F249180915A01282B30935A0120932C
:10584000C60018818D91FB01E80F249180915B01C6
:10585000282B30935B012093C600011B0EBB8D915A
:10586000FB01E80F249180915C01282B30935C01AF
:105870002093C60011E000E48D91FB01E80F249114
:1058800080915D01282B30935D012093C60090919B
:105890006301309340018D91FB01E80F24918091C9
:1058A0005E01282B2093C60030935E0155278D9111
:1058B000FB01E80F249180915F01282B292320937D
:1058C000C60030935F011092C100CE012EB320318B
:1058D00058F43981D801A30FC20FD51F3A813D93E7
:1058E0003A893D933AA13D93C2962AB5203190F46E
:1058F000EC013981D801A30FC20FD51F3A812C9139
:10590000322B3D933A892C91322B3D933AA12C9125
:10591000322B3D93C2962BB5203190F4EC013981A6
:10592000D801A30FC20FD51F3A812C91322B3D9382
:105930003A892C91322B3D933AA12C91322B3D93F5
:10594000C29620B5203190F4EC013981D801A30F23
:10595000C20FD51F3A812C91322B3D933A892C915D
:10596000322B3D933AA12C91322B3D93C29621B517
:10597000203190F4EC013981D801A30FC20FD51F5B
:105980003A812C91322B3D933A892C91322B3D93C5
:105990003AA12C91322B3D93C296EC01242F3881F1
:1059A000231B203188F43981D801A30FC20FD51FE2
:1059B0003A812C91322B3D933A892C91322B3D9395
:1059C0003AA12C91322B3D93C296EC01242F3881C1
:1059D000231B203188F43981D801A30FC20FD51FB2
:1059E0003A812C91322B3D933A892C91322B3D9365
:1059F0003AA12C91322B3D93C296EC01242F388191
:105A0000231B203188F43981D801A30FC20FD51F81
:105A10003A812C91322B3D933A892C91322B3D9334
:105A20003AA12C91322B3D93C296EC01242F388160
:105A3000231B2031F0F43981D801A30FC20FD51FE9
:105A40003A812C91832F322B82233D933A892C91DA
:105A5000932F322B9223892B3D933AA12C91932F94
:105A6000322B9223892B3D9390916201892B809355
:105A700062012091040140916601421714F44093A1
:105A800004010F911F91CF91DF910895789484B50F
:105A9000826084BD84B5816084BD85B5826085BD2A
:105AA00085B5816085BD80916E00816080936E00B8
:105AB00010928100809181008260809381008091AA
:105AC000810081608093810080918000816080935B
:105AD00080008091B10084608093B1008091B0001B
